:020000040800F2
:10000000005000209120000835070008370700083D
:10001000390700083B0700083D0700080000000002
:100020000000000000000000000000003F07000882
:1000300041070008000000004307000845070008CA
:10004000D9200008D9200008D9200008D9200008AC
:10005000D9200008D9200008D9200008D92000089C
:10006000D9200008D9200008D9200008D92000088C
:10007000D9200008D9200008D9200008D92000087C
:10008000D9200008D9200008D9200008D92000086C
:10009000D9200008D9200008D9200008D92000085C
:1000A000D9200008D9200008D9200008D92000084C
:1000B000D9200008D9200008D9200008D92000083C
:1000C000D9200008D9200008D9200008D92000082C
:1000D000D9200008D9200008D9200008D92000081C
:1000E000D9200008D9200008D9200008000000000D
:1000F0000000000000000000000000000000000000
:0C01000000000000000000005FF808F1A3
:10010C0010B5054C237833B9044B13B10448AFF345
:10011C0000800123237010BD70000020000000003F
:10012C00442A000808B5034B1BB103490348AFF33D
:10013C00008008BD0000000074000020442A000864
:10014C0072B6FEE700B591B02822002106A801F096
:10015C00E3FF00230193029303930493059301227D
:10016C0006924FF4803307930A9202220D920E935B
:10017C004FF4E0130F9306A800F048FE80B90F234C
:10018C00019302210291002303934FF480620492A5
:10019C00059301A801F07AF820B911B05DF804FBC1
:1001AC00FFF7CEFFFFF7CCFF00B583B000F0E0FD0A
:1001BC00FFF7C8FF01F036FB01F0CAFB01F06CFB46
:1001CC0001F01CFC00F0CDF800F05AFA00F08EFAA9
:1001DC000021012000F097FA164800F07DFA642007
:1001EC0000F0EAFD144800F0F1F90028F0D1124AB1
:1001FC009378D178114C019100935378127810496F
:10020C00204601F091FF00F071FA0021012000F06E
:10021C007AFA0C4800F060FA0021022000F073FA20
:10022C00204600F059FA4FF47A6000F0C5FD00F05A
:10023C005DFACDE75C2A00088C00002094000020B9
:10024C006C2A0008842A000810B582B00022ADF890
:10025C000420400000F07E008DF804008DF805109D
:10026C00084C1021204601F0FFF96423022201A959
:10027C00054800F05EFB01221021204601F0F4F944
:10028C0002B010BD00080140FC00002070B586B023
:10029C008DF80F0000228DF817208DF81620C3B2B0
:1002AC005B0003F07E0343F080038DF80F30114C9C
:1002BC001021204601F0D8F90F4D64260096012339
:1002CC000DF117020DF10F01284600F00EFC0096FF
:1002DC0001230DF117020DF11601284600F005FC63
:1002EC0001221021204601F0BFF99DF8170006B03D
:1002FC0070BD00BF00080140FC00002008B50F21B4
:10030C000120FFF7A1FF08BD38B504460D46FFF7E5
:10031C00BDFF40EA0501C9B22046FFF795FF38BD85
:10032C0038B504460D46FFF7B1FF20EA0501C9B206
:10033C002046FFF789FF38BD08B510B1012805D05C
:10034C0008BD03211420FFF7EBFFF9E71420FFF79A
:10035C009DFF10F0030FF3D103211420FFF7D4FFFE
:10036C00EEE708B5FFF7CAFF80212A20FFF76CFFE4
:10037C00A9212B20FFF768FFE8212D20FFF764FF50
:10038C0003212C20FFF760FF70212620FFF75CFF74
:10039C0040211520FFF758FF3D211120FFF754FF96
:1003AC000120FFF7C9FF08BD2DE9F04707468A4633
:1003BC00154699460C2817D00E2819D110264FF047
:1003CC00120848F080010220FFF73EFF8021042034
:1003DC00FFF7A6FF80210A20FFF796FF00210120DE
:1003EC00FFF732FF00240DE030264FF07708E8E7E6
:1003FC000026B046E5E71AF804100920FFF724FFA1
:10040C000134A4B2ABB2A342F5D839460120FFF7B0
:10041C001BFF0C2F16D04FF4FA640420FFF736FFA5
:10042C000546013CA4B224B110F0010F01D10642E3
:10043C00F3D080210D20FFF773FF44B90225284625
:10044C00BDE8F08780210D20FFF75EFFE3E7062073
:10045C00FFF71CFF10F01B0F2CD108EA050515F057
:10046C00010500D001250C2FE9D10A20FFF70EFF62
:10047C0006460C20FFF70AFF10F0070009D0731E88
:10048C0000EBC300089B18803EB1102E06D9102635
:10049C0004E0F300089A1380F6E701260024B3B2B7
:1004AC00A342CCD90920FFF7F1FE09F8040001346E
:1004BC00A4B2F4E70225C2E730B585B005460C4678
:1004CC0007210D20FFF7C0FE25700DF10E030093E0
:1004DC002346012221460C20FFF766FF28B9BDF800
:1004EC000E30102B02D0022000E0022005B030BDEF
:1004FC0010B584B0044600210D20FFF7A5FE932310
:10050C002370202363700DF10E0300932346022207
:10051C0021460C20FFF748FF68B104B010BDA15C68
:10052C004B40DBB20132D2B2032AF8D9A25C9A4218
:10053C00F3D00220F1E703460246F5E7F8B507468B
:10054C000D46164604210520FFF7EAFE80210A20FD
:10055C00FFF7DAFE002405E0395D0920FFF774FE91
:10056C000134E4B2AC42F7D303210120FFF76CFE57
:10057C00FF240520FFF78AFE631E13F0FF0402D050
:10058C0010F0040FF5D02220FFF780FE30702120F0
:10059C00FFF77CFE7070F8BD00B585B050238DF868
:1005AC00083000238DF809300DF10A02022102A84F
:1005BC00FFF7C4FF0DF10E03009302AB04221946A2
:1005CC000C20FFF7F1FE05B05DF804FB38B50446CE
:1005DC0001462620FFF770FF054618B1FFF7DCFF38
:1005EC00284638BD2046FFF783FF0546F6E7000096
:1005FC0000B585B000F0F0030001C0B243F00C026E
:10060C008DF80C2043F008038DF80D3040F00C03EE
:10061C008DF80E3040F008008DF80F006423009325
:10062C00042303AA4E21034801F070FC05B05DF8C9
:10063C0004FB00BF9801002000B585B000F0F0036A
:10064C000001C0B243F00D028DF80C2043F00903F9
:10065C008DF80D3040F00D038DF80E3040F0090090
:10066C008DF80F0064230093042303AA4E21034842
:10067C0001F04CFC05B05DF804FB00BF98010020B4
:10068C0008B53320FFF7B4FF3220FFF7B1FF32205B
:10069C0000F092FB2820FFF7ABFF322000F08CFB20
:1006AC000120FFF7A5FF322000F086FB0620FFF7A4
:1006BC009FFF322000F080FB0C20FFF799FF3220C7
:1006CC0000F07AFB0220FFF793FF322000F074FB5E
:1006DC008020FFF78DFF08BD10B5044602E0013401
:1006EC00FFF7AAFF20780028F9D110BD10B58020A3
:1006FC00FFF77EFF002403E02020FFF79DFF01346D
:10070C00452CF9DD10BD08B5012808D001F14000D9
:10071C0040B260F07F00C0B2FFF76AFF08BD08442A
:10072C00C0B27F30C0B2F7E7FEE7FEE7FEE7FEE7B8
:10073C00FEE770477047704708B500F02BFB08BD0B
:10074C0082B00E4B9A6942F001029A619A6902F0EA
:10075C0001020092009ADA6942F08052DA61DB6998
:10076C0003F080530193019B054A536823F0E06327
:10077C0043F00073536002B0704700BF001002409A
:10078C00000001402DE9F04782B005468846174627
:10079C001E4600F00BFB0A9B1B1A03EB060900F02C
:1007AC0005FB82462B4B1B68C3F3CB3309FB03F3CE
:1007BC0001932B689C6838EA04030CBF4FF0010CC2
:1007CC004FF0000CBC4540D0B6F1FF3FF1D000F02B
:1007DC00EDFAA0EB0A0048450AD2B9F1000F07D098
:1007EC00019A02B14A46019B013B01939146E0E715
:1007FC002A68536823F0E00353606B68B3F5827F7B
:10080C000BD0AB6AB3F5005F14D0012385F85130DF
:10081C00002385F85030032018E0AB68B3F5004F87
:10082C0002D0B3F5806FECD12A68136823F0400333
:10083C001360E6E72A68136823F4005313602A68F0
:10084C00136843F400531360DFE7002002B0BDE8E7
:10085C00F08700BF0800002010B582B004460B469C
:10086C00009200228021FFF78DFF08B902B010BD65
:10087C00636D43F0200363650320F7E7002856D02F
:10088C0010B50446436A33B94368B3F5827F05D08B
:10089C000023C36102E00023036143610023A362D0
:1008AC0094F85130002B3CD0022384F8513022684C
:1008BC00136823F040031360636803F48273A26827
:1008CC0002F404421343E26802F400621343226907
:1008DC0002F002021343626902F001021343A2699F
:1008EC0002F400721343E26902F038021343226AE5
:1008FC0002F080021343A26A02F4005221681343EF
:10090C000B60638B226803F0040353602268D36985
:10091C0023F40063D36100206065012384F8513017
:10092C0010BD84F85030204600F0D8FFBCE7012001
:10093C0070472DE9F04383B01D4690F85030012BE1
:10094C0000F0D180044688469146012380F850304F
:10095C0000F02CFA074694F85160F6B2012E40F0E4
:10096C00AF80B8F1000F00F0AC80B9F1000F00F0CF
:10097C00A880032384F8513000236365C4F83080C9
:10098C00A4F83490A4F83690A363A387E387636438
:10099C002364A368B3F5004F1ED023681A6812F0C5
:1009AC00400F03D11A6842F040021A60E368B3F5B5
:1009BC00006F1CD0636813B1B9F1010F52D1226BD7
:1009CC00236812781A73236B01332363E38E9BB273
:1009DC00013B9BB2E38645E02268136823F0400399
:1009EC0013602268136843F480431360D5E763688F
:1009FC0013B1B9F1010F16D1226B23681288DA609A
:100A0C00236B02332363E38E9BB2013B9BB2E386E1
:100A1C0009E000F0CBF9C01BA84202D3B5F1FF3FAF
:100A2C0059D1002D59D0E38E9BB2002B33D02368C3
:100A3C009A6812F0020FECD0226B1288DA60236BEA
:100A4C0002332363E38E9BB2013B9BB2E386EAE75E
:100A5C0000F0ACF9C01BA84202D3B5F1FF3F3ED168
:100A6C00002D3ED0E38E9BB2ABB123689A6812F096
:100A7C00020FEDD0226B12781A73236B01332363B0
:100A8C00B4F836C01FFA8CFC0CF1FF3C1FFA8CFC3E
:100A9C00A4F836C0E6E73A4629462046FFF7DCFEC6
:100AAC0008B120236365A36833B901932368DA681E
:100ABC0001929B680193019B636D13B9002600E0C2
:100ACC000226012384F85130002384F8503030463C
:100ADC0003B0BDE8F0830326F3E70326F1E7032612
:100AEC00EFE70326EDE70226F1E72DE9F04383B0AB
:100AFC001F460A9D90F85030012B00F010810446DF
:100B0C0088469146012380F8503000F04FF9064694
:100B1C0094F85130DBB26268012B0AD0B2F5827FB7
:100B2C0040F0E380A268002A40F0E980042B40F0FA
:100B3C00E880B8F1000F00F0E680B9F1000F00F08A
:100B4C00E480002F00F0E38094F85130DBB2042BEA
:100B5C0002D0052384F8513000236365C4F8389023
:100B6C00E787A787C4F83080E786A7862364636489
:100B7C0023681A6812F0400F03D11A6842F0400241
:100B8C001A60E368B3F5006F11D063680BB1012FE5
:100B9C000BD1226B236812781A73236B01332363F6
:100BAC00E38E9BB2013B9BB2E38601276BE063684B
:100BBC000BB1012F0BD1226B23681288DA60236BE7
:100BCC0002332363E38E9BB2013B9BB2E386012786
:100BDC001CE023689A6812F0010F0ED0E28F92B2DB
:100BEC005AB1DA68A36B1A80A36B0233A363E38F49
:100BFC009BB2013B9BB2E387012700F0D7F8801B27
:100C0C00A84203D3B5F1FF3F40F08380E38E9BB243
:100C1C001BB9E38F9BB2002B53D023689A6812F058
:100C2C00020FD6D0E28E92B2002AD2D0002FD0D0B2
:100C3C00226B1288DA60236B02332363E38E9BB240
:100C4C00013B9BB2E3860027C3E723689A6812F046
:100C5C00010F0ED0E28F92B25AB1DA68A36B1A7000
:100C6C00A36B0133A363E38F9BB2013B9BB2E3877E
:100C7C00012700F09BF8831BAB4202D3B5F1FF3F79
:100C8C0049D1002D49D0E38E9BB213B9E38F9BB2AF
:100C9C00BBB123689A6812F0020FD6D0E28E92B2E2
:100CAC00002AD2D0002FD0D0226B12781A73236B6B
:100CBC0001332363E38E9BB2013B9BB2E386002797
:100CCC00C3E7324629462046FFF7C6FD48B9A3685C
:100CDC0063B901932368DA6801929B680193019BC5
:100CEC0004E020236365012000E00220012384F846
:100CFC005130002384F8503003B0BDE8F08302205B
:100D0C00F4E70220F2E70120F0E70120EEE70120F2
:100D1C00ECE70320EAE70320E8E70320E6E70220FC
:100D2C00EAE7000010B504460E4B18784FF47A73BE
:100D3C00B3FBF0F30C4A1068B0FBF3F000F0E4FCEA
:100D4C0068B90F2C01D901200AE0002221464FF08E
:100D5C00FF3000F0A1FC054B1C60002000E00120DE
:100D6C0010BD00BF0000002008000020040000207F
:100D7C0008B5074A136843F010031360032000F012
:100D8C0079FC0F20FFF7CEFFFFF7DAFC002008BD3F
:100D9C0000200240034A1168034B1B780B4413607C
:100DAC00704700BFF800002000000020014B1868BD
:100DBC00704700BFF800002038B50446FFF7F6FF77
:100DCC000546B4F1FF3F02D0044B1B781C44FFF7DF
:100DDC00EDFF401BA042FAD338BD00BF000000203D
:100DEC0082B0084B1B68084AA2FB03235B0A00FB7A
:100DFC0003F3019300BF019B5A1E0192002BF9D102
:100E0C0002B0704708000020D34D6210002800F09B
:100E1C00F18170B582B00446036813F0010F2CD039
:100E2C00994B5B6803F00C03042B1DD0964B5B684D
:100E3C0003F00C03082B12D06368B3F5803F41D04C
:100E4C00002B55D103F1804303F504331A6822F4C7
:100E5C0080321A601A6822F480221A6037E08A4BBA
:100E6C005B6813F4803FE7D0874B1B6813F4003F9B
:100E7C0003D06368002B00F0BF81236813F0020FCE
:100E8C0075D0814B5B6813F00C0F5FD07E4B5B68A9
:100E9C0003F00C03082B54D02369002B00F08A803C
:100EAC007A4B01221A60FFF781FF0546764B1B68CF
:100EBC0013F0020F75D1FFF779FF401B0228F5D90B
:100ECC0003209EE1704A136843F480331360636817
:100EDC0043B3FFF76BFF05466B4B1B6813F4003FE6
:100EEC00CBD1FFF763FF401B6428F5D9032088E1C1
:100EFC00B3F5A02F09D0644B1A6822F480321A6023
:100F0C001A6822F480221A60E1E703F18043A3F50A
:100F1C003C331A6842F480221A601A6842F4803218
:100F2C001A60D4E7FFF742FF0546574B1B6813F4D2
:100F3C00003FA2D0FFF73AFF401B6428F5D90320ED
:100F4C005FE1514B5B6813F4803FA5D14E4B1B689E
:100F5C0013F0020F03D02369012B40F04F814A4A52
:100F6C00136823F0F803616943EAC1031360236833
:100F7C0013F0080F33D0A369002B5CD0434B012234
:100F8C00C3F88024FFF712FF05463F4B5B6A13F052
:100F9C00020F21D1FFF70AFF401B0228F5D90320CD
:100FAC002FE1394A136823F0F803616943EAC1035E
:100FBC001360DCE7354B00221A60FFF7F7FE05469D
:100FCC00314B1B6813F0020FD1D0FFF7EFFE401B23
:100FDC000228F5D9032014E10120FFF701FF236853
:100FEC0013F0040F00F09680274BDB6913F0805F41
:100FFC0034D1254BDA6942F08052DA61DB6903F0B7
:10100C0080530193019B0125214B1B6813F4807FB6
:10101C0026D0E368012B3DD0002B53D103F1804344
:10102C0003F504331A6A22F001021A621A6A22F0DA
:10103C0004021A6233E0154B0022C3F88024FFF738
:10104C00B5FE0546104B5B6A13F0020FC7D0FFF7D5
:10105C00ADFE401B0228F5D90320D2E00025D3E7D2
:10106C000B4A136843F480731360FFF79FFE064628
:10107C00074B1B6813F4807FCBD1FFF797FE801BC7
:10108C006428F5D90320BCE0001002400000424265
:10109C00007000405F4A136A43F001031362E36877
:1010AC0033B3FFF783FE06465A4B1B6A13F0020F4D
:1010BC002FD1FFF77BFE801B41F288339842F3D986
:1010CC0003209EE0052B09D0524B1A6A22F0010234
:1010DC001A621A6A22F004021A62E0E74D4B1A6A8D
:1010EC0042F004021A621A6A42F001021A62D6E74E
:1010FC00FFF75CFE0646474B1B6A13F0020F08D045
:10110C00FFF754FE801B41F288339842F3D9032039
:10111C0077E0E5B9E369002B72D03E4A526802F0E1
:10112C000C02082A56D0022B17D03B4B00221A6611
:10113C00FFF73CFE0446374B1B6813F0007F47D08B
:10114C00FFF734FE001B0228F5D9032059E0314A81
:10115C00D36923F08053D361DCE72F4B00221A664E
:10116C00FFF724FE05462B4B1B6813F0007F06D0BF
:10117C00FFF71CFE401B0228F5D9032041E0236A2F
:10118C00B3F5803F1AD023494B6823F47413226AB9
:10119C00606A024313434B601F4B01221A66FFF730
:1011AC0005FE04461B4B1B6813F0007F0ED1FFF7A6
:1011BC00FDFD001B0228F5D9032022E0154A5368D7
:1011CC0023F40033A1680B435360DCE7002018E0E4
:1011DC00002016E0012B16D00E4B5B6803F4803117
:1011EC00226A914211D103F47013626A93420ED1B8
:1011FC00002006E001207047012002E0012000E001
:10120C00002002B070BD0120FBE70120F9E70120AE
:10121C00F7E700BF001002400000424286B0174BB7
:10122C000FCB0DF1180C0CE90F0040F20123ADF8B7
:10123C000430134B5B6803F00C02082A02D01148EF
:10124C0006B07047C3F3834218326A4412F8100C8C
:10125C0013F4803F0DD00A4B5B68C3F34043183343
:10126C006B4413F8143C074A02FB00F0B0FBF3F09C
:10127C00E6E7054B03FB00F0E2E700BF942A000809
:10128C000010024000127A0000093D00002800F016
:10129C00A08070B50D460446524B1B6803F0070343
:1012AC008B420BD24F4A136823F007030B43136096
:1012BC00136803F007038B4240F08D80236813F012
:1012CC00020F17D013F0040F04D0474A536843F4AD
:1012DC00E0635360236813F0080F04D0424A53684C
:1012EC0043F460535360404A536823F0F003A16801
:1012FC000B435360236813F0010F31D06368012B4B
:10130C0020D0022B25D0384A126812F0020F64D07C
:10131C0035494A6822F0030213434B60FFF746FD40
:10132C000646314B5B6803F00C036268B3EB820F2B
:10133C0016D0FFF73BFD801B41F288339842F0D961
:10134C00032045E0284A126812F4003FE0D1012046
:10135C003EE0254A126812F0007FD9D1012037E017
:10136C00204B1B6803F00703AB420AD91D4A1368D4
:10137C0023F007032B431360136803F00703AB42FE
:10138C002DD1236813F0040F06D0174A536823F4A9
:10139C00E063E1680B435360236813F0080F07D038
:1013AC00114A536823F46053216943EAC103536023
:1013BC00FFF734FF0C4B5B68C3F303130B4AD35C8E
:1013CC00D8400B4B18600B4B1868FFF7ABFC002098
:1013DC0070BD012070470120FAE70120F8E70120D9
:1013EC00F6E700BF0020024000100240A82A0008C7
:1013FC000800002004000020014B1868704700BF53
:10140C000800002008B5FFF7F7FF044B5B68C3F337
:10141C000223034AD35CD84008BD00BF0010024031
:10142C00B82A000808B5FFF7E7FF044B5B68C3F365
:10143C00C223034AD35CD84008BD00BF0010024051
:10144C00B82A000870B582B00024A446A6E0804DEE
:10145C00AA4210D007D97F4DAA420CD005F5803591
:10146C00AA4208D013E0A5F58015AA4203D005F5D1
:10147C007025AA4207D18A68002A58D0012A51D077
:10148C004361082403E0A5F58015AA42F3D0BEF110
:10149C00FF0F4ED80646BEF1FF0F4CD84FEA8C0218
:1014AC0033680F25954023EA050304FA02F213432F
:1014BC0033604B6813F0805F6ED0674B9A6942F0D3
:1014CC0001029A619B6903F001030193019B4FEAAE
:1014DC009C02951C614B53F825600CF003039D0096
:1014EC000F23AB4026EA03065D4B984229D003F547
:1014FC008063984200F08E8003F58063984200F080
:10150C008B8003F58063984219D004231AE0CC68D1
:10151C00BDE7CC680434BAE7CC680834B7E7CC68CC
:10152C000C34B4E703610824B1E70024AFE70424CA
:10153C00ADE7061DAFE7ACF108029200B0E703235C
:10154C0000E00023AB4033430232444D45F82230D7
:10155C004B6813F4803F61D0424A136843EA0E0390
:10156C0013604B6813F4003F5ED03E4A536843EA65
:10157C000E0353604B6813F4801F5BD0394A936899
:10158C0043EA0E0393604B6813F4001F58D0354A9E
:10159C00D36843EA0E03D3600CF1010C0A6832FAEB
:1015AC000CF353D0012303FA0CF302EA030E33EAD3
:1015BC000202F1D14A68122A3FF649AF122A3FF6CD
:1015CC0066AF01A555F822F0831400081B1500081E
:1015DC0025150008371500089B1400089B140008FB
:1015EC009B1400089B1400089B1400089B14000813
:1015FC009B1400089B1400089B1400089B14000803
:10160C009B1400089B1400089B1400081F1500086D
:10161C002B150008012395E7022393E7114A136861
:10162C0023EA0E0313609CE70E4A536823EA0E0369
:10163C0053609FE70B4A936823EA0E039360A2E77B
:10164C00084AD36823EA0E03D360A5E702B070BD45
:10165C000000221000003110001002400000014078
:10166C0000080140000401400AB1016170470904FF
:10167C0001617047074AD36823F4E0631B041B0C19
:10168C00000200F4E060034343F0BF6343F4003313
:10169C00D360704700ED00E000B5194BDB68C3F375
:1016AC000223C3F1070CBCF1040F28BF4FF0040C4C
:1016BC0003F1040EBEF1060F18D9033B4FF0FF3EA9
:1016CC000EFA0CFC21EA0C0199400EFA03F322EA03
:1016DC000303194300280BDB0901C9B200F1604078
:1016EC0000F5614080F800135DF804FB0023E5E78A
:1016FC0000F00F000901C9B2024B1954F4E700BF06
:10170C0000ED00E014ED00E00138B0F1807F0BD269
:10171C004FF0E0235861054AF02182F82310002095
:10172C00986107221A6170470120704700ED00E0B4
:10173C0010B504460268136923F44053C1680B4387
:10174C00136183680269134342691A430168CB68C9
:10175C0023F4B05323F00C031343CB60026853699A
:10176C0023F4407381690B4353610268134B9A4213
:10177C0020D0FFF747FE024602EB820202EB820208
:10178C0063689B00B2FBF3F20D48A0FB02314909E0
:10179C00642303FB11231B013233A0FB03235B09DE
:1017AC0003F0F00202EB011203F00F032168134463
:1017BC008B6010BDFFF736FE0246DDE700380140B6
:1017CC001F85EB5158B310B5044690F83D300BB360
:1017DC00242384F83D302268D36823F40053D3606B
:1017EC002046FFF7A5FF2268136923F49043136189
:1017FC002268536923F02A0353612268D36843F4A7
:10180C000053D36000202064202384F83D3084F8FA
:10181C003E3010BD80F83C3000F0B4F8D8E7012021
:10182C007047704730B589B0002404940594069431
:10183C000794174B9A6942F020029A619A6902F058
:10184C0020020192019A9A6942F004029A619A6903
:10185C0002F004020292029A9A6942F008029A611A
:10186C009B6903F008030393039B0A4D2246102146
:10187C002846FFF7F9FE10230493012305930694E1
:10188C000223079304A92846FFF7DCFD09B030BDFD
:10189C00001002400008014008B50E480E4B0360D2
:1018AC004FF48273436000238360C3600361436120
:1018BC004FF4007282611022C26103624362836240
:1018CC000A23C362FEF7DAFF00B908BDFEF738FC45
:1018DC00FBE700BFFC0000200030014010B586B0D3
:1018EC00002302930393049305930268164B9A42C8
:1018FC0001D006B010BD03F560439A6942F48052E2
:10190C009A619A6902F480520092009A9A6942F0A4
:10191C0004029A619B6903F004030193019BA023C9
:10192C0002930223039303230593084C02A9204638
:10193C00FFF788FD4023029300230393049302A92D
:10194C002046FFF77FFDD4E700300140000801403E
:10195C0008B50A480A4B03604FF4E1334360002397
:10196C008360C36003610C2242618361C361FFF732
:10197C0029FF00B908BDFEF7E3FBFBE7540100208B
:10198C000038014010B586B00023029303930493F2
:10199C0005930268174B9A4201D006B010BD03F5AF
:1019AC0058439A6942F480429A619A6902F48042DF
:1019BC000092009A9A6942F004029A619B6903F0C2
:1019CC0004030193019B4FF40073029302230393CE
:1019DC0003230593084C02A92046FFF733FD4FF46F
:1019EC008063029300230393049302A92046FFF71C
:1019FC0029FDD2E7003801400008014008B50B482A
:101A0C000B4B03600B4B436000238360C3604FF4AC
:101A1C008042026143618361C361036200F098F903
:101A2C0000B908BDFEF78CFBFBE700BF9801002056
:101A3C0000540040A086010010B586B0002302932C
:101A4C000393049305930268114B9A4201D006B09C
:101A5C0010BD104CA36943F00803A361A36903F004
:101A6C0008030093009BC0230293122303930323C8
:101A7C00059302A90848FFF7E5FCE36943F400135A
:101A8C00E361E36903F400130193019BDFE700BFFB
:101A9C000054004000100240000C014003685A69D9
:101AAC0012F4806F01D1002070476FF480625A618C
:101ABC0000230363202280F83D2080F83E30026C26
:101ACC0042F00402026480F83C30012070472DE99A
:101ADC00F04107460D4690461E4624E0FFF766F996
:101AEC00069BC01AB04200D8EEB900233B632022FB
:101AFC0087F83D2087F83E303A6C42F020023A6479
:101B0C0087F83C3001201EE03B689C6925EA040CF8
:101B1C001FFA8CFCBCFA8CFC4FEA5C1CE04511D122
:101B2C00B6F1FF3FDAD1C5F30743012BECD13B688B
:101B3C005B6925EA030C1FFA8CFCBCFA8CFC4FEA9F
:101B4C005C1CEBE70020BDE8F0812DE9F041054677
:101B5C000E46174698463DE01A6842F400721A6029
:101B6C002B686FF480625A6100232B63202285F866
:101B7C003D2085F83E302A6C42F004022A6485F838
:101B8C003C30012034E0FFF711F9A0EB0800B8421B
:101B9C0000D8FFB900232B63202285F83D2085F85F
:101BAC003E302A6C42F020022A6485F83C30012039
:101BBC001EE02B689C6926EA0404A4B2003C18BF02
:101BCC000124A4B12B685A6912F4806FC4D1B7F107
:101BDC00FF3FD8D1C6F30743012BEAD12B685C69D0
:101BEC0026EA0404A4B2003C18BF0124E9E7002053
:101BFC00BDE8F081F0B583B004460D4616461F468D
:101C0C00C36A082B0DD0012B0BD013F5803F08D0E5
:101C1C00036B122B0AD10268136843F480731360B0
:101C2C0004E02268136843F4807313600097334612
:101C3C0000224FF001112046FFF749FF80B92369BC
:101C4C00B3F5804F16D1236805F0FE051D613B46A8
:101C5C00324613492046FFF778FFF8B903B0F0BDC0
:101C6C0023681B6813F4807F02D04FF40073236445
:101C7C000320F3E7EB11226803F0060343F0F003B3
:101C8C0013613B46324607492046FFF75EFF18B901
:101C9C002368EDB21D61DAE70120DFE70120DDE703
:101CAC00020001000800010070B504460D461646FE
:101CBC0023685B6913F0800F1CD12046FFF7EEFE02
:101CCC00D0B9B5F1FF3FF3D0FFF770F8801BA842F5
:101CDC0001D8002DECD100232363202284F83D2071
:101CEC0084F83E30226C42F02002226484F83C30AE
:101CFC00012000E0002070BD0120FCE770B5044617
:101D0C000D46164623685B6913F0040F1CD1204660
:101D1C00FFF7C4FED0B9B5F1FF3FF3D0FFF746F89B
:101D2C00801BA84201D8002DECD100232363202274
:101D3C0084F83D2084F83E30226C42F0200222646C
:101D4C0084F83C30012000E0002070BD0120FCE74D
:101D5C00002800F0CC8070B5044690F83D30002B84
:101D6C0077D0242384F83D302268136823F00103D4
:101D7C0013602268136843F40043136022681368ED
:101D8C0023F400431360FFF73DFB62685A4B9A4201
:101D9C0064D85A4B98428CBF00230123002B40F08F
:101DAC00A8805749A1FB00318B0C25686A6822F08A
:101DBC003F0242EA91426A6021680A6A22F03F02BD
:101DCC0066684D4DAE424FD8013313430B62216808
:101DDC00CA6922F44F4222F0FF026668464B9E42CB
:101DEC004CD8431E7600B3FBF6F3013340F6FC707F
:101DFC00034278D0C3F30B031343CB6121680B6808
:101E0C0023F0C003E269206A024313430B6021688C
:101E1C008B6823F4034323F0FF032269E068024339
:101E2C0013438B602168CB6823F0FF036269A069C0
:101E3C0002431343CB602268136843F00103136021
:101E4C0000202064202384F83D30206384F83E0079
:101E5C0070BD80F83C30FFF7EFFD82E7294B9842CC
:101E6C008CBF0023012399E74FF4967505FB03F310
:101E7C00254DA5FB03539B090133A6E7A368BBB90A
:101E8C00451E06EB460CB5FBFCF50135C5F30B0501
:101E9C00B5FA85F56D0945BBC3B9013806EB4603A8
:101EAC00B0FBF3F30133C3F30B0343F40043A3E799
:101EBC00451E06EB860C0CEB8C0CB5FBFCF50135CA
:101ECC00C5F30B05B5FA85F56D09E4E7013806EBAA
:101EDC00860303EB8303B0FBF3F30133C3F30B0370
:101EEC0043F4404388E7042386E7012384E7012079
:101EFC0070470120ACE700BFA08601007F841E0064
:101F0C0083DE1B43FF083D00D34D62102DE9F043E7
:101F1C0085B004460F46914698460C9EFEF746FF48
:101F2C00054694F83D00C0B2202804D0022738465C
:101F3C0005B0BDE8F0830095192301224F492046D6
:101F4C00FFF7C5FD002840F0928094F83C30012B3F
:101F5C0000F08F80012384F83C3023681A6812F05B
:101F6C00010F03D11A6842F001021A60226813684B
:101F7C0023F400631360212384F83D30102384F88C
:101F8C003E3000232364C4F82490A4F82A80638D87
:101F9C0023853B4BE3622B46324639462046FFF7FE
:101FAC0029FE0746002866D10023039323685A694B
:101FBC0003929B690393039B11E0236C042B01D0C8
:101FCC000127B4E72268136843F400731360F7E742
:101FDC002A4631462046FFF791FE00282ED1238D4C
:101FEC00002B36D02A4631462046FFF75DFE0028EE
:101FFC00E3D1626A236812781A61606A431C6362D7
:10200C00618D89B2013989B26185238D013B9BB207
:10201C0023852268516911F0040FD9D0002BD7D039
:10202C0043781361636A01336362638D9BB2013B36
:10203C009BB26385238D013B2385C9E7236C042B5D
:10204C0001D0012773E72268136843F4007313600F
:10205C00F7E72268136843F400731360202384F8B5
:10206C003D30002384F83E3084F83C305FE7022793
:10207C005DE702275BE7012759E700BF020010006C
:10208C000000FFFF0C480D490D4A002302E0D45814
:10209C00C4500433C4188C42F9D30A4A0A4C0023A6
:1020AC0001E013600432A242FBD3FFF7BAFB00F04D
:1020BC000FF8FEF779F87047000000207000002040
:1020CC00FC2A00087000002000020020FEE700003F
:1020DC0070B500260C4D0D4C641BA410A64209D102
:1020EC0000F0AAFC00260A4D0A4C641BA410A64260
:1020FC0005D170BD55F8043B98470136EEE755F80D
:10210C00043B98470136F2E7F42A0008F42A000849
:10211C00F42A0008F82A000803460244934200D12E
:10212C00704703F8011BF9E70EB46FF0004100B5DE
:10213C009CB01DAB02900690079104910848094988
:10214C0053F8042B0591006802A9019300F068F87C
:10215C000022029B1A701CB05DF804EB03B07047B0
:10216C000C0000200802FFFF2DE9F0478E68824624
:10217C009E420C4690461F4638D88A8912F4906FBE
:10218C0032D0256809690133A5EB010965694B4417
:10219C0005EB450505EBD5756D109D4238BF1D4609
:1021AC00530531D5294600F06FFB064650B90C2378
:1021BC004FF0FF30CAF80030A38943F04003A381ED
:1021CC00BDE8F0874A46216900F0CEFAA38923F4D2
:1021DC00906343F08003A38126614E4426603E4603
:1021EC006561A5EB0905A560BE4200D93E463246A5
:1021FC004146206800F0C6FAA36800209B1BA36030
:10220C00236833442360DBE72A4600F0B1FB064623
:10221C000028E1D15046216900F0CEFAC7E7000052
:10222C002DE9F04F98468B8907461B060D46144640
:10223C009DB00ED50B6963B9402100F025FB2860D9
:10224C00286120B90C233B604FF0FF30D1E04023D4
:10225C006B610023099320238DF8293030234FF034
:10226C000109CDF80C80DFF8A4818DF82A302346C3
:10227C009A4613F8012B0AB1252AF9D1BAEB040BB3
:10228C000BD05B46224629463846FFF76DFF0130DE
:10229C0000F0AA80099A5A4409929AF80030002B4F
:1022AC0000F0A28000234FF0FF32CDE905230AF1A4
:1022BC00010A049307938DF853301A935446052260
:1022CC0014F8011B514800F041FA049AD8B9D00611
:1022DC0044BF20238DF85330110744BF2B238DF8B6
:1022EC0053309AF800302A2B15D0544600204FF06A
:1022FC000A0C079A214611F8013B303B092B4ED9A9
:10230C00B0B1079214E0A0EB080309FA03F31343EE
:10231C00A2460493D2E7039B191D1B680391002B63
:10232C00BBBF5B4242F0020207930793B8BF049213
:10233C0023782E2B0CD163782A2B35D1039B0234B6
:10234C001A1D1B680392002BB8BF4FF0FF33059387
:10235C00DFF8BCA003225046217800F0F7F940B119
:10236C004023A0EB0A0003FA00F0049B0134034362
:10237C00049314F8011B062226488DF8281000F04F
:10238C00E5F9002838D0244B1BBB039B073323F003
:10239C00070308330393099B3344099367E70C46FF
:1023AC0001200CFB0232A5E700234FF00A0C194662
:1023BC0001340593204610F8012B303A092A03D931
:1023CC00002BC5D00591C3E7044601230CFB01216A
:1023DC00F0E703AB00932A463846104B04A9AFF341
:1023EC000080421C0646D6D1AB895B063FF52CAF6C
:1023FC0009981DB0BDE8F08F03AB00932A46384610
:10240C00064B04A900F07CF8EBE700BFC02A0008DB
:10241C00C62A0008CA2A000800000000752100081E
:10242C002DE9F047164699468A680B690746934290
:10243C00B8BF1346336091F843200C46DDF820807A
:10244C000AB1013333602368990642BF3368023303
:10245C003360256815F0060506D104F1190AE36806
:10246C0032689B1AAB4228DC94F84320131E226876
:10247C0018BF012392062DD44946384604F1430275
:10248C00C047013020D02368E56803F00603042B15
:10249C0018BF002532684FF00006A36808BFAD1ABC
:1024AC00226908BF25EAE5759342C4BF9B1AED1853
:1024BC001A34B5421AD1002008E00123524649468D
:1024CC003846C047013003D14FF0FF30BDE8F087EC
:1024DC000135C4E73020E11881F843005A1C94F808
:1024EC0045102244023382F84310C5E701232246EB
:1024FC0049463846C0470130E6D00136D9E70000DE
:10250C002DE9FF470F7E9146782F80460C469A4660
:10251C000C9D01F1430207D8622F0AD8002F00F05E
:10252C00D980582F00F0A48004F1420584F8427041
:10253C003AE0A7F16303152BF6D801A151F823F06B
:10254C00A5250008B9250008352500083525000803
:10255C003525000835250008B92500083525000863
:10256C00352500083525000835250008C726000844
:10257C00E9250008A926000835250008352500089E
:10258C00E926000835250008E9250008352500084E
:10259C0035250008B12600082B681A1D1B682A6017
:1025AC0004F1420584F842300123A4E02068296834
:1025BC00060601F104030AD50E682B60002E03DA1F
:1025CC002D23764284F843300A235E4819E00E68C6
:1025DC0010F0400F2B6018BF36B2EFE72B68206865
:1025EC00191D2960010601D51E6802E04606FBD5BF
:1025FC001E886F2F0CBF08230A235248002184F831
:10260C0043106568002DA8BF2168A560A4BF21F008
:10261C00040121600EB9002D4DD01546B6FBF3F127
:10262C0003FB1167C75D05F8017D3746BB420E46BB
:10263C00F4D9082B0BD12368DE0708D52369616810
:10264C009942DEBF302305F8013C05F1FF35521BE2
:10265C0022614B4621464046CDF800A003AAFFF765
:10266C00DFFE01304CD14FF0FF3004B0BDE8F087F5
:10267C00344881F845702968236851F8046B296047
:10268C001D0614D5DF0744BF43F0200323601EB999
:10269C00236823F0200323601023AFE7236843F063
:1026AC00200323607823284884F84530E3E7590653
:1026BC0048BFB6B2E6E71546BBE72B682668181D7F
:1026CC006169286035061B6801D5196002E0700647
:1026DC00FBD51980002315462361BAE72B6800212E
:1026EC001A1D2A601D686268284600F02FF808B190
:1026FC00401B606063682361002384F84330A8E7C3
:10270C002A46494640462369D0470130ABD023685E
:10271C009B0713D4E068039B9842B8BF1846A4E704
:10272C000123324649464046D04701309BD0013503
:10273C00E36803995B1AAB42F2DCEBE7002504F18A
:10274C001906F5E7D12A0008E22A0008034610B55D
:10275C00C9B202449342184601D1002003E0047828
:10276C0001338C42F6D110BD0A44914200F1FF3383
:10277C0000D1704710B511F8014B914203F8014F8D
:10278C00F9D110BD884210B501EB020402D9844284
:10279C00234607D8431EA14208D011F8012B03F899
:1027AC00012FF8E7014602448A4200D110BD13F80C
:1027BC00014D02F8014DF7E738B50546002940D028
:1027CC0051F8043C0C1F002BB8BFE41800F010F9B2
:1027DC001C4A136833B9636014602846BDE838405E
:1027EC0000F00CB9A34208D9206821188B4201BF14
:1027FC0019685B6809182160EDE71A465B680BB134
:10280C00A342FAD911685018A0420BD12068014498
:10281C00501883421160E0D118685B680144116064
:10282C005360DAE702D90C232B60D6E72068211815
:10283C008B4201BF19685B680918216063605460A2
:10284C00CBE738BDEC01002070B50E4E0C4631685C
:10285C00054611B900F0BCF830602146284600F05E
:10286C00B7F8431C0AD0C41C24F00304A04207D0C0
:10287C00211A284600F0ACF8013001D14FF0FF349A
:10288C00204670BDF00100202DE9F041CD1C25F053
:10289C00030508350C2D38BF0C25002D074601DB30
:1028AC00A94205D90C2300263B603046BDE8F081D7
:1028BC002E4E00F09DF833681C4634BB2946384632
:1028CC00FFF7C2FF431C04464DD134682646002E48
:1028DC0040D123683146384604EB030800F078F801
:1028EC0080453AD1216803356D1A25F0030508356A
:1028FC000C2D38BF0C2538462946FFF7A5FF0130B3
:10290C002BD023682B4423600EE02268521B1ED46C
:10291C000B2A16D96119A342256018BF5960636848
:10292C0008BF316062514B60384604F10B0600F071
:10293C0065F826F00706231DF21AB6D09B1BA35090
:10294C00B3E76268A3420CBF32605A60ECE72346DF
:10295C006468B2E734467668B9E70C2338463B60C6
:10296C0000F04CF8A1E72560DEE700BFEC01002089
:10297C002DE9F041804614460E4621B91146BDE8BA
:10298C00F041FFF781BF2AB9FFF716FF254628460D
:10299C00BDE8F08100F038F88442074602D8B4EB69
:1029AC00500F12D821464046FFF76EFF054600280F
:1029BC00EDD0BC422246314628BF3A46FFF7D4FE42
:1029CC0031464046FFF7F8FEE1E73546DFE7000009
:1029DC0038B50023054D044608462B6000F01EF860
:1029EC00431C02D12B6803B1236038BDF4010020D5
:1029FC00014800F011B800BFF8010020014800F0B8
:102A0C000CB800BFF801002051F8043C181F002B33
:102A1C00BCBF0B58C018704770477047044A054933
:102A2C001368002B08BF0B461844106018467047FB
:102A3C00FC01002000020020F8B500BFF8BC08BC67
:102A4C009E467047F8B500BFF8BC08BC9E46704760
:102A5C0057616974696E672E2E2E2E2E00000000B1
:102A6C0049443A2025303258202530325820253020
:102A7C0032582025303258004D616E64657669639A
:102A8C00654C61620000000002030405060708099A
:102A9C000A0B0C0D0E0F10100000000000000000BF
:102AAC0000000000010203040607080900000000F2
:102ABC0001020304232D302B2000686C4C0065664A
:102ACC006745464700303132333435363738394173
:102ADC004243444546003031323334353637383989
:082AEC0061626364656600008D
:042AF40031010008A4
:042AF8000D010008C4
:102AFC0001000000100000000024F4001000002071
:102B0C0000000000000000000000000000000000B9
:102B1C0000000000000000000000000000000000A9
:102B2C000000000000000000000000000000000099
:102B3C000000000000000000000000000000000089
:102B4C000000000000000000000000000000000079
:102B5C000000000000000000000000000000000069
:04000005080020913E
:00000001FF
