:020000040800F2
:1000000000500020D53B0008A5100008A7100008EC
:10001000A9100008AB100008AD1000080000000097
:10002000000000000000000000000000AF10000809
:10003000B110000800000000B3100008B51000085F
:100040001D3C00081D3C00081D3C00081D3C00082C
:100050001D3C00081D3C00081D3C00081D3C00081C
:100060001D3C00081D3C00081D3C00081D3C00080C
:100070001D3C00081D3C00081D3C00081D3C0008FC
:100080001D3C00081D3C00081D3C00081D3C0008EC
:100090001D3C00081D3C00081D3C00081D3C0008DC
:1000A0001D3C00081D3C00081D3C00081D3C0008CC
:1000B0001D3C00081D3C00081D3C0008BD10000848
:1000C0001D3C00081D3C00081D3C00081D3C0008AC
:1000D0001D3C0008CD1000081D3C00081D3C000818
:1000E0001D3C00081D3C00081D3C000800000000ED
:1000F0000000000000000000000000000000000000
:0C01000000000000000000005FF808F1A3
:1001100010B5054C237833B9044B13B10448AFF341
:1001200000800123237010BD70000020000000003B
:10013000684B000808B5034B1BB103490348AFF3F4
:10014000008008BD0000000074000020684B00081B
:1001500081F0004102E000BF83F0004330B54FEA78
:1001600041044FEA430594EA050F08BF90EA020FE5
:100170001FBF54EA000C55EA020C7FEA645C7FEA78
:10018000655C00F0E2804FEA5454D4EB5555B8BF9B
:100190006D420CDD2C4480EA020281EA030382EA0C
:1001A000000083EA010180EA020281EA0303362D9E
:1001B00088BF30BD11F0004F4FEA01314FF4801C71
:1001C0004CEA113102D0404261EB410113F0004F83
:1001D0004FEA03334CEA133302D0524263EB43033A
:1001E00094EA050F00F0A780A4F10104D5F1200ED8
:1001F0000DDB02FA0EFC22FA05F2801841F1000133
:1002000003FA0EF2801843FA05F359410EE0A5F106
:1002100020050EF1200E012A03FA0EFC28BF4CF037
:10022000020C43FA05F3C01851EBE37101F00045ED
:1002300007D54FF0000EDCF1000C7EEB00006EEBFA
:100240000101B1F5801F1BD3B1F5001F0CD3490884
:100250005FEA30004FEA3C0C04F101044FEA4452DB
:1002600012F5800F80F09A80BCF1004F08BF5FEA62
:10027000500C50F1000041EB045141EA050130BD42
:100280005FEA4C0C404141EB0101013C28BFB1F554
:10029000801FE9D291F0000F04BF01460020B1FA9F
:1002A00081F308BF2033A3F10B03B3F120020CDA72
:1002B0000C3208DD02F1140CC2F10C0201FA0CF050
:1002C00021FA02F10CE002F11402D8BFC2F1200CB5
:1002D00001FA02F120FA0CFCDCBF41EA0C0190406B
:1002E000E41AA2BF01EB0451294330BD6FEA0404B4
:1002F0001F3C1CDA0C340EDC04F11404C4F120029F
:1003000020FA04F001FA02F340EA030021FA04F3B0
:1003100045EA030130BDC4F10C04C4F1200220FA07
:1003200002F001FA04F340EA0300294630BD21FA45
:1003300004F0294630BD94F0000F83F4801306BF0B
:1003400081F480110134013D4EE77FEA645C18BFFF
:100350007FEA655C29D094EA050F08BF90EA020F96
:1003600005D054EA000C04BF1946104630BD91EA8E
:10037000030F1EBF0021002030BD5FEA545C05D191
:100380004000494128BF41F0004130BD14F58004D0
:100390003CBF01F5801130BD01F0004545F0FE4144
:1003A00041F470014FF0000030BD7FEA645C1ABF79
:1003B000194610467FEA655C1CBF0B46024650EAB0
:1003C000013406BF52EA033591EA030F41F40021DC
:1003D00030BD00BF90F0000F04BF0021704730B562
:1003E0004FF4806404F132044FF000054FF0000137
:1003F00050E700BF90F0000F04BF0021704730B5F8
:100400004FF4806404F1320410F0004548BF4042CC
:100410004FF000013EE700BF42004FEAE2014FEA21
:1004200031014FEA02701FBF12F07F4393F07F4FFC
:1004300081F06051704732F07F4208BF704793F0FF
:100440007F4F04BF41F40021704730B54FF4607412
:1004500001F0004521F000411CE700BF50EA010215
:1004600008BF704730B54FF000050AE050EA0102BE
:1004700008BF704730B511F0004502D5404261EB2E
:1004800041014FF4806404F132045FEA915C3FF46F
:10049000D8AE4FF003025FEADC0C18BF03325FEA0C
:1004A000DC0C18BF033202EBDC02C2F1200300FABD
:1004B00003FC20FA02F001FA03FE40EA0E0021FAE2
:1004C00002F11444BDE600BF70B54FF0FF0C4CF4D0
:1004D000E06C1CEA11541DBF1CEA135594EA0C0F82
:1004E00095EA0C0F00F0DEF82C4481EA030621EABD
:1004F0004C5123EA4C5350EA013518BF52EA0335F8
:1005000041F4801143F4801338D0A0FB02CE4FF0A9
:100510000005E1FB02E506F00042E0FB03E54FF0D9
:100520000006E1FB03569CF0000F18BF4EF0010ED1
:10053000A4F1FF04B6F5007F64F5407404D25FEACD
:100540004E0E6D4146EB060642EAC62141EA555180
:100550004FEAC52040EA5E504FEACE2EB4F1FD0CC2
:1005600088BFBCF5E06F1ED8BEF1004F08BF5FEA40
:10057000500E50F1000041EB045170BD06F00046F2
:1005800046EA010140EA020081EA0301B4EB5C049F
:10059000C2BFD4EB0C0541EA045170BD41F4801197
:1005A0004FF0000E013C00F3AB8014F1360FDEBFBC
:1005B000002001F0004170BDC4F10004203C35DA98
:1005C0000C341BDC04F11404C4F1200500FA05F31B
:1005D00020FA04F001FA05F240EA020001F00042BC
:1005E00021F0004110EBD37021FA04F642EB060132
:1005F0005EEA430E08BF20EAD37070BDC4F10C045C
:10060000C4F1200500FA04F320FA05F001FA04F21F
:1006100040EA020001F0004110EBD37041F100010B
:100620005EEA430E08BF20EAD37070BDC4F1200516
:1006300000FA05F24EEA020E20FA04F301FA05F27E
:1006400043EA020321FA04F001F0004121FA04F226
:1006500020EA020000EBD3705EEA430E08BF20EAF6
:10066000D37070BD94F0000F0FD101F00046400030
:1006700041EB010111F4801F08BF013CF7D041EAB2
:10068000060195F0000F18BF704703F000465200B6
:1006900043EB030313F4801F08BF013DF7D043EA87
:1006A0000603704794EA0C0F0CEA135518BF95EA3D
:1006B0000C0F0CD050EA410618BF52EA4306D1D1C4
:1006C00081EA030101F000414FF0000070BD50EAE3
:1006D000410606BF1046194652EA430619D094EA6D
:1006E0000C0F02D150EA013613D195EA0C0F05D157
:1006F00052EA03361CBF104619460AD181EA0301AB
:1007000001F0004141F0FE4141F470014FF0000062
:1007100070BD41F0FE4141F4780170BD70B54FF0FD
:10072000FF0C4CF4E06C1CEA11541DBF1CEA13557D
:1007300094EA0C0F95EA0C0F00F0A7F8A4EB05045F
:1007400081EA030E52EA03354FEA013100F0888056
:100750004FEA03334FF0805545EA131343EA12631F
:100760004FEA022245EA111545EA10654FEA0026D4
:100770000EF000419D4208BF964244F1FD0404F58D
:10078000407402D25B084FEA3202B61A65EB0305E9
:100790005B084FEA32024FF480104FF4002CB6EBA6
:1007A000020E75EB030E22BFB61A754640EA0C0026
:1007B0005B084FEA3202B6EB020E75EB030E22BF66
:1007C000B61A754640EA5C005B084FEA3202B6EBA7
:1007D000020E75EB030E22BFB61A754640EA9C0066
:1007E0005B084FEA3202B6EB020E75EB030E22BF36
:1007F000B61A754640EADC0055EA060E18D04FEAF4
:10080000051545EA16754FEA06164FEAC30343EA93
:1008100052734FEAC2025FEA1C1CC0D111F4801F60
:100820000BD141EA00014FF000004FF0004CB6E759
:1008300011F4801F04BF01430020B4F1FD0C88BFF8
:10084000BCF5E06F3FF6AFAEB5EB030C04BFB6EB03
:10085000020C5FEA500C50F1000041EB045170BDF6
:100860000EF0004E4EEA113114EB5C04C2BFD4EB23
:100870000C0541EA045170BD41F480114FF0000EA7
:10088000013C90E645EA060E8DE60CEA135594EA23
:100890000C0F08BF95EA0C0F3FF43BAF94EA0C0F26
:1008A0000AD150EA01347FF434AF95EA0C0F7FF49B
:1008B00025AF104619462CE795EA0C0F06D152EAEF
:1008C00003353FF4FDAE1046194622E750EA4106D3
:1008D00018BF52EA43067FF4C5AE50EA41047FF4E4
:1008E0000DAF52EA43057FF4EBAE12E74FF0FF3C49
:1008F00006E000BF4FF0010C02E000BF4FF0010C1A
:100900004DF804CD4FEA410C7FEA6C5C4FEA430C92
:1009100018BF7FEA6C5C1BD001B050EA410C0CBFE1
:1009200052EA430C91EA030F02BF90EA020F002043
:10093000704710F1000F91EA030F58BF994208BFAA
:1009400090422CBFD8176FEAE37040F00100704767
:100950004FEA410C7FEA6C5C02D150EA013C07D1BE
:100960004FEA430C7FEA6C5CD6D152EA033CD3D009
:100970005DF8040B704700BF8446104662468C4603
:100980001946634600E000BF01B5FFF7B7FF002836
:1009900048BF10F1000F01BD4DF808EDFFF7F4FF5F
:1009A0000CBF012000205DF808FB00BF4DF808EDEA
:1009B000FFF7EAFF34BF012000205DF808FB00BF0D
:1009C0004DF808EDFFF7E0FF94BF012000205DF82F
:1009D00008FB00BF4DF808EDFFF7CEFF94BF0120E4
:1009E00000205DF808FB00BF4DF808EDFFF7C4FFDD
:1009F00034BF012000205DF808FB00BF4FEA410C26
:100A00007FEA6C5C02D150EA013C0AD14FEA430C08
:100A10007FEA6C5C02D152EA033C02D14FF0000045
:100A200070474FF0010070474FEA4102B2F1E043D6
:100A300024BFB3F5001CDCF1FE5C0DD901F0004CC5
:100A40004FEAC0024CEA5070B2F1004F40EB830015
:100A500008BF20F00100704711F0804F21D113F141
:100A60003872BCBF01F00040704741F480114FEA7A
:100A70005252C2F11802C2F1200C10FA0CF320FA03
:100A800002F018BF40F001004FEAC1234FEAD32320
:100A900003FA0CFC40EA0C0023FA02F34FEA43038A
:100AA000CCE77FEA625307D150EA01331EBF4FF013
:100AB000FE4040F44000704701F0004040F0FE402E
:100AC00040F40000704700BF80F0004002E000BF2B
:100AD00081F0004142001FBF5FEA410392EA030F29
:100AE0007FEA226C7FEA236C6AD04FEA1262D2EB73
:100AF0001363C1BFD218414048404140B8BF5B4278
:100B0000192B88BF704710F0004F40F4000020F010
:100B10007F4018BF404211F0004F41F4000121F026
:100B20007F4118BF494292EA030F3FD0A2F1010270
:100B300041FA03FC10EB0C00C3F1200301FA03F1AE
:100B400000F0004302D5494260EB4000B0F5000FD1
:100B500013D3B0F1807F06D340084FEA310102F190
:100B60000102FE2A51D2B1F1004F40EBC25008BF42
:100B700020F0010040EA03007047490040EB00000C
:100B8000013A28BFB0F5000FEDD2B0FA80FCACF10D
:100B9000080CB2EB0C0200FA0CF0AABF00EBC2503A
:100BA00052421843BCBFD0401843704792F0000F28
:100BB00081F4000106BF80F400000132013BB5E77B
:100BC0004FEA41037FEA226C18BF7FEA236C21D0F1
:100BD00092EA030F04D092F0000F08BF0846704756
:100BE00090EA010F1CBF0020704712F07F4F04D124
:100BF000400028BF40F00040704712F100723CBF37
:100C000000F50000704700F0004343F0FE4040F460
:100C1000000070477FEA226216BF08467FEA23631E
:100C20000146420206BF5FEA412390EA010F40F409
:100C3000800070474FF0000304E000BF10F0004355
:100C400048BF40425FEA000C08BF704743F096433C
:100C500001464FF000001CE050EA010208BF704757
:100C60004FF000030AE000BF50EA010208BF7047DE
:100C700011F0004302D5404261EB41015FEA010CF3
:100C800002BF84460146002043F0B64308BFA3F1EB
:100C90008053A3F50003BCFA8CF2083AA3EBC253CD
:100CA00010DB01FA02FC634400FA02FCC2F12002EC
:100CB000BCF1004F20FA02F243EB020008BF20F023
:100CC0000100704702F1200201FA02FCC2F1200289
:100CD00050EA4C0021FA02F243EB020008BF20EA7E
:100CE000DC7070474FEA4002B2F1FE4F0FD34FF075
:100CF0009E03B3EB12620DD94FEA002343F0004389
:100D000010F0004F23FA02F018BF404270474FF036
:100D10000000704712F1610F01D1420205D110F0BD
:100D2000004008BF6FF0004070474FF00000704770
:100D30000139002307E0C25C10F801C000F803C0CD
:100D40004254013301398B42F5DB704738B50D460B
:100D500000240EE00F4B83FB003CC317C3EBAC0336
:100D6000194603EB8303A0EB430330332B550846AE
:100D700001340028EED102E030232B550134944297
:100D8000FADB21462846FFF7D3FF00232B552046E8
:100D900038BD00BF676666662DE9F84306460C4617
:100DA0001746FFF79FFF0546FFF748FF014630460D
:100DB000FFF78EFE0646002221462846FFF7C6FFB3
:100DC0000FB9BDE8F88305462E2323543846FFF7B4
:100DD00011FB02460B4600200B4902F04DFF8046F6
:100DE00089463046FFF718FB42464B46FFF76CFB3F
:100DF000FFF71AFE691C0C44FFF774FF3A462146C0
:100E0000FFF7A4FFDDE700BF0000244072B6FEE755
:100E100000B591B02822002106A802F025FF00238A
:100E200001930293039304930593022306930123F2
:100E30000A9310230B9306A801F070FE68B90F23E4
:100E400001930021029103910491059101A802F000
:100E5000A5F820B911B05DF804FBFFF7D7FFFFF745
:100E6000D5FF000080B582B001F00AFEFFF7D0FF89
:100E700000F084F800F0BEF802F064FB324E642407
:100E800000940323314A7021304600F00FFE2046C3
:100E900001F01AFE2E4D009406232A46702130469A
:100EA00000F0C0FE95F90030002BE7DBEC78200461
:100EB00000F470202B7940EA03206B791843254E0B
:100EC0003060FFF787FA0022234BFFF7FDFA00227C
:100ED000224BFFF7F9FAFFF7A7FD2149FFF7F8FDCD
:100EE0000746204B18606878AB781B0143EA003353
:100EF00043EA14103060FFF76DFA00221A4BFFF737
:100F0000E3FA0022154BFFF7DFFAFFF78DFD174CD0
:100F10002060174E042231463846FFF73DFF154D3D
:100F2000042229462068FFF737FF134C642304226C
:100F30003146204602F05DFC642304222946204607
:100F400002F057FC9AE700BFB80000200000002024
:100F5000940000208C000020000069400000B03E9A
:100F6000000048429C0000200000594090000020F2
:100F7000AC000020A00000201001002030B589B096
:100F800000240494059406940794184B9A6942F03F
:100F900010029A619A6902F010020192019A9A690C
:100FA00042F004029A619A6902F004020292029AE3
:100FB0009A6942F008029A619B6903F0080303935F
:100FC000039B0B4D22464FF40051284602F0D4F902
:100FD0004FF40053049301230593069402230793CF
:100FE00004A9284602F0B6F809B030BD001002404E
:100FF0000010014008B50B480B4B03600B4B4360DE
:1010000000238360C3604FF48042026143618361C7
:10101000C361036200F06CFC00B908BDFFF7F6FE87
:10102000FBE700BFB800002000540040A08601008C
:1010300010B586B0002302930393049305930268CE
:10104000154B9A4201D006B010BD144CA36943F071
:101050000803A361A36903F008030093009BC02366
:101060000293122303930323059302A90C4802F071
:1010700071F8E36943F40013E361E36903F40013D7
:101080000193019B002211461F2002F0FFF91F204F
:1010900002F034FAD7E700BF0054004000100240CD
:1010A000000C0140FEE7FEE7FEE7FEE7FEE77047C3
:1010B0007047704708B501F0F5FC08BD08B5024857
:1010C00001F0E8FB08BD00BFB800002008B50248E9
:1010D00002F07EFC08BD00BF1001002082B00E4B64
:1010E0009A6942F001029A619A6902F00102009243
:1010F000009ADA6942F08052DA61DB6903F08053CA
:101100000193019B054A536823F0E06343F00073A9
:10111000536002B0704700BF001002400000014061
:1011200090F83E30DBB2402B10D00369B3F5804F0E
:101130001BD0036D002B39D1436CC3F3C813026875
:1011400003F0060343F0F00313617047036D2BB9FE
:10115000436C026803F0FE0313617047436C02683E
:1011600043F00103DBB21361704790F83D30DBB20E
:10117000212B0FD0436C026843F00103DBB21361F3
:10118000436B6BB19B6A5BB10268536843F40063C5
:1011900053607047436C026803F0FE031361EFE78E
:1011A000836B33B19B6A002BEED102E0036D012B00
:1011B00000D07047436CC3F3C813026803F0060302
:1011C00043F0F1031361F4E7436C0268DBB213618F
:1011D000436B3BB19B6A2BB10268536843F40063D5
:1011E00053607047836B002BFBD09B6A002BF3D1BD
:1011F000F7E710B48DB090F83E30DAB2C16A046BF4
:1012000090F83D30DBB2222B0AD000230B93036809
:101210005A690B929B690B930B9B0DB010BC7047E6
:10122000036D0BB9402A17D0036D1BB90369B3F5E1
:10123000404F19D0438D9BB2002B25D103930368F7
:101240005A6903929A690392039A1A6842F40072E7
:101250001A6000230365E0E7019303685A6901926D
:101260009B690193019BD8E70023029303685A69A5
:1012700002929A690292029A1A6842F480721A6083
:10128000036D01330365C8E7438D9BB2012B25D065
:10129000438D9BB2022B7BD00268136843F48063BA
:1012A000136003685A6812F4006F0ED011F5803F86
:1012B00007D0012905D0082903D0102901D0202901
:1012C00003D15A6842F480525A6000230A9303689B
:1012D0005A690A929B690A930A9BBAE711F5803F03
:1012E00011D0082934D0202932D0122C2ED0042934
:1012F00040D002293ED010293CD00268136823F464
:10130000806313603BE00268136823F4806313601A
:1013100003685A6812F4006F0CD01A6822F48062D5
:101320001A600023049303685A6904929B6904932A
:10133000049B8EE7002205925A6905929A690592EC
:10134000059A1A6842F400721A6082E70129CED029
:101350000268136823F48063136000230793036813
:101360005A6907929A690792079A1A6842F40072BA
:101370001A606EE70268136843F480631360002309
:10138000069303685A6906929B690693069B60E779
:10139000042915D0022913D0102911D0026813682E
:1013A00043F4006313600023089303685A690892AA
:1013B0009A690892089A1A6822F480621A600CE00E
:1013C0000268136843F48063136000230993036881
:1013D0005A6909929B690993099B03685A6812F438
:1013E000006F3FF436AF11F5803F08D0012906D0D9
:1013F000082904D0102902D020297FF42AAF5A6886
:1014000042F480525A6024E7438D9BB25BB1426A3A
:10141000036812781A61436A01334362438D9BB2B9
:10142000013B9BB243857047438D9BB25BB1036820
:101430001A69436A1A70436A01334362438D9BB24F
:10144000013B9BB24385704782B0002301930E4B52
:101450001B68DB080D4AA2FB03231B0A03EB830373
:101460000193019B013B0193019B33B103681B680E
:1014700013F4007FF5D1002004E0036C43F0200357
:101480000364012002B070470800002089B5F814F9
:1014900003685A6912F4806F01D1002070476FF41D
:1014A00080625A6100230363202280F83D2080F887
:1014B0003E30026C42F00402026480F83C300120AD
:1014C0007047C36AB3F52A0F04D0C36AB3F12A4F39
:1014D00003D070470123C36270470823C362F8E753
:1014E0002DE9F04107460D4690461E4624E001F0E6
:1014F000E5FA069BC01AB04200D8EEB900233B6360
:10150000202287F83D2087F83E303A6C42F02002D6
:101510003A6487F83C3001201EE03B689C6925EA6C
:10152000040C1FFA8CFCBCFA8CFC4FEA5C1CE045F6
:1015300011D1B6F1FF3FDAD1C5F30743012BECD14E
:101540003B685B6925EA030C1FFA8CFCBCFA8CFC37
:101550004FEA5C1CEBE70020BDE8F0812DE9F0418B
:1015600005460E46174698463DE01A6842F400725A
:101570001A602B686FF480625A6100232B6320226B
:1015800085F83D2085F83E302A6C42F004022A643A
:1015900085F83C30012034E001F090FAA0EB08001F
:1015A000B84200D8FFB900232B63202285F83D20E4
:1015B00085F83E302A6C42F020022A6485F83C30DF
:1015C00001201EE02B689C6926EA0404A4B2003CBA
:1015D00018BF0124A4B12B685A6912F4806FC4D1DA
:1015E000B7F1FF3FD8D1C6F30743012BEAD12B68EF
:1015F0005C6926EA0404A4B2003C18BF0124E9E7B0
:101600000020BDE8F0810000F0B583B004460D462F
:1016100016461F46C36A082B0DD0012B0BD013F5BD
:10162000803F08D0036B122B0AD10268136843F481
:101630008073136004E02268136843F480731360BE
:101640000097334600224FF001112046FFF748FF74
:1016500080B92369B3F5804F16D1236805F0FE05E4
:101660001D613B46324613492046FFF777FFF8B924
:1016700003B0F0BD23681B6813F4807F02D04FF4E1
:10168000007323640320F3E7EB11226803F00603E1
:1016900043F0F00313613B46324607492046FFF70B
:1016A0005DFF18B92368EDB21D61DAE70120DFE7BD
:1016B0000120DDE702000100080001002DE9F041F2
:1016C00084B004460D4616461F46C26A01680B6880
:1016D00043F480630B60082A0DD0012A0BD012F569
:1016E000803F08D0036B112B0AD10268136843F4C2
:1016F0008073136004E02268136843F480731360FE
:101700000097334600224FF001112046FFF7E8FE14
:1017100098B92369B3F5804F19D1236845F00105C5
:10172000EDB21D613B4632462A492046FFF716FFBF
:1017300000284CD104B0BDE8F08123681B6813F485
:10174000807F02D04FF4007323640320F2E74FEA56
:10175000E51808F00608236848F0F0021A613B46D5
:1017600032461D492046FFF7F9FE08B10120E1E7A6
:101770002368EDB21D613B46324616492046FFF70D
:10178000EDFE08B10120D5E70022039223685969D4
:101790000391996903910399196841F48071196063
:1017A000009733464FF001112046FFF799FE20B90C
:1017B000226848F0F1031361B4E723681B6813F44F
:1017C000807F02D04FF4007323640320B2E701202E
:1017D000B0E700BF020001000800010070B5044638
:1017E0000D46164623685B6913F0800F1CD1204616
:1017F000FFF74EFED0B9B5F1FF3FF3D001F05EF92F
:10180000801BA84201D8002DECD1002323632022A5
:1018100084F83D2084F83E30226C42F0200222649D
:1018200084F83C30012000E0002070BD0120FCE77E
:1018300070B504460D46164623685B6913F0040F25
:101840001CD12046FFF724FED0B9B5F1FF3FF3D0FD
:1018500001F034F9801BA84201D8002DECD10023FF
:101860002363202284F83D2084F83E30226C42F02D
:101870002002226484F83C30012000E0002070BD8A
:101880000120FCE770B505460C4616462B685969E1
:1018900011F0400F29D1596911F0100F15D101F045
:1018A0000DF9801BA04201D8002CEFD100232B633F
:1018B000202285F83D2085F83E302A6C42F0200237
:1018C0002A6485F83C30012070BD6FF010025A6127
:1018D00000232B63202285F83D2085F83E302A6CBA
:1018E0002A6485F83C300120EEE70020ECE7000098
:1018F000002800F0CC8070B5044690F83D30002BF5
:1019000077D0242384F83D302268136823F0010344
:1019100013602268136843F400431360226813685D
:1019200023F40043136001F0F5FB62685A4B9A42BE
:1019300064D85A4B98428CBF00230123002B40F0FF
:10194000A8805749A1FB00318B0C25686A6822F0FA
:101950003F0242EA91426A6021680A6A22F03F022D
:1019600066684D4DAE424FD8013313430B62216878
:10197000CA6922F44F4222F0FF026668464B9E423B
:101980004CD8431E7600B3FBF6F3013340F6FC70EF
:10199000034278D0C3F30B031343CB6121680B6878
:1019A00023F0C003E269206A024313430B602168FD
:1019B0008B6823F4034323F0FF032269E0680243AA
:1019C00013438B602168CB6823F0FF036269A06931
:1019D00002431343CB602268136843F00103136092
:1019E00000202064202384F83D30206384F83E00EA
:1019F00070BD80F83C30FFF71BFB82E7294B984213
:101A00008CBF0023012399E74FF4967505FB03F380
:101A1000254DA5FB03539B090133A6E7A368BBB97A
:101A2000451E06EB460CB5FBFCF50135C5F30B0571
:101A3000B5FA85F56D0945BBC3B9013806EB460318
:101A4000B0FBF3F30133C3F30B0343F40043A3E709
:101A5000451E06EB860C0CEB8C0CB5FBFCF501353A
:101A6000C5F30B05B5FA85F56D09E4E7013806EB1A
:101A7000860303EB8303B0FBF3F30133C3F30B03E0
:101A800043F4404388E7042386E7012384E70120E9
:101A900070470120ACE700BFA08601007F841E00D4
:101AA00083DE1B43FF083D00D34D62102DE9F04358
:101AB00085B004460F46914698460C9E00F0FEFF06
:101AC000054694F83D00C0B2202804D002273846CD
:101AD00005B0BDE8F0830095192301224F49204647
:101AE000FFF7FEFC002840F0928094F83C30012B78
:101AF00000F08F80012384F83C3023681A6812F0CC
:101B0000010F03D11A6842F001021A6022681368BB
:101B100023F400631360212384F83D30102384F8FC
:101B20003E3000232364C4F82490A4F82A80638DF7
:101B300023853B4BE3622B46324639462046FFF76E
:101B400063FD0746002866D10023039323685A6982
:101B500003929B690393039B11E0236C042B01D038
:101B60000127B4E72268136843F400731360F7E7B2
:101B70002A4631462046FFF75BFE00282ED1238DF2
:101B8000002B36D02A4631462046FFF727FE002894
:101B9000E3D1626A236812781A61606A431C636247
:101BA000618D89B2013989B26185238D013B9BB278
:101BB00023852268516911F0040FD9D0002BD7D0AA
:101BC00043781361636A01336362638D9BB2013BA7
:101BD0009BB26385238D013B2385C9E7236C042BCE
:101BE00001D0012773E72268136843F40073136080
:101BF000F7E72268136843F400731360202384F826
:101C00003D30002384F83E3084F83C305FE7022703
:101C10005DE702275BE7012759E700BF02001000DC
:101C20000000FFFF2DE9F04389B004460F469146BE
:101C30009846109E0023079300F040FF054694F855
:101C40003D00C0B2202804D00227384609B0BDE8C4
:101C5000F08300951923012280492046FFF740FCBC
:101C6000002840F0708194F83C30012B00F06D8129
:101C7000012384F83C3023681A6812F0010F03D165
:101C80001A6842F001021A602268136823F40063A4
:101C90001360222384F83D30102384F83E30002363
:101CA0002364C4F82490A4F82A80638D23856C4BA8
:101CB000E3622B46324639462046FFF7FFFC0746D3
:101CC000002840F04481238D5BB9039323685A694F
:101CD00003929A690392039A1A6842F400721A6096
:101CE000EEE0012B0FD0022B21D02268136843F4C1
:101CF000806313600023069323685A6906929B69E8
:101D00000693069BDCE02268136823F4806313606B
:101D100072B60023049323685A6904929A69049264
:101D2000049A1A6842F400721A6062B6C8E0226827
:101D3000136843F40063136072B6002305932368AD
:101D40005A6905929A690592059A1A6822F4806286
:101D50001A6062B6B4E02A4631462046FFF792FD8B
:101D6000002840F0F68023681A69636A1A70636A73
:101D700001336362238D013B2385638D9BB2013B5D
:101D80009BB263859CE0009533460022354920468E
:101D9000FFF7A6FB002840F0E0802268136823F4D8
:101DA0008063136072B623681A69636A1A70636A83
:101DB00001336362238D013B2385638D9BB2013B1D
:101DC0009BB26385284B1B68DB08284AA2FB0323D0
:101DD0001B0A03EB8303C3EBC30307930799013982
:101DE00007910799002928D023685A6912F0040F37
:101DF000F4D01A6842F400721A6023681A69636AA0
:101E00001A70636A01336362238D013B2385638DFE
:101E10009BB2013B9BB2638562B623681A69636A11
:101E20001A70636A01336362238D013B2385638DDE
:101E30009BB2013B9BB2638542E0002323632022D7
:101E400084F83D2084F83E30226C42F02002226467
:101E500062B684F83C300127F7E600BF02001000AC
:101E60000000FFFF040001000800002089B5F814FD
:101E70002A4631462046FFF705FD00286FD123682A
:101E80001A69636A1A70626A531C6362238D013B8C
:101E90002385638D9BB2013B9BB26385236859699F
:101EA00011F0040F0CD01B695370636A0133636235
:101EB000238D013B2385638D9BB2013B9BB26385E0
:101EC000218D002936D00329D2D801293FF443AF10
:101ED00002297FF458AF009533460022214920465D
:101EE000FFF7FEFA002836D172B62268136843F471
:101EF0000073136023681A69636A1A70636A013396
:101F00006362238D013B2385638D9BB2013B9BB2B2
:101F1000638562B623681A69636A1A70636A01335B
:101F20006362238D013B2385638D9BB2013B9BB292
:101F30006385C5E7202384F83D30002384F83E30D4
:101F400084F83C3081E602277FE602277DE6012700
:101F50007BE6012779E6012777E6012775E6012769
:101F600073E600BF0400010070477047704708B572
:101F700090F83D30DAB2438D9BB283B1416A036879
:101F800009781961436A01334362438D9BB2013B77
:101F90009BB24385438D9BB20BB9292A00D008BD63
:101FA0000268536823F4806353602123036328236A
:101FB00080F83D30FFF7DAFFF1E7704708B590F899
:101FC0003D30DAB2438D9BB283B103681969436A2D
:101FD0001970436A01334362438D9BB2013B9BB24C
:101FE0004385438D9BB20BB92A2A00D008BD0268F5
:101FF000536823F48063536022230363282380F80B
:102000003D30FFF7DAFFF1E7704700B583B090F895
:102010003D3003F02803282B0CD0002301930268E5
:102020005169019192690192019A80F83C3003B0A4
:102030005DF804FB0268536823F48063536011F079
:10204000040F0BD0002311F0800F09D182890021E9
:1020500080F83C101946FFF7D7FFE8E70123F2E7C5
:10206000028BF4E77047704708B5C26A90F83D30BC
:10207000DBB2212B00D008BD438D9BB263B1426A15
:10208000036812781A61436A01334362438D9BB23D
:10209000013B9BB24385EEE7082A04D0202A02D0F8
:1020A00012F5803F19D10268536823F4E06353604E
:1020B0000268136843F40073136000230363202352
:1020C00080F83D3090F83E30DBB2402B15D0002335
:1020D00080F83E30FFF748FFCDE70268536823F4ED
:1020E000E063536011230363002380F83E30202314
:1020F00080F83D30FFF738FFBDE7002380F83E3021
:10210000FFF7B1FFB7E708B590F83D30026D9AB917
:10211000C36C012B08D0836CC3F3072302681361DF
:10212000036D0133036508BD836C0268DBB2136184
:10213000036D02330365F6E7DBB2026D012A23D09B
:10214000026D022AEFD1222B26D0428D92B20AB123
:10215000212B2AD0428D92B2002AE4D1212BE2D148
:102160000268536823F4E06353600268136843F421
:102170000073136000230363202280F83D2080F861
:102180003E30FFF770FFCEE7836C0268DBB213616D
:10219000036D01330365C6E70268136843F4807377
:1021A0001360036D01330365BDE7426A036812786B
:1021B0001A61436A01334362438D9BB2013B9BB278
:1021C0004385B0E710B590F83D30DBB290F83E2083
:1021D000D2B2C46A018D09B9212B04D0212B3BD086
:1021E000402A37D010BD082C04D0202C02D014F582
:1021F000803F19D10268536823F4E063536002689A
:10220000136843F40073136000230363202380F8F2
:102210003D3090F83E30DBB2402B15D0002380F8E3
:102220003E30FFF7A1FEDDE70268536823F4E06368
:10223000536011230363002380F83E30202380F88D
:102240003D30FFF791FECDE7002380F83E30FFF7E9
:102250000AFFC7E7222BC5D1438D9BB22BB9026879
:10226000536823F480635360BCE790F83E30DBB2E0
:10227000402B0CD0426A036812781A61436A01331A
:102280004362438D9BB2013B9BB24385AAE7FFF7B4
:102290003AFFA7E7704708B5C26A438D9BB2042B8B
:1022A00014D0438D9BB2032B22D0438D9BB2022BC3
:1022B00039D003681A69436A1A70436A013343626A
:1022C000438D9BB2013B9BB2438510E0026853688B
:1022D00023F48063536003681A69436A1A70436A7F
:1022E00001334362438D9BB2013B9BB2438508BDE2
:1022F00001684B6823F480634B60042A06D0022AED
:1023000004D00268136823F48063136003681A69B9
:10231000436A1A70436A01334362438D9BB2013BA7
:102320009BB24385E3E7012A0BD0102A09D0042A87
:1023300038D0022A36D00268136843F40073136061
:1023400004E00268136823F48063136003681A6969
:10235000436A1A70426A531C4362438D9BB2013B2D
:102360009BB2438503681B695370436A0133436220
:10237000438D9BB2013B9BB243850268536823F4B3
:1023800040735360202380F83D3090F83E30DBB23C
:10239000402B0DD0002380F83E3012230363FFF75B
:1023A000E4FDA4E70268136843F480631360CDE79B
:1023B000002380F83E300363FFF76CFF97E7704718
:1023C00090F83D30DBB2222B00D0704710B50446A8
:1023D000438D9BB2032B16D903681A69436A1A709E
:1023E000436A01334362438D9BB2013B9BB24385F9
:1023F000438D9BB2032B00D010BD0268536823F4B9
:1024000080635360F8E7C26A022AF5D0012BF3D843
:10241000FFF71AF800282ED12268136823F480638E
:1024200013602268536823F4E063536023681A69D9
:10243000636A1A70636A01336362638D9BB2013B06
:102440009BB26385202384F83D3094F83E30DBB2A4
:10245000402B08D0002384F83E301223236320460B
:10246000FFF783FDC8E7002384F83E30236320464E
:10247000FFF710FFC0E72268536823F4E06353605E
:1024800023681A69636A1A70636A01336362638D31
:102490009BB2013B9BB26385202384F83D3000232F
:1024A00084F83E302046FFF78AFFA5E7704700001A
:1024B00000B583B000230193406A90F83D20D2B26A
:1024C000324B1B68DB083249A1FB03131B0A03EBE9
:1024D0008303C3EBC3030193019B43B1019B013B06
:1024E000019303681B6813F4007FF5D103E0036CCC
:1024F00043F020030364436B0BB100219962836BAB
:102500000BB10021996201680B6823F480630B60B2
:1025100000234385436B0BB100215963836B0BB1DF
:102520000021596301680B6823F001030B6090F8E8
:102530003D30DBB2602B0ED002F02802282A14D0E6
:10254000202380F83D30002380F83E30FFF737FF2E
:1025500003B05DF804FB202380F83D30002380F8B1
:102560003E300364FFF7A2FFF2E70268136843F00E
:10257000010313600268136843F48063136000234F
:102580000363282380F83D30E0E700BF0800002007
:1025900089B5F81410B5044690F83D30DBB290F8D8
:1025A0003E20D2B2102A35D0402A33D003F0280280
:1025B000282A37D02268526812F4006F07D1602BA6
:1025C00005D0202384F83D30002384F83E300023DA
:1025D000236323685A6812F4006F47D05A6822F4C4
:1025E00000625A60636B93F82120012A20D0444A8C
:1025F0005A63606B00F0E8FE002849D02268136837
:1026000023F001031360202384F83D30606B436B9B
:1026100098473DE0222BC9D121680A6822F4006264
:102620000A60C3E700232363282384F83D30D0E702
:10263000A36B334A5A63A06B00F0C6FE40B3236815
:102640005A6912F0400F05D01A69636A1A70636AFA
:10265000013363622268136823F0010313602023AF
:1026600084F83D30A06B436B984711E094F83D200F
:10267000D2B2602A1FD05A6912F0400F05D01A69F1
:10268000636A1A70636A013363622046FFF797FE3C
:10269000236C13F00F0F04D02268536823F4E06317
:1026A000536094F83D30DBB2226C12F0040F01D07D
:1026B000282B18D010BD202284F83D20002222644F
:1026C0005A6912F0400F05D01A69636A1A70636A7A
:1026D000013363622268136823F00103136020460C
:1026E000FFF7E4FED4E7074BE362002323632022D5
:1026F00084F83D2084F83E302046FFF7B3FCD9E74C
:10270000B12400080000FFFF30B583B0044690F804
:102710003D50EDB20268536823F4E0635360002338
:10272000019303685A6901921A6842F001021A6023
:10273000019B0268136823F48063136003685A687E
:1027400012F4006F38D0222D21D02A2D1FD0426BD9
:102750001268526892B24285428D92B21AB1026CEE
:1027600042F0040202645A6822F400625A60606B0C
:1027700000F076FE01281FD0636B444A5A63606BF9
:1027800000F022FEC0B1606B436B984714E0A26B6F
:102790001268526892B26285628D92B21AB1226C4E
:1027A00042F0040222645A6822F400625A60A06B6C
:1027B00000F056FE012842D1638D9BB233B32368EB
:1027C0005A6912F0040F0AD01A69636A1A70636AB0
:1027D00001336362638D9BB2013B9BB263852368C7
:1027E0005A6912F0400F0AD01A69636A1A70636A54
:1027F00001336362638D9BB2013B9BB26385638D42
:102800009BB21BB1236C43F004032364236C13BB02
:102810002A2D25D094F83D30DBB2282B29D0236B0C
:10282000222B01D0222D19D100232363202284F8EA
:102830003D2084F83E302046FFF7BFFB0EE0A36B3F
:10284000124A5A63A06B00F0BFFD0028B4D0A06B01
:10285000436B9847B0E72046FFF79CFE03B030BDBE
:1028600000232363282384F83D302046FFF7A5FB8F
:10287000D0E7074BE36200232363202284F83D2046
:1028800084F83E302046FFF7EDFBE7E7B12400086F
:102890000000FFFFF8B5044602685568C66A90F864
:1028A0003E30DBB290F83D10C8B2102B13D0402B55
:1028B00011D0236C002B7AD05369002113F0020F42
:1028C00078D015F4007F75D0236C03B19169204650
:1028D000FFF79BFBF8BDD2F818C0516911F0010752
:1028E00005D1B6F52A0FF5D0B6F12A4FF2D017B1BF
:1028F00015F4007F29D111F0080F02D015F4007FE4
:102900002AD111F0020F02D015F4007F28D11CF05B
:10291000040F31D0526812F4006FDBD111F0800F38
:1029200005D015F4806F02D011F0040F1CD011F007
:10293000040FCFD015F4007FCCD0212818D0402B25
:10294000C8D12046FFF7DFFBC4E72046FEF7B9FDFC
:102950002046FEF7E5FBBDE72046FEF735FCB9E76C
:102960002046FEF746FCB5E72046FFF72BFCB1E713
:102970002046FFF779FBADE7536813F4006FA9D148
:1029800011F0400F05D015F4806F02D011F0040F44
:1029900009D011F0040F9DD015F4007F9AD0204685
:1029A000FFF779FC96E72046FFF70AFD92E7916969
:1029B000536983E713F0100F02D015F4007F18D18C
:1029C00021281AD0292818D013F0400F05D015F46B
:1029D000806F02D013F0040F28D013F0040F3FF4DF
:1029E00079AF15F4007F3FF475AF2046FEF71CFD6C
:1029F00070E72046FFF788FE6CE713F0800F05D0E4
:102A000015F4806F02D013F0040F0BD013F0040FF5
:102A10003FF460AF15F4007F3FF45CAF2046FEF753
:102A2000F3FC57E72046FFF7A2FA53E72046FFF7EB
:102A3000C5FA4FE710B504460E4B18784FF47A7379
:102A4000B3FBF0F30C4A1068B0FBF3F000F064FD48
:102A500068B90F2C01D901200AE0002221464FF06D
:102A6000FF3000F013FD054B1C60002000E001204A
:102A700010BD00BF0300002008000020040000205B
:102A800008B5074A136843F010031360032000F0F1
:102A9000EBFC0F20FFF7CEFFFEF720FB002008BD68
:102AA00000200240034A1168034B1B780B4413605B
:102AB000704700BF0C01002003000020014B186884
:102AC000704700BF0C01002038B50446FFF7F6FF41
:102AD0000546B4F1FF3F02D0044B1B781C44FFF7BE
:102AE000EDFF401BA042FAD338BD00BF0300002019
:102AF00082B0084B1B68084AA2FB03235B0A00FB59
:102B000003F3019300BF019B5A1E0192002BF9D1E0
:102B100002B0704708000020D34D6210002800F07A
:102B2000F18170B582B00446036813F0010F2CD018
:102B3000994B5B6803F00C03042B1DD0964B5B682C
:102B400003F00C03082B12D06368B3F5803F41D02B
:102B5000002B55D103F1804303F504331A6822F4A6
:102B600080321A601A6822F480221A6037E08A4B99
:102B70005B6813F4803FE7D0874B1B6813F4003F7A
:102B800003D06368002B00F0BF81236813F0020FAD
:102B900075D0814B5B6813F00C0F5FD07E4B5B6888
:102BA00003F00C03082B54D02369002B00F08A801B
:102BB0007A4B01221A60FFF781FF0546764B1B68AE
:102BC00013F0020F75D1FFF779FF401B0228F5D9EA
:102BD00003209EE1704A136843F4803313606368F6
:102BE00043B3FFF76BFF05466B4B1B6813F4003FC5
:102BF000CBD1FFF763FF401B6428F5D9032088E1A0
:102C0000B3F5A02F09D0644B1A6822F480321A6001
:102C10001A6822F480221A60E1E703F18043A3F5E9
:102C20003C331A6842F480221A601A6842F48032F7
:102C30001A60D4E7FFF742FF0546574B1B6813F4B1
:102C4000003FA2D0FFF73AFF401B6428F5D90320CC
:102C50005FE1514B5B6813F4803FA5D14E4B1B687D
:102C600013F0020F03D02369012B40F04F814A4A31
:102C7000136823F0F803616943EAC1031360236812
:102C800013F0080F33D0A369002B5CD0434B012213
:102C9000C3F88024FFF712FF05463F4B5B6A13F031
:102CA000020F21D1FFF70AFF401B0228F5D90320AC
:102CB0002FE1394A136823F0F803616943EAC1033D
:102CC0001360DCE7354B00221A60FFF7F7FE05467C
:102CD000314B1B6813F0020FD1D0FFF7EFFE401B02
:102CE0000228F5D9032014E10120FFF701FF236832
:102CF00013F0040F00F09680274BDB6913F0805F20
:102D000034D1254BDA6942F08052DA61DB6903F095
:102D100080530193019B0125214B1B6813F4807F95
:102D200026D0E368012B3DD0002B53D103F1804323
:102D300003F504331A6A22F001021A621A6A22F0B9
:102D400004021A6233E0154B0022C3F88024FFF717
:102D5000B5FE0546104B5B6A13F0020FC7D0FFF7B4
:102D6000ADFE401B0228F5D90320D2E00025D3E7B1
:102D70000B4A136843F480731360FFF79FFE064607
:102D8000074B1B6813F4807FCBD1FFF797FE801BA6
:102D90006428F5D90320BCE0001002400000424244
:102DA000007000405F4A136A43F001031362E36856
:102DB00033B3FFF783FE06465A4B1B6A13F0020F2C
:102DC0002FD1FFF77BFE801B41F288339842F3D965
:102DD00003209EE0052B09D0524B1A6A22F0010213
:102DE0001A621A6A22F004021A62E0E74D4B1A6A6C
:102DF00042F004021A621A6A42F001021A62D6E72D
:102E0000FFF75CFE0646474B1B6A13F0020F08D023
:102E1000FFF754FE801B41F288339842F3D9032018
:102E200077E0E5B9E369002B72D03E4A526802F0C0
:102E30000C02082A56D0022B17D03B4B00221A66F0
:102E4000FFF73CFE0446374B1B6813F0007F47D06A
:102E5000FFF734FE001B0228F5D9032059E0314A60
:102E6000D36923F08053D361DCE72F4B00221A662D
:102E7000FFF724FE05462B4B1B6813F0007F06D09E
:102E8000FFF71CFE401B0228F5D9032041E0236A0E
:102E9000B3F5803F1AD023494B6823F47413226A98
:102EA000606A024313434B601F4B01221A66FFF70F
:102EB00005FE04461B4B1B6813F0007F0ED1FFF785
:102EC000FDFD001B0228F5D9032022E0154A5368B6
:102ED00023F40033A1680B435360DCE7002018E0C3
:102EE000002016E0012B16D00E4B5B6803F48031F6
:102EF000226A914211D103F47013626A93420ED197
:102F0000002006E001207047012002E0012000E0DF
:102F1000002002B070BD0120FBE70120F9E701208D
:102F2000F7E700BF001002400000424286B0174B96
:102F30000FCB0DF1180C0CE90F0040F20123ADF896
:102F40000430134B5B6803F00C02082A02D01148CE
:102F500006B07047C3F3834218326A4412F8100C6B
:102F600013F4803F0DD00A4B5B68C3F34043183322
:102F70006B4413F8143C074A02FB00F0B0FBF3F07B
:102F8000E6E7054B03FB00F0E2E700BF804B0008DB
:102F90000010024000127A0000093D00002800F0F5
:102FA000A08070B50D460446524B1B6803F0070322
:102FB0008B420BD24F4A136823F007030B43136075
:102FC000136803F007038B4240F08D80236813F0F1
:102FD000020F17D013F0040F04D0474A536843F48C
:102FE000E0635360236813F0080F04D0424A53682B
:102FF00043F460535360404A536823F0F003A168E0
:103000000B435360236813F0010F31D06368012B29
:1030100020D0022B25D0384A126812F0020F64D05B
:1030200035494A6822F0030213434B60FFF746FD1F
:103030000646314B5B6803F00C036268B3EB820F0A
:1030400016D0FFF73BFD801B41F288339842F0D940
:10305000032045E0284A126812F4003FE0D1012025
:103060003EE0254A126812F0007FD9D1012037E0F6
:10307000204B1B6803F00703AB420AD91D4A1368B3
:1030800023F007032B431360136803F00703AB42DD
:103090002DD1236813F0040F06D0174A536823F488
:1030A000E063E1680B435360236813F0080F07D017
:1030B000114A536823F46053216943EAC103536002
:1030C000FFF734FF0C4B5B68C3F303130B4AD35C6D
:1030D000D8400B4B18600B4B1868FFF7ABFC002077
:1030E00070BD012070470120FAE70120F8E70120B8
:1030F000F6E700BF0020024000100240944B000899
:103100000800002004000020014B1868704700BF31
:103110000800002008B5FFF7F7FF044B5B68C3F316
:103120000223034AD35CD84008BD00BF0010024010
:10313000A44B000808B5FFF7E7FF044B5B68C3F337
:10314000C223034AD35CD84008BD00BF0010024030
:10315000A44B000870B582B00024A446A6E0804DC0
:10316000AA4210D007D97F4DAA420CD005F5803570
:10317000AA4208D013E0A5F58015AA4203D005F5B0
:103180007025AA4207D18A68002A58D0012A51D056
:103190004361082403E0A5F58015AA42F3D0BEF1EF
:1031A000FF0F4ED80646BEF1FF0F4CD84FEA8C02F7
:1031B00033680F25954023EA050304FA02F213430E
:1031C00033604B6813F0805F6ED0674B9A6942F0B2
:1031D00001029A619B6903F001030193019B4FEA8D
:1031E0009C02951C614B53F825600CF003039D0075
:1031F0000F23AB4026EA03065D4B984229D003F526
:103200008063984200F08E8003F58063984200F05E
:103210008B8003F58063984219D004231AE0CC68B0
:10322000BDE7CC680434BAE7CC680834B7E7CC68AB
:103230000C34B4E703610824B1E70024AFE70424A9
:10324000ADE7061DAFE7ACF108029200B0E703233B
:1032500000E00023AB4033430232444D45F82230B6
:103260004B6813F4803F61D0424A136843EA0E036F
:1032700013604B6813F4003F5ED03E4A536843EA44
:103280000E0353604B6813F4801F5BD0394A936878
:1032900043EA0E0393604B6813F4001F58D0354A7D
:1032A000D36843EA0E03D3600CF1010C0A6832FACA
:1032B0000CF353D0012303FA0CF302EA030E33EAB2
:1032C0000202F1D14A68122A3FF649AF122A3FF6AC
:1032D00066AF01A555F822F0873100081F320008BB
:1032E000293200083B3200089F3100089F31000856
:1032F0009F3100089F3100089F3100089F3100086E
:103300009F3100089F3100089F3100089F3100085D
:103310009F3100089F3100089F31000823320008C8
:103320002F320008012395E7022393E7114A13681F
:1033300023EA0E0313609CE70E4A536823EA0E0348
:1033400053609FE70B4A936823EA0E039360A2E75A
:10335000084AD36823EA0E03D360A5E702B070BD24
:103360000000221000003110001002400000014057
:1033700000080140000401400AB1016170470904DE
:103380000161704790F82130022B06D0042383633B
:10339000002380F82030012070470268136823F072
:1033A0000E0313600268136823F001031360036CBB
:1033B000C16B012202FA03F34B6080F82120002345
:1033C00080F820301846704708B590F82130022B5D
:1033D00003D004238363012008BD0268136823F02F
:1033E0000E0313600268136823F00103136003687F
:1033F000194A934214D0143293421FD0143293428C
:103400001ED0143293421ED0143293421ED0143276
:10341000934202D04FF0807203E04FF4801200E03C
:1034200001220E4B5A60012380F82130002380F8DE
:103430002030436B6BB198470020CDE71022F0E7B6
:103440004FF48072EDE74FF48052EAE74FF4803298
:10345000E7E70020C0E700BF08000240000002408C
:1034600090F8210070470000074AD36823F4E06316
:103470001B041B0C000200F4E060034343F0BF6335
:1034800043F40033D360704700ED00E000B5194B02
:10349000DB68C3F30223C3F1070CBCF1040F28BFA0
:1034A0004FF0040C03F1040EBEF1060F18D9033BD4
:1034B0004FF0FF3E0EFA0CFC21EA0C0199400EFA87
:1034C00003F322EA0303194300280BDB0901C9B205
:1034D00000F1604000F5614080F800135DF804FBE6
:1034E0000023E5E700F00F000901C9B2024B1954AF
:1034F000F4E700BF00ED00E014ED00E0002807DB7A
:1035000000F01F02400901239340024A42F8203094
:10351000704700BF00E100E00138B0F1807F0BD2BE
:103520004FF0E0235861054AF02182F82310002073
:10353000986107221A6170470120704700ED00E092
:103540007047000008B50A480A4B03604FF4E133A6
:10355000436000238360C36003610C224261836186
:10356000C36100F017F900B908BDFDF74FFCFBE798
:10357000100100200038014030B587B000230293CD
:1035800003930493059302681B4B9A4201D007B042
:1035900030BD03F558439A6942F480429A619A69B2
:1035A00002F480420092009A9A6942F004029A6101
:1035B0009B6903F004030193019B4FF40073029392
:1035C00002230393032305930C4D02A92846FFF71A
:1035D000C1FD4FF48063029300240394049402A974
:1035E0002846FFF7B7FD224621462520FFF74EFF6C
:1035F0002520FFF783FFCAE700380140000801409B
:103600000268D36823F49073D3600268536923F08F
:1036100001035361036B012B05D0202380F83E305A
:103620000023036370470268D36823F01003D3605C
:10363000F3E790F83D30DBB2212B01D00220704738
:103640008368B3F5805F17D0036A5A1C02621A7848
:1036500003685A60C38C9BB2013B9BB2C3844BB9D5
:103660000268D36823F08003D3600268D36843F014
:103670004003D360002070470369002BE4D1036A44
:103680001B880268C3F308035360036A02330362B2
:10369000E0E7000010B504460268136923F44053C4
:1036A000C1680B43136183680269134342691A437B
:1036B0000168CB6823F4B05323F00C031343CB60B1
:1036C0000268536923F4407381690B4353610268B4
:1036D000134B9A4220D0FFF71DFD024602EB8202F7
:1036E00002EB820263689B00B2FBF3F20D48A0FB81
:1036F00002314909642303FB11231B013233A0FB70
:1037000003235B0903F0F00202EB011203F00F0345
:10371000216813448B6010BDFFF70CFD0246DDE706
:10372000003801401F85EB512DE9F84305460F464F
:1037300016469946DDF820802C68246837EA040391
:103740000CBF4FF0010C4FF0000CB4451FD1B8F185
:10375000FF3FF1D0B8F1000F05D0FFF7AFF9A0EBB4
:1037600009004045E8D92A68D36823F4D073D360B0
:103770002A68536923F001035361202385F83D3003
:1037800085F83E30002385F83C30032000E000201F
:10379000BDE8F88358B310B5044690F83D300BB33C
:1037A000242384F83D302268D36823F40053D36087
:1037B0002046FFF76FFF2268136923F490431361DB
:1037C0002268536923F02A0353612268D36843F4C3
:1037D0000053D36000202064202384F83D3084F817
:1037E0003E3010BD80F83C30FFF7C6FED8E7012020
:1037F00070472DE9F04182B01E4690F83D30DBB2B3
:10380000202B54D104460D469046002953D0002A5F
:1038100053D090F83C30012B51D0012380F83C303C
:1038200000230364212380F83D30FFF747F9074662
:10383000A4F82480A4F82680A368B3F5805F05D09F
:103840004FF00008002384F83C3012E0236913B1E4
:103850004FF00008F6E7A8460025F3E738F8023BEA
:103860002268C3F308035360E28C92B2013A92B229
:10387000E284E38C9BB273B100963B460022802128
:103880002046FFF751FFE0B9002DE7D015F8012BD6
:1038900023685A60E8E700963B4600224021204614
:1038A000FFF742FF78B9202384F83D3000E0022082
:1038B00002B0BDE8F0810120FAE70120F8E702201C
:1038C000F6E70320F4E70320F2E7704708B5016844
:1038D000CA6822F04002CA60202280F83D20FFF72B
:1038E000F4FF002008BD7047704708B5406A002308
:1038F000C385C384FFF7F8FF08BD704790F83E30DA
:10390000DBB2222B60D18368B3F5805F46D0826A38
:10391000B3F5805F04D0002B4DD10369002B4AD151
:1039200003685B681370836A01338362C38D9BB243
:10393000013B9BB2C385002B48D100B583B0026820
:10394000D36823F02003D3600268D36823F4807324
:10395000D3600268536923F001035361202380F888
:103960003E30036B012B2CD1002303630268D36824
:1039700023F01003D36003681A6812F0100F06D00A
:10398000002201921A6801925B680193019B818D6C
:10399000FFF7B3FF002003B05DF804FB0269002AC3
:1039A000B5D1826A03685B68C3F308031380836A36
:1039B00002338362BAE703685B6803F07F03137026
:1039C000B1E7FFF790FFE5E702207047002070475E
:1039D00030B583B0044602681368D068516913F0AB
:1039E0000F0505D113F0200F02D010F0200F19D1D0
:1039F0002DB111F0010119D110F4907F16D1216B76
:103A0000012975D013F0800F03D010F0800F40F023
:103A1000D78013F0400F03D010F0400F40F0D48057
:103A200003B030BD2046FFF769FFF9E713F0010F3F
:103A300006D010F4807F03D0226C42F00102226491
:103A400013F0040F04D019B1226C42F00202226478
:103A500013F0020F04D019B1226C42F00402226468
:103A600013F0080F07D010F0200F00D119B1226C0D
:103A700042F008022264226C002AD1D013F0200FF9
:103A800002D010F0200F21D123685B6903F04003BE
:103A9000226C12F0080F00D123B32046FFF7B0FDCF
:103AA00023685A6912F0400F18D05A6922F0400278
:103AB0005A61A36B73B1464A5A63A06BFFF784FC4B
:103AC0000028ADD0A06B436B9847A9E72046FFF7CD
:103AD00015FFD9E72046FFF707FFA1E72046FFF7CC
:103AE00003FF9DE72046FFF7FFFE0023236497E7CF
:103AF00013F0100F86D010F0100F83D00023019325
:103B00001368019353680193019B536913F0400FAD
:103B100032D0A16B0B685B689BB2002B80D0A08D6C
:103B200098427FF67DAFE3858B69202B08D1A18D6C
:103B3000E38D9BB2C91A89B22046FFF7DEFE6FE71C
:103B4000D36823F48073D3602268536923F00103A0
:103B500053612268536923F040035361202384F8A2
:103B60003E30002323632268D36823F01003D36020
:103B7000A06BFFF707FCDAE7A18DE38D9BB2C91AB2
:103B800089B2E38D9BB2002B3FF44AAF00293FF48A
:103B900047AFD36823F49073D3602268536923F04E
:103BA00001035361202384F83E30002323632268FD
:103BB000D36823F01003D3602046FFF79EFE2FE763
:103BC0002046FFF736FD2BE72046FFF77FFE27E76D
:103BD000EB3800080C480D490D4A002302E0D45888
:103BE000C4500433C4188C42F9D30A4A0A4C002347
:103BF00001E013600432A242FBD3FFF7A1FC00F006
:103C00000FF8FDF72FF9704700000020700000202A
:103C1000B44B00087000002054010020FEE70000B3
:103C200070B500260C4D0D4C641BA410A64209D1A2
:103C300000F09AFF00260A4D0A4C641BA410A6420D
:103C400005D170BD55F8043B98470136EEE755F8AD
:103C5000043B98470136F2E7AC4B0008AC4B000838
:103C6000AC4B0008B04B000803460244934200D11D
:103C7000704703F8011BF9E72DE9F84314461D4688
:103C80008046894600F068F8224606460F462B46D5
:103C900020462946FCF7B2FE78B9002200234046B0
:103CA0004946FCF779FED8B1002200232046294678
:103CB000FCF772FE28B10026254F30463946BDE894
:103CC000F8832046294600F0C5FE0028F5D020469E
:103CD000294600220023FCF769FE0028EDD02CE0E5
:103CE0003046394600F0B6FEA0B10022002330462F
:103CF0003946FCF751FE0028DFD04046494600F027
:103D0000A9FE0028D9D02046294600F0A3FE0028AD
:103D1000D3D012E04046494600F09CFE0028E4D093
:103D20002046294600F096FE0028DED032463B466B
:103D300030463946FCF762FE20B900F00FFF22231F
:103D40000360BAE700F00AFF21230360B5E700BF74
:103D50000000F03F000000002DE9F04F23F0004B81
:103D600080465BEA020014461D460E4693B016D10B
:103D700043467D49DB1886F400225241984271EB9C
:103D8000020324D2404622462B463146FCF7E6F990
:103D9000CDE90001DDE9000113B0BDE8F08F114667
:103DA000724A26F0004991459A463746434617DD48
:103DB00007F1404707F580171F43E3D122196A49ED
:103DC00085F400235B41974271EB0303DAD30023B0
:103DD000674CCDE90034DDE9000113B0BDE8F08F98
:103DE00040D0624A9345E3DC00F09380002F73DB00
:103DF0000022029279B95D4A934500F08E805C4AB8
:103E0000934500F0A280BAF1804F00F0A084594A97
:103E1000924500F0C68340463146049300F016FEFA
:103E2000049BCDE900015BB3029AFB0F013B0A93AF
:103E3000134300F09380504B9B4540F3A38003F164
:103E400004739B454D4B40F31B84994540F391848B
:103E5000BAF1000F40F39184002013B0BDE8F04F99
:103E600000F0EEBD002B8DD1BBE7404631460293FA
:103E700000F0ECFD029BCDE90001002B6ED1029316
:103E8000B9F1000F04D03A4B27F040429A42CBD10F
:103E9000BAF1000F07DADDE9002300203449FCF70E
:103EA0003DFCCDE90001002FBFF674AF029B09F184
:103EB000404909F5801959EA030340F06E84DDE9B1
:103EC000002310461946FCF747F902460B46FCF75B
:103ED00025FCCDE900015DE7294A93452FDCA2F1DD
:103EE000547293450FDD4FEA2B52A2F2FF32142A8F
:103EF00040F34584C2F1340221FA02F000FA02F2E2
:103F00008A4200F077840022029200293FF477AFC2
:103F100081E700293FF46AAF4AE709F1404202F520
:103F2000801213433FF453AF144B994540F36D8314
:103F3000BAF1000FC0F26383CDE900452AE70222FF
:103F4000029200293FF457AF65E7BAF1000FC0F2C3
:103F5000F48340463146CDE900011BE74246404626
:103F600033463146AFE700BF0000F0FF0000F07FAE
:103F70000000F03F0000E03F0000E041FFFFEF3FA6
:103F8000FFFF3F43D44B3B40002B40F04783DDE92C
:103F900000010022D14BFCF797FA6FF034028946FA
:103FA000CDE900014FEA2953A3F2FF339A18CC4B15
:103FB000C9F3130949F07F5699450B9246F4401610
:103FC00007DDC84B994540F3F58301320B92A6F506
:103FD00080160022002300200027C349CDE90823D2
:103FE000CDE90601CDE91023DDE90001DDE9062375
:103FF00031468246FCF7B0F8DDE90623B346804639
:10400000894650463146CDE90CABFCF7A7F802468D
:104010000B460020B449FCF781FB8C46834663467F
:104020005A4640464946CDE90EBCFCF74DFA824659
:104030008B46731043F0005303F50023D9190F4644
:104040005A46514600230020CDE90012009306464F
:1040500002463B46CDE904ABDDE900AB504659468C
:10406000FCF732FA02460B4640464946FCF774F824
:10407000DDE906238046894630463946FCF76CF870
:1040800002460B46DDE90C01FCF766F852465B463A
:10409000FCF71AFA02460B4640464946FCF75CF824
:1040A000DDE90E23FCF710FADDE90467CDE906012E
:1040B00032463B4630463946FCF706FA74A3D3E94C
:1040C000002306460F46FCF7FFF973A3D3E900234C
:1040D000FCF744F832463B46FCF7F6F970A3D3E907
:1040E0000023FCF73BF832463B46FCF7EDF96EA3A4
:1040F000D3E90023FCF732F832463B46FCF7E4F9FB
:104100006BA3D3E90023FCF729F832463B46FCF7C2
:10411000DBF969A3D3E90023FCF720F83246804697
:1041200089463B4630463946FCF7CEF902460B46F7
:1041300040464946FCF7C8F906460F46DDE904014A
:1041400052465B46FCF70AF8DDE90623FCF7BCF9AA
:1041500032463B46FCF702F85246804689465B46AB
:1041600050465946FCF7B0F902460B46CDE90C2300
:1041700000225E4BFBF7F2FF42464B46FBF7EEFF99
:1041800000260F4632463B4650465946FCF79CF9FE
:10419000002282468B4630463946544BFBF7DCFF03
:1041A000DDE90C23FBF7D8FF02460B4640464946A3
:1041B000FBF7D2FFDDE90423FCF786F9324680469F
:1041C0008946DDE906013B46FCF77EF902460B46CF
:1041D00040464946FBF7C2FF8046894600264246D4
:1041E0004B4650465946FBF7B9FF35A3D3E90023A8
:1041F00030460F46FCF768F952465B4682468B46CE
:1042000030463946FBF7A8FF02460B464046494672
:10421000FBF7A2FF2CA3D3E90023FCF755F90246D4
:104220000B463046394616461F4629A3D3E90023DC
:10423000FCF74AF902460B4630463946FBF78EFF3B
:10424000DDE91023FBF78AFF06460B980F46FCF7C3
:10425000D1F88046894632463B4650465946CDE91C
:1042600004ABFBF77BFFDDE90823FBF777FF4FF09B
:10427000000A42464B46FBF771FF42464B4650460A
:104280008B46FBF769FFDDE90823FBF765FF2FE0AD
:10429000EF4E454A287ECA3F65DBC9934A86CD3F2B
:1042A00001411DA96074D13F4D268F515555D53F11
:1042B000FFAB6FDBB66DDB3F033333333333E33FA9
:1042C000000000E009C7EE3FFD033ADC09C7EE3FFE
:1042D000F5015B14E02F3EBE0000F07F000040437C
:1042E0008E98030079B60B000000F03F00000840F4
:1042F000DDE90423FBF730FF02460B463046394622
:10430000FBF72AFF029B0A9A013B13434FF000027E
:104310000CBFD54BD54BCDE90045CDE90223002399
:104320000093DDE90089CDE9040142464B46204671
:104330002946FBF711FF52465B46FCF7C5F82246BB
:1043400006460F46DDE904012B46FCF7BDF80246A0
:104350000B4630463946FBF701FF42464B460646C0
:104360000F4650465946FCF7AFF804460D46304616
:104370002B4639462246FBF7F1FEBD4B804699425B
:1043800089468A4640F3178101F13F4303F5E00374
:10439000034340F02482A2A3D3E9002330463946E8
:1043A000FBF7DCFE02460B464046494690469946DE
:1043B00022462B46FBF7D0FE02460B4640464946B6
:1043C000FCF712FB002840F00A82CAF30A534FF4AC
:1043D00080120020A3F2FE3342FA03F35344A549AE
:1043E000C3F30A52A2F2FF3241FA02FCC3F3130BE9
:1043F00023EA0C01C2F114024BF4801BBAF1000F46
:104400000B464BFA02FB294602462046B8BFCBF1C9
:10441000000BFBF7A1FE04460D4630463946224606
:104420002B46FBF79BFE89464FEA0B5A4FF00008DC
:104430007DA3D3E9002340464946FCF745F82246D0
:104440002B4604460D4640464946FBF785FE02468C
:104450000B4630463946FBF77FFE75A3D3E90023B0
:10446000FCF732F874A3D3E9002306460F46404612
:104470004946FCF729F802460B4630463946FBF719
:104480006DFE8046894642464B4620462946FBF74C
:1044900065FE22462B4606460F46FBF75DFE0246AA
:1044A0000B4640464946FBF757FE32468046894652
:1044B0003B4630463946FCF707F861A3D3E90023B1
:1044C00004460D46FCF700F85FA3D3E90023FBF791
:1044D00043FE22462B46FBF7F7FF5DA3D3E90023FB
:1044E000FBF73CFE22462B46FBF7EEFF5AA3D3E92F
:1044F0000023FBF731FE22462B46FBF7E5FF58A3CE
:10450000D3E90023FBF72AFE22462B46FBF7DCFF0C
:1045100002460B4630463946FBF71EFE04460D4662
:1045200022462B4630463946FBF7CEFF02460B4665
:104530002046294614461D4600224FF08043FBF7D3
:104540000BFE02460B4620462946FCF7E7F842469A
:1045500004460D464B4630463946FBF7B5FF42460A
:104560004B46FBF7FBFD02460B4620462946FBF770
:10457000F3FD32463B46FBF7EFFD02460B460020BB
:104580003A49FBF7E9FD8A44BAF5801FC0F223815E
:104590005146DDE90223FBF797FFCDE90001FFF764
:1045A000F9BB002FFFF637AC4046314613B0BDE8EB
:1045B000F04F00F055B9DFF8C0C021F0004363456B
:1045C00040F3CF802D4B0B4403430AD122462B46A8
:1045D000FBF7C2FD32463B46FCF7FCF900283FF4EE
:1045E000F4AEDDE9020100220023FCF7DFF9003818
:1045F00018BF012013B0BDE8F04F00F01BBA002334
:104600000024CDE90034FFF7C5BBBAF1000FF6DA9C
:1046100005F1004300940193FFF7BCBB0022C1E405
:10462000FE822B654715973C00000000432EE63FB5
:10463000EF39FAFE422EE63F396CA80C615C20BED1
:10464000D0A4BE726937663EF16BD2C541BDBB3E98
:104650002CDE25AF6A56113F93BDBE166CC1663F76
:104660003E5555555555C53F0000F0BF0000F03F81
:10467000FFFF8F40FFFF0F00FFCB904000346F3FE4
:10468000994576DB724B99453FF7E2ABDDE90001D6
:1046900000226F4BFBF760FD61A3D3E900230646C0
:1046A0000F46FBF711FF60A3D3E9002382468B4638
:1046B00030463946FBF708FF0022CDE90001654B83
:1046C00030463946FBF700FF02460B4658A1D1E9B8
:1046D0000001FBF741FD32463B46FBF7F5FE024683
:1046E0000B4600205C49FBF737FD32463B468046CF
:1046F000894630463946FBF7E7FE02460B46404600
:104700004946FBF7E1FE4CA3D3E90023FBF7DCFEAF
:1047100002460B46DDE90001FBF71EFD06460F468B
:104720005046594632463B46FBF718FD52464FF07D
:10473000000A5B4650468B46DCE542460020334685
:104740004349FBF7EBFFCDE90001FFF723BB4246EE
:10475000404633463146FBF7B7FECDE90001FFF78F
:1047600019BB3D4A934256DCDDE90023924693464D
:104770005CE6BAF1000FFFF66FAB00203AE70029C4
:104780007FF473ABC2F114024BFA02F000FA02F2AA
:104790005A4539D00291FFF732BB029B012B7FF4BF
:1047A000F9AADDE90045224605F10043CDE90023E1
:1047B000FFF7F0BA0022294B4FF48027CDE90623FA
:1047C0001FA3D3E90023CDE908231FA3D3E90023C6
:1047D000CDE9102308E45A4600F042F9D9E6002258
:1047E000DDE902010023FCF7E1F8003818BF0120E1
:1047F000FFF733BB00F00100C0F102020292002972
:104800003FF4FDAAFFF707BB00F00100C0F1020270
:104810000292FFF7F4BA1B15D9E500BFAFF3008091
:10482000000000604715F73F44DF5DF80BAE543ED3
:10483000555555555555D53FFE822B654715F73FC4
:104840000000004003B8E23F06D0CF43EBFD4C3EF2
:104850000000F03F0000D03F0000E03F0000F83FC4
:104860002DE9F843604E054636EA01020C4600F099
:104870009E8000290B46844654DD091562D0C3F39F
:104880001303C807A1F2FF3743F4801304D45B007D
:1048900003EBDC734FEA4C0C00264FEADC7202EBB0
:1048A00043034FF0160E4FF4001234467F104FEAC8
:1048B0004C0CA118994202DC5B1A8C1816445B0060
:1048C000BEF1010E03EBDC734FEA52024FEA4C0CCF
:1048D000EFD1754620204FF000420AE043D04FEA66
:1048E000DC71013801EB43034FEA4C0C4FEA5202F2
:1048F00042D0A34202EB0E01F0DD002901EB020ED3
:104900000ADBA0461B1B614588BF03F1FF33444609
:10491000ACEB010C1544E2E7BEF1000FF1DB04F152
:104920000108EFE721F00042024336D000294CD1C4
:104930004FEADC22134615394FEA4C5C002AF7D0C7
:10494000D6024CD400205B00DD02044600F10100D9
:10495000F9D51A4663460CFA00FCC0F12000C340AA
:10496000091B13438BE76145B9D8002901EB020EFF
:10497000D2DB98460023CAE753EA0C0311D168083A
:10498000731003F17F5303F50013F20748BF40F0A3
:10499000004003EB075905464C4628462146BDE832
:1049A000F883691C16BF681C01364008E8E7024618
:1049B0000B46FBF789FD2A462346FBF7CFFB05464E
:1049C0000C4628462146BDE8F8830246FBF7C4FBA7
:1049D00002460B46FBF7A2FE05460C46DDE76346A2
:1049E00020204FF0FF34BAE70000F07FD0B5064634
:1049F0000F46144600F0B2F80346394630461C60B4
:104A0000D0BD00BFF0B5194683B080B1144603F1A4
:104A100000451646CDE90045DDE900233046FBF7A9
:104A200053FD222203B0BDE8F040FFF7DFBF14467C
:104A30001D46EEE700224FF08053FFF7E3BF00BFB3
:104A400000224FF0E043FFF7DDBF00BF21F000413F
:104A5000704700BF41F0004000F58010C00F704764
:104A6000C1F30A5370B58C4604460D4616467BBB0F
:104A7000034621F0004C5CEA030328D0324B0022AD
:104A8000FBF722FD314B04469E420D461ADB8C4655
:104A9000C1F30A53363B40F2FE723344934220DCAA
:104AA000002B3EDC13F1350F2CDA4CF250339E42D2
:104AB00017DC05F0004343F0D27141F4B7312448CC
:104AC00041F01F011CA3D3E90023FBF7FDFC70BDDF
:104AD00040F2FF7E7345DED102460B46FBF73EFBFC
:104AE00070BD05F0004343F0FC4141F45F1141F417
:104AF000105113A3D3E90023164841F03C01FBF702
:104B0000E3FC70BD2CF0FF4C03F136012CF4E00CFB
:104B10004CEA01550022204629460F4BFBF7D4FCF6
:104B200070BD2CF0FF4C2CF4E00C20464CEA0351F5
:104B300070BD00BFAFF3008059F3F8C21F6EA5012E
:104B40009C7500883CE4377E00005043B03CFFFF7A
:104B500059F3F8C29C7500880000903C014B18681E
:104B6000704700BF0C000020F8B500BFF8BC08BCBF
:104B70009E467047F8B500BFF8BC08BC9E4670471B
:104B800002030405060708090A0B0C0D0E0F10108E
:104B9000000000000000000000000000010203040B
:0C4BA000060708090000000001020304E1
:044BAC0035010008C7
:044BB00011010008E7
:104BB400AC330001100000000024F40010000020B9
:104BC40000000000000000000000000000000000E1
:104BD40000000000000000000000000000000000D1
:104BE40000000000000000000000000000000000C1
:104BF40000000000000000000000000000000000B1
:104C040000000000000000000000000000000000A0
:104C14000000000000000000000000000000000090
:0400000508003BD5DF
:00000001FF
