:020000040800F2
:1000000000500020651200089B0300089D030008B3
:100010009F030008A1030008A303000800000000DC
:10002000000000000000000000000000A503000820
:10003000A703000800000000A9030008AB030008A4
:10004000AD120008AD120008AD120008AD12000894
:10005000AD120008AD120008B3030008AD1200088D
:10006000AD120008AD120008AD120008AD12000874
:10007000AD120008AD120008AD120008AD12000864
:10008000AD120008AD120008AD120008AD12000854
:10009000AD120008AD120008AD120008AD12000844
:1000A000AD120008AD120008AD120008AD12000834
:1000B000BD030008AD120008AD120008AD12000823
:1000C000AD120008AD120008AD120008AD12000814
:1000D000AD120008AD120008AD120008AD12000804
:1000E000AD120008AD120008AD12000800000000BB
:1000F0000000000000000000000000000000000000
:0C01000000000000000000005FF808F1A3
:10010C0010B5054C237833B9044B13B10448AFF345
:10011C0000800123237010BD0C00002000000000A3
:10012C000813000808B5034B1BB103490348AFF390
:10013C00008008BD0000000010000020081300081B
:10014C00034B1A6800235362536A132BFCD9704774
:10015C002800002038B50546002402E0FFF7F0FF28
:10016C000134AC42FADB38BD72B6FEE700B591B093
:10017C002822002106A801F0B9F80023019302936C
:10018C00039304930593012206924FF48033079353
:10019C000A9202220D920E934FF4E0130F9306A8CD
:1001AC0000F0C6FB80B90F230193022102910023BA
:1001BC0003934FF480620492059301A800F0F8FDBC
:1001CC0020B911B05DF804FBFFF7CEFFFFF7CCFFB1
:1001DC0008B500F073FBFFF7C9FF00F013F800F04F
:1001EC0081F8064800F03CF94FF40051044800F047
:1001FC00ADFF4FF4FA60FFF7ADFFF5E728000020E4
:10020C00001001402DE9F04188B0002404940594BD
:10021C00069407942E4B9A6942F010029A619A69DF
:10022C0002F010020092009A9A6942F020029A6140
:10023C009A6902F020020192019A9A6942F0040232
:10024C009A619A6902F004020292029A9A6942F047
:10025C0008029A619B6903F008030393039BDFF880
:10026C00748022464FF40051404600F069FF1A4F4B
:10027C0022464FF48051384600F062FF4FF4005391
:10028C0004930125059506940226079604A9404679
:10029C0000F044FE0495114B0593069504A91048F3
:1002AC0000F03CFE4FF4805304930595069407969A
:1002BC0004A9384600F032FE22463146062000F0F2
:1002CC006FFF062000F0A4FF08B0BDE8F08100BF6E
:1002DC000010024000100140000C014000002110F1
:1002EC000008014000B587B00023029303930493E8
:1002FC0005930093019316484FF08042026040F63C
:10030C000F624260836040F2CF72C260036180234F
:10031C00836100F0CFF990B94FF48053029302A996
:10032C000B4800F0FFF968B900230093019369466C
:10033C00074800F065FA40B907B05DF804FBFFF719
:10034C0013FFE9E7FFF710FFEEE7FFF70DFFF3E709
:10035C00280000200368B3F1804F00D0704700B52F
:10036C0083B003F50433DA6942F00102DA61DB6928
:10037C0003F001030193019B002201211C2000F0DA
:10038C000FFF1C2000F044FF03B05DF804FBFEE7F8
:10039C00FEE7FEE7FEE7FEE770477047704708B5DB
:1003AC0000F09EFA08BD08B5012000F0D9FE08BD8A
:1003BC0008B5024800F087F808BD00BF28000020EF
:1003CC0082B00E4B9A6942F001029A619A6902F06E
:1003DC0001020092009ADA6942F08052DA61DB691C
:1003EC0003F080530193019B054A536823F0E063AB
:1003FC0043F00073536002B0704700BF001002401E
:10040C000000014010B4036A046A24F00104046281
:10041C00846924F0F00C4CEA021223F00A030B431B
:10042C008261036210BC704710B4046A24F010049B
:10043C0004628469036A24F4704C4CEA023223F09F
:10044C00A00343EA01138261036210BC7047836806
:10045C0023F070030B4343F00703836070470000E5
:10046C0090F83D30DBB2012B22D1022380F83D30D5
:10047C000368114A934210D0B3F1804F0DD0A2F50E
:10048C009432934209D002F58062934205D01A68E7
:10049C0042F001021A60002070479A6802F00702CD
:1004AC00062A07D01A6842F001021A600020704731
:1004BC000120704700207047002C014070477047A6
:1004CC0070477047704710B5044603681A6912F0FC
:1004DC00020F11D0DA6812F0020F0DD06FF0020289
:1004EC001A610123037703689B6913F0030F70D023
:1004FC00FFF7E6FF0023237723681A6912F0040F35
:10050C0012D0DA6812F0040F0ED06FF004021A61E8
:10051C000223237723689B6913F4407F5FD0204626
:10052C00FFF7CEFF0023237723681A6912F0080F18
:10053C0012D0DA6812F0080F0ED06FF008021A61B0
:10054C00042323772368DB6913F0030F4ED0204676
:10055C00FFF7B6FF0023237723681A6912F0100FF8
:10056C0012D0DA6812F0100F0ED06FF010021A6170
:10057C00082323772368DB6913F4407F3DD02046A2
:10058C00FFF79EFF0023237723681A6912F0010FEF
:10059C0003D0DA6812F0010F36D123681A6912F011
:1005AC00800F03D0DA6812F0800F34D123681A69F7
:1005BC0012F0400F03D0DA6812F0400F32D12368EA
:1005CC001A6912F0200F03D0DA6812F0200F30D124
:1005DC0010BDFFF774FF2046FFF773FF8AE7204634
:1005EC00FFF76DFF2046FFF76CFF9BE72046FFF7F8
:1005FC0066FF2046FFF765FFACE72046FFF75FFF7D
:10060C002046FFF75EFFBDE76FF001021A6120463E
:10061C00FFF754FFC1E76FF080021A61204600F02B
:10062C0026F9C3E76FF040021A612046FFF74AFF34
:10063C00C5E76FF020021A61204600F017F9C7E7F2
:10064C0003681B4A90420AD0B0F1804F07D0A2F544
:10065C009432904203D002F58062904203D123F091
:10066C0070034A681343124A90420AD0B0F1804F8B
:10067C0007D0A2F59432904203D002F580629042EA
:10068C0003D123F44073CA68134323F080034A69EF
:10069C00134303608B68C3620B688362044B9842FC
:1006AC0002D00123436170470B690363F9E700BF74
:1006BC00002C014040B310B5044690F83D30F3B126
:1006CC00022384F83D30214651F8040BFFF7B8FFA4
:1006DC00012384F8463084F83E3084F83F3084F8A7
:1006EC00403084F8413084F8423084F8433084F848
:1006FC00443084F8453084F83D30002010BD80F83B
:10070C003C30FFF727FEDBE70120704710B484680C
:10071C0024F47F4C42EA03220A4342EA0C02826030
:10072C0010BC704790F83C30012B66D010B50446D5
:10073C00012380F83C30022380F83D300268936836
:10074C0023F47F4323F0770393600B68602B40D036
:10075C0022D8402B47D00BD9502B0ED1CA684968F0
:10076C000068FFF74FFE50212068FFF770FE04E091
:10077C00202B0CD008D9302B09D0012384F83D3024
:10078C00002084F83C0010BD0BB1102BF5D119469C
:10079C002068FFF75CFEF0E7702B0ED0B3F5005F1E
:1007AC00EBD1CB684A6889680068FFF7AFFF226815
:1007BC00936843F480439360DFE7CB684A688968A9
:1007CC000068FFF7A3FF2268936843F077039360F8
:1007DC00D3E7CA6849680068FFF726FE60212068E5
:1007EC00FFF735FEC9E7CA6849680068FFF70AFEDB
:1007FC0040212068FFF72BFEBFE702207047000066
:10080C0090F83C30012B2CD010B4012380F83C30F4
:10081C00022380F83D3003685A689C6822F0700C03
:10082C000A6842EA0C025A6003680F4A93420AD0E3
:10083C00B3F1804F07D0A2F59432934203D002F566
:10084C008062934204D124F080044A6814439C6073
:10085C00012380F83D30002380F83C30184610BC52
:10086C0070470220704700BF002C01407047704752
:10087C0010B504460E4B18784FF47A73B3FBF0F3B3
:10088C000C4A1068B0FBF3F000F0D0FC68B90F2CE8
:10089C0001D901200AE0002221464FF0FF3000F080
:1008AC007FFC054B1C60002000E0012010BD00BF48
:1008BC0000000020080000200400002008B5074AB2
:1008CC00136843F010031360032000F057FC0F2053
:1008DC00FFF7CEFFFFF774FD002008BD002002409B
:1008EC00034A1168034B1B780B441360704700BF1D
:1008FC007000002000000020014B1868704700BFFA
:10090C007000002082B0084B1B68084AA2FB03232E
:10091C005B0A00FB03F3019300BF019B5A1E01927B
:10092C00002BF9D102B0704708000020D34D6210A3
:10093C00002800F0F18170B582B00446036813F012
:10094C00010F2CD0994B5B6803F00C03042B1DD0CA
:10095C00964B5B6803F00C03082B12D06368B3F55D
:10096C00803F41D0002B55D103F1804303F5043374
:10097C001A6822F480321A601A6822F480221A60F3
:10098C0037E08A4B5B6813F4803FE7D0874B1B68DA
:10099C0013F4003F03D06368002B00F0BF81236881
:1009AC0013F0020F75D0814B5B6813F00C0F5FD006
:1009BC007E4B5B6803F00C03082B54D02369002B8F
:1009CC0000F08A807A4B01221A60FFF795FF0546EA
:1009DC00764B1B6813F0020F75D1FFF78DFF401B90
:1009EC000228F5D903209EE1704A136843F4803342
:1009FC001360636843B3FFF77FFF05466B4B1B68BF
:100A0C0013F4003FCBD1FFF777FF401B6428F5D9D7
:100A1C00032088E1B3F5A02F09D0644B1A6822F4A7
:100A2C0080321A601A6822F480221A60E1E703F11E
:100A3C008043A3F53C331A6842F480221A601A688A
:100A4C0042F480321A60D4E7FFF756FF0546574B45
:100A5C001B6813F4003FA2D0FFF74EFF401B642825
:100A6C00F5D903205FE1514B5B6813F4803FA5D1AE
:100A7C004E4B1B6813F0020F03D02369012B40F07F
:100A8C004F814A4A136823F0F803616943EAC103B2
:100A9C001360236813F0080F33D0A369002B5CD0CC
:100AAC00434B0122C3F88024FFF726FF05463F4B3A
:100ABC005B6A13F0020F21D1FFF71EFF401B0228C7
:100ACC00F5D903202FE1394A136823F0F803616943
:100ADC0043EAC1031360DCE7354B00221A60FFF7D1
:100AEC000BFF0546314B1B6813F0020FD1D0FFF7FB
:100AFC0003FF401B0228F5D9032014E10120FFF766
:100B0C0001FF236813F0040F00F09680274BDB697C
:100B1C0013F0805F34D1254BDA6942F08052DA61F0
:100B2C00DB6903F080530193019B0125214B1B686A
:100B3C0013F4807F26D0E368012B3DD0002B53D1DA
:100B4C0003F1804303F504331A6A22F001021A629E
:100B5C001A6A22F004021A6233E0154B0022C3F821
:100B6C008024FFF7C9FE0546104B5B6A13F0020F99
:100B7C00C7D0FFF7C1FE401B0228F5D90320D2E0F5
:100B8C000025D3E70B4A136843F480731360FFF717
:100B9C00B3FE0646074B1B6813F4807FCBD1FFF7DF
:100BAC00ABFE801B6428F5D90320BCE0001002408A
:100BBC0000004242007000405F4A136A43F0010398
:100BCC001362E36833B3FFF797FE06465A4B1B6A72
:100BDC0013F0020F2FD1FFF78FFE801B41F28833E9
:100BEC009842F3D903209EE0052B09D0524B1A6A88
:100BFC0022F001021A621A6A22F004021A62E0E779
:100C0C004D4B1A6A42F004021A621A6A42F001024F
:100C1C001A62D6E7FFF770FE0646474B1B6A13F0C5
:100C2C00020F08D0FFF768FE801B41F28833984210
:100C3C00F3D9032077E0E5B9E369002B72D03E4A83
:100C4C00526802F00C02082A56D0022B17D03B4BEC
:100C5C0000221A66FFF750FE0446374B1B6813F050
:100C6C00007F47D0FFF748FE001B0228F5D9032070
:100C7C0059E0314AD36923F08053D361DCE72F4B21
:100C8C0000221A66FFF738FE05462B4B1B6813F043
:100C9C00007F06D0FFF730FE401B0228F5D9032059
:100CAC0041E0236AB3F5803F1AD023494B6823F403
:100CBC007413226A606A024313434B601F4B012278
:100CCC001A66FFF719FE04461B4B1B6813F0007FD6
:100CDC000ED1FFF711FE001B0228F5D9032022E0EC
:100CEC00154A536823F40033A1680B435360DCE7C7
:100CFC00002018E0002016E0012B16D00E4B5B688C
:100D0C0003F48031226A914211D103F47013626AA8
:100D1C0093420ED1002006E001207047012002E032
:100D2C00012000E0002002B070BD0120FBE7012093
:100D3C00F9E70120F7E700BF001002400000424233
:100D4C0086B0174B0FCB0DF1180C0CE90F0040F2CD
:100D5C000123ADF80430134B5B6803F00C02082A36
:100D6C0002D0114806B07047C3F3834218326A446C
:100D7C0012F8100C13F4803F0DD00A4B5B68C3F3D0
:100D8C00404318336B4413F8143C074A02FB00F041
:100D9C00B0FBF3F0E6E7054B03FB00F0E2E700BF26
:100DAC00201300080010024000127A0000093D00D8
:100DBC00002800F0A08070B50D460446524B1B680D
:100DCC0003F007038B420BD24F4A136823F007033F
:100DDC000B431360136803F007038B4240F08D80C4
:100DEC00236813F0020F17D013F0040F04D0474AF6
:100DFC00536843F4E0635360236813F0080F04D086
:100E0C00424A536843F460535360404A536823F09A
:100E1C00F003A1680B435360236813F0010F31D02A
:100E2C006368012B20D0022B25D0384A126812F0AF
:100E3C00020F64D035494A6822F0030213434B6019
:100E4C00FFF75AFD0646314B5B6803F00C036268F2
:100E5C00B3EB820F16D0FFF74FFD801B41F28833A6
:100E6C009842F0D9032045E0284A126812F4003F5A
:100E7C00E0D101203EE0254A126812F0007FD9D162
:100E8C00012037E0204B1B6803F00703AB420AD963
:100E9C001D4A136823F007032B431360136803F0F8
:100EAC000703AB422DD1236813F0040F06D0174A69
:100EBC00536823F4E063E1680B435360236813F039
:100ECC00080F07D0114A536823F46053216943EA91
:100EDC00C1035360FFF734FF0C4B5B68C3F3031380
:100EEC000B4AD35CD8400B4B18600B4B1868FFF7C0
:100EFC00BFFC002070BD012070470120FAE70120E3
:100F0C00F8E70120F6E700BF002002400010024085
:100F1C0034130008080000200400002070B582B0D3
:100F2C000024A446A6E0804DAA4210D007D97F4DDC
:100F3C00AA420CD005F58035AA4208D013E0A5F5DD
:100F4C008015AA4203D005F57025AA4207D18A68FC
:100F5C00002A58D0012A51D04361082403E0A5F59A
:100F6C008015AA42F3D0BEF1FF0F4ED80646BEF153
:100F7C00FF0F4CD84FEA8C0233680F25954023EABB
:100F8C00050304FA02F2134333604B6813F0805FDD
:100F9C006ED0674B9A6942F001029A619B6903F02B
:100FAC0001030193019B4FEA9C02951C614B53F882
:100FBC0025600CF003039D000F23AB4026EA0306CB
:100FCC005D4B984229D003F58063984200F08E80E7
:100FDC0003F58063984200F08B8003F580639842A0
:100FEC0019D004231AE0CC68BDE7CC680434BAE706
:100FFC00CC680834B7E7CC680C34B4E70361082438
:10100C00B1E70024AFE70424ADE7061DAFE7ACF170
:10101C0008029200B0E7032300E00023AB40334307
:10102C000232444D45F822304B6813F4803F61D0B6
:10103C00424A136843EA0E0313604B6813F4003FF3
:10104C005ED03E4A536843EA0E0353604B6813F478
:10105C00801F5BD0394A936843EA0E0393604B6858
:10106C0013F4001F58D0354AD36843EA0E03D360FB
:10107C000CF1010C0A6832FA0CF353D0012303FA79
:10108C000CF302EA030E33EA0202F1D14A68122A87
:10109C003FF649AF122A3FF666AF01A555F822F08C
:1010AC005B0F0008F30F0008FD0F00080F1000087D
:1010BC00730F0008730F0008730F0008730F0008FC
:1010CC00730F0008730F0008730F0008730F0008EC
:1010DC00730F0008730F0008730F0008730F0008DC
:1010EC00730F0008F70F000803100008012395E7A1
:1010FC00022393E7114A136823EA0E0313609CE75B
:10110C000E4A536823EA0E0353609FE70B4A936819
:10111C0023EA0E039360A2E7084AD36823EA0E037E
:10112C00D360A5E702B070BD0000221000003110A2
:10113C000010024000000140000801400004014082
:10114C000AB101617047090401617047C36801EA83
:10115C00030221EA030141EA024101617047704731
:10116C0008B5054B5B69034200D108BD024B5861C1
:10117C00FFF7F5FFF9E700BF00040140074AD36809
:10118C0023F4E0631B041B0C000200F4E060034337
:10119C0043F0BF6343F40033D360704700ED00E0CD
:1011AC0000B5194BDB68C3F30223C3F1070CBCF188
:1011BC00040F28BF4FF0040C03F1040EBEF1060F10
:1011CC0018D9033B4FF0FF3E0EFA0CFC21EA0C0140
:1011DC0099400EFA03F322EA0303194300280BDBB0
:1011EC000901C9B200F1604000F5614080F80013BC
:1011FC005DF804FB0023E5E700F00F000901C9B21C
:10120C00024B1954F4E700BF00ED00E014ED00E0D0
:10121C00002807DB00F01F02400901239340024A1B
:10122C0042F82030704700BF00E100E00138B0F117
:10123C00807F0BD24FF0E0235861054AF02182F8F1
:10124C0023100020986107221A6170470120704713
:10125C0000ED00E0704700000C480D490D4A0023DA
:10126C0002E0D458C4500433C4188C42F9D30A4A4F
:10127C000A4C002301E013600432A242FBD3FFF7B7
:10128C00E9FF00F00FF8FEF7A3FF70470000002005
:10129C000C0000204C1300080C00002074000020EF
:1012AC00FEE7000070B500260C4D0D4C641BA4101D
:1012BC00A64209D100F022F800260A4D0A4C641B04
:1012CC00A410A64205D170BD55F8043B98470136D1
:1012DC00EEE755F8043B98470136F2E74413000853
:1012EC004413000844130008481300080346024442
:1012FC00934200D1704703F8011BF9E7F8B500BF22
:10130C00F8BC08BC9E467047F8B500BFF8BC08BCDA
:04131C009E46704732
:1013200002030405060708090A0B0C0D0E0F101026
:1013300000000000000000000000000001020304A3
:04134000060708098B
:04134400310100086B
:041348000D0100088B
:0C134C0001000000100000000024F4006C
:040000050800126578
:00000001FF
