:020000040800F2
:1000000000500020DD1500086D0300086F03000894
:100010007103000873030008750300080000000066
:10002000000000000000000000000000770300084E
:1000300079030008000000007B0300087D0300082E
:1000400025160008251600082516000825160008A4
:100050002516000825160008850300082516000847
:100060002516000825160008251600082516000884
:100070002516000825160008251600082516000874
:100080002516000825160008251600082516000864
:100090002516000825160008251600082516000854
:1000A0002516000825160008251600082516000844
:1000B0002516000825160008251600082516000834
:1000C0002516000825160008251600082516000824
:1000D00025160008910300082516000825160008BB
:1000E0002516000825160008251600080000000047
:1000F0000000000000000000000000000000000000
:0C01000000000000000000005FF808F1A3
:10010C0010B5054C237833B9044B13B10448AFF345
:10011C0000800123237010BD0C00002000000000A3
:10012C008016000808B5034B1BB103490348AFF315
:10013C00008008BD000000001000002080160008A0
:10014C00012800D0704708B54FF0FF331322024945
:10015C00024800F03AFA08BD981600083400002056
:10016C0072B6FEE700B591B02822002106A801F076
:10017C0079FA0023019302930393049305930223CA
:10018C00069301230A9310230B9306A800F0C8FCD6
:10019C0068B90F23019300210291039104910591F9
:1001AC0001A800F0FDFE20B911B05DF804FBFFF7CB
:1001BC00D7FFFFF7D5FF000008B500F055FCFFF79F
:1001CC00D1FF00F027F800F06DF800220E490F481F
:1001DC0000F007FC00F080FC01F0F0F9012108466A
:1001EC0001F0C8F9FFF7BEFF00F07DFC642000F0C1
:1001FC005FFC4FF40051064801F0C6F84FF4FA705A
:10020C0000F056FCE6E700BF280000203400002078
:10021C000010014070B586B000240294039404943D
:10022C0005941C4B9A6942F010029A619A6902F08B
:10023C0010020092009A9A6942F004029A619B693A
:10024C0003F004030193019B134E01224FF4005160
:10025C00304601F093F84FF40053029301250395B7
:10026C0004940223059302A9304600F075FF029511
:10027C000A4B0393049502A9094800F06DFF22462E
:10028C002146062001F018F9062001F04DF906B0C0
:10029C0070BD00BF00100240001001400000211092
:1002AC000008014008B50A480A4B03604FF4165386
:1002BC00436000238360C36003610C22426183614D
:1002CC00C36100F053F900B908BDFFF749FFFBE724
:1002DC00340000200038014030B587B00023029371
:1002EC0003930493059302681B4B9A4201D007B009
:1002FC0030BD03F558439A6942F480429A619A6979
:10030C0002F480420092009A9A6942F004029A61C7
:10031C009B6903F004030193019B4FF40073029358
:10032C0002230393032305930C4D02A9284600F0E6
:10033C0013FF4FF48063029300240394049402A9E6
:10034C00284600F009FF22462146252001F0B4F88A
:10035C00252001F0E9F8CAE7003801400008014007
:10036C00FEE7FEE7FEE7FEE7FEE7704770477047E3
:10037C0008B500F08BFB08BD08B5012001F00EF8A4
:10038C0008BD000008B5024800F00EFA08BD00BF19
:10039C003400002082B00E4B9A6942F001029A613F
:1003AC009A6902F001020092009ADA6942F08052D6
:1003BC00DA61DB6903F080530193019B054A5368B2
:1003CC0023F0E06343F00073536002B0704700BF4A
:1003DC0000100240000001400268D36823F49073BF
:1003EC00D3600268536923F001035361036B012B43
:1003FC0005D0202380F83E30002303637047026849
:10040C00D36823F01003D360F3E790F83D30DBB2F0
:10041C00212B01D0022070478368B3F5805F17D081
:10042C00036A5A1C02621A7803685A60C38C9BB226
:10043C00013B9BB2C3844BB90268D36823F08003A1
:10044C00D3600268D36843F04003D3600020704748
:10045C000369002BE4D1036A1B880268C3F3080309
:10046C005360036A02330362E0E7000010B50446F0
:10047C000268136923F44053C1680B43136183680A
:10048C000269134342691A430168CB6823F4B053E1
:10049C0023F00C031343CB600268536923F44073BD
:1004AC0081690B4353610268134B9A4220D000F0D0
:1004BC0033FE024602EB820202EB820263689B006F
:1004CC00B2FBF3F20D48A0FB02314909642303FB94
:1004DC0011231B013233A0FB03235B0903F0F00251
:1004EC0002EB011203F00F03216813448B6010BD63
:1004FC0000F022FE0246DDE7003801401F85EB517B
:10050C002DE9F84305460F4616469946DDF820803E
:10051C002C68246837EA04030CBF4FF0010C4FF031
:10052C00000CB4451FD1B8F1FF3FF1D0B8F1000F6A
:10053C0005D000F0B7FAA0EB09004045E8D92A68CD
:10054C00D36823F4D073D3602A68536923F0010372
:10055C005361202385F83D3085F83E30002385F823
:10056C003C30032000E00020BDE8F88358B310B500
:10057C00044690F83D300BB3242384F83D302268B8
:10058C00D36823F40053D3602046FFF76FFF226833
:10059C00136923F4904313612268536923F02A03EF
:1005AC0053612268D36843F40053D3600020206465
:1005BC00202384F83D3084F83E3010BD80F83C3068
:1005CC00FFF78AFED8E7012070472DE9F04182B091
:1005DC001E4690F83D30DBB2202B54D104460D461C
:1005EC009046002953D0002A53D090F83C30012B70
:1005FC0051D0012380F83C3000230364212380F880
:10060C003D3000F04FFA0746A4F82480A4F8268069
:10061C00A368B3F5805F05D04FF00008002384F881
:10062C003C3012E0236913B14FF00008F6E7A846FE
:10063C000025F3E738F8023B2268C3F30803536044
:10064C00E28C92B2013A92B2E284E38C9BB273B127
:10065C0000963B46002280212046FFF751FFE0B96F
:10066C00002DE7D015F8012B23685A60E8E70096B7
:10067C003B46002240212046FFF742FF78B9202359
:10068C0084F83D3000E0022002B0BDE8F08101208A
:10069C00FAE70120F8E70220F6E70320F4E703204D
:1006AC00F2E7704708B50168CA6822F04002CA60D8
:1006BC00202280F83D20FFF7F4FF002008BD704792
:1006CC00704708B5406A0023C385C384FFF7F8FF61
:1006DC0008BD704790F83E30DBB2222B60D18368A6
:1006EC00B3F5805F46D0826AB3F5805F04D0002BEF
:1006FC004DD10369002B4AD103685B681370836A80
:10070C0001338362C38D9BB2013B9BB2C385002B2B
:10071C0048D100B583B00268D36823F02003D360BE
:10072C000268D36823F48073D3600268536923F0A2
:10073C0001035361202380F83E30036B012B2CD135
:10074C00002303630268D36823F01003D3600368AB
:10075C001A6812F0100F06D0002201921A6801924A
:10076C005B680193019B818DFFF7B3FF002003B001
:10077C005DF804FB0269002AB5D1826A03685B68E4
:10078C00C3F308031380836A02338362BAE70368F6
:10079C005B6803F07F031370B1E7FFF790FFE5E7A9
:1007AC00022070470020704730B583B004460268C1
:1007BC001368D068516913F00F0505D113F0200FA1
:1007CC0002D010F0200F19D12DB111F0010119D167
:1007DC0010F4907F16D1216B012975D013F0800F86
:1007EC0003D010F0800F40F0D78013F0400F03D0EF
:1007FC0010F0400F40F0D48003B030BD2046FFF71E
:10080C0069FFF9E713F0010F06D010F4807F03D0D5
:10081C00226C42F00102226413F0040F04D019B1CF
:10082C00226C42F00202226413F0020F04D019B1C0
:10083C00226C42F00402226413F0080F07D010F06F
:10084C00200F00D119B1226C42F008022264226CF4
:10085C00002AD1D013F0200F02D010F0200F21D19C
:10086C0023685B6903F04003226C12F0080F00D17F
:10087C0023B32046FFF7B0FD23685A6912F0400FEE
:10088C0018D05A6922F040025A61A36B73B1464AE0
:10089C005A63A06B00F0B2FD0028ADD0A06B436B87
:1008AC009847A9E72046FFF715FFD9E72046FFF741
:1008BC0007FFA1E72046FFF703FF9DE72046FFF760
:1008CC00FFFE0023236497E713F0100F86D010F07F
:1008DC00100F83D000230193136801935368019385
:1008EC00019B536913F0400F32D0A16B0B685B680E
:1008FC009BB2002B80D0A08D98427FF67DAFE38514
:10090C008B69202B08D1A18DE38D9BB2C91A89B2BA
:10091C002046FFF7DEFE6FE7D36823F48073D360C5
:10092C002268536923F0010353612268536923F051
:10093C0040035361202384F83E3000232363226854
:10094C00D36823F01003D360A06B00F035FDDAE719
:10095C00A18DE38D9BB2C91A89B2E38D9BB2002B9A
:10096C003FF44AAF00293FF447AFD36823F49073A8
:10097C00D3602268536923F001035361202384F868
:10098C003E30002323632268D36823F01003D36026
:10099C002046FFF79EFE2FE72046FFF736FD2BE79C
:1009AC002046FFF77FFE27E7CF060008034681624B
:1009BC008285C28500201864222283F83E2083F8A9
:1009CC003C001968CA6842F48072CA6019684A69A6
:1009DC0042F001024A611A68D36843F02003D360E5
:1009EC00704708B590F83E30DBB2202B0DD171B1B9
:1009FC007AB190F83C30012B0DD0012380F83C30BB
:100A0C0000230363FFF7D2FF00E0022008BD0120A2
:100A1C00FCE70120FAE70220F8E7000010B50446D5
:100A2C000E4B18784FF47A73B3FBF0F30C4A106842
:100A3C00B0FBF3F000F086FD68B90F2C01D9012052
:100A4C000AE0002221464FF0FF3000F035FD054B47
:100A5C001C60002000E0012010BD00BF0000002041
:100A6C00080000200400002008B5074A136843F072
:100A7C0010031360032000F00DFD0F20FFF7CEFFD5
:100A8C00FFF788FC002008BD00200240034A1168D3
:100A9C00034B1B780B441360704700BF7800002099
:100AAC0000000020014B1868704700BF7800002040
:100ABC0038B50446FFF7F6FF0546B4F1FF3F02D008
:100ACC00044B1B781C44FFF7EDFF401BA042FAD3EC
:100ADC0038BD00BF000000204FF0E022136923F066
:100AEC000203136170474FF0E022136943F00203D5
:100AFC001361704782B0084B1B68084AA2FB0323A2
:100B0C005B0A00FB03F3019300BF019B5A1E019289
:100B1C00002BF9D102B0704708000020D34D6210B1
:100B2C00002800F0F18170B582B00446036813F020
:100B3C00010F2CD0994B5B6803F00C03042B1DD0D8
:100B4C00964B5B6803F00C03082B12D06368B3F56B
:100B5C00803F41D0002B55D103F1804303F5043382
:100B6C001A6822F480321A601A6822F480221A6001
:100B7C0037E08A4B5B6813F4803FE7D0874B1B68E8
:100B8C0013F4003F03D06368002B00F0BF8123688F
:100B9C0013F0020F75D0814B5B6813F00C0F5FD014
:100BAC007E4B5B6803F00C03082B54D02369002B9D
:100BBC0000F08A807A4B01221A60FFF773FF05461A
:100BCC00764B1B6813F0020F75D1FFF76BFF401BC0
:100BDC000228F5D903209EE1704A136843F4803350
:100BEC001360636843B3FFF75DFF05466B4B1B68EF
:100BFC0013F4003FCBD1FFF755FF401B6428F5D908
:100C0C00032088E1B3F5A02F09D0644B1A6822F4B5
:100C1C0080321A601A6822F480221A60E1E703F12C
:100C2C008043A3F53C331A6842F480221A601A6898
:100C3C0042F480321A60D4E7FFF734FF0546574B75
:100C4C001B6813F4003FA2D0FFF72CFF401B642855
:100C5C00F5D903205FE1514B5B6813F4803FA5D1BC
:100C6C004E4B1B6813F0020F03D02369012B40F08D
:100C7C004F814A4A136823F0F803616943EAC103C0
:100C8C001360236813F0080F33D0A369002B5CD0DA
:100C9C00434B0122C3F88024FFF704FF05463F4B6A
:100CAC005B6A13F0020F21D1FFF7FCFE401B0228F8
:100CBC00F5D903202FE1394A136823F0F803616951
:100CCC0043EAC1031360DCE7354B00221A60FFF7DF
:100CDC00E9FE0546314B1B6813F0020FD1D0FFF72C
:100CEC00E1FE401B0228F5D9032014E10120FFF797
:100CFC0001FF236813F0040F00F09680274BDB698B
:100D0C0013F0805F34D1254BDA6942F08052DA61FE
:100D1C00DB6903F080530193019B0125214B1B6878
:100D2C0013F4807F26D0E368012B3DD0002B53D1E8
:100D3C0003F1804303F504331A6A22F001021A62AC
:100D4C001A6A22F004021A6233E0154B0022C3F82F
:100D5C008024FFF7A7FE0546104B5B6A13F0020FC9
:100D6C00C7D0FFF79FFE401B0228F5D90320D2E025
:100D7C000025D3E70B4A136843F480731360FFF725
:100D8C0091FE0646074B1B6813F4807FCBD1FFF70F
:100D9C0089FE801B6428F5D90320BCE000100240BA
:100DAC0000004242007000405F4A136A43F00103A6
:100DBC001362E36833B3FFF775FE06465A4B1B6AA2
:100DCC0013F0020F2FD1FFF76DFE801B41F2883319
:100DDC009842F3D903209EE0052B09D0524B1A6A96
:100DEC0022F001021A621A6A22F004021A62E0E787
:100DFC004D4B1A6A42F004021A621A6A42F001025E
:100E0C001A62D6E7FFF74EFE0646474B1B6A13F0F5
:100E1C00020F08D0FFF746FE801B41F28833984240
:100E2C00F3D9032077E0E5B9E369002B72D03E4A91
:100E3C00526802F00C02082A56D0022B17D03B4BFA
:100E4C0000221A66FFF72EFE0446374B1B6813F080
:100E5C00007F47D0FFF726FE001B0228F5D90320A0
:100E6C0059E0314AD36923F08053D361DCE72F4B2F
:100E7C0000221A66FFF716FE05462B4B1B6813F073
:100E8C00007F06D0FFF70EFE401B0228F5D9032089
:100E9C0041E0236AB3F5803F1AD023494B6823F411
:100EAC007413226A606A024313434B601F4B012286
:100EBC001A66FFF7F7FD04461B4B1B6813F0007F07
:100ECC000ED1FFF7EFFD001B0228F5D9032022E01D
:100EDC00154A536823F40033A1680B435360DCE7D5
:100EEC00002018E0002016E0012B16D00E4B5B689A
:100EFC0003F48031226A914211D103F47013626AB7
:100F0C0093420ED1002006E001207047012002E040
:100F1C00012000E0002002B070BD0120FBE70120A1
:100F2C00F9E70120F7E700BF001002400000424241
:100F3C0086B0174B0FCB0DF1180C0CE90F0040F2DB
:100F4C000123ADF80430134B5B6803F00C02082A44
:100F5C0002D0114806B07047C3F3834218326A447A
:100F6C0012F8100C13F4803F0DD00A4B5B68C3F3DE
:100F7C00404318336B4413F8143C074A02FB00F04F
:100F8C00B0FBF3F0E6E7054B03FB00F0E2E700BF34
:100F9C00AC1600080010024000127A0000093D0057
:100FAC00002800F0A08070B50D460446524B1B681B
:100FBC0003F007038B420BD24F4A136823F007034D
:100FCC000B431360136803F007038B4240F08D80D2
:100FDC00236813F0020F17D013F0040F04D0474A04
:100FEC00536843F4E0635360236813F0080F04D094
:100FFC00424A536843F460535360404A536823F0A9
:10100C00F003A1680B435360236813F0010F31D038
:10101C006368012B20D0022B25D0384A126812F0BD
:10102C00020F64D035494A6822F0030213434B6027
:10103C00FFF738FD0646314B5B6803F00C03626822
:10104C00B3EB820F16D0FFF72DFD801B41F28833D6
:10105C009842F0D9032045E0284A126812F4003F68
:10106C00E0D101203EE0254A126812F0007FD9D170
:10107C00012037E0204B1B6803F00703AB420AD971
:10108C001D4A136823F007032B431360136803F006
:10109C000703AB422DD1236813F0040F06D0174A77
:1010AC00536823F4E063E1680B435360236813F047
:1010BC00080F07D0114A536823F46053216943EA9F
:1010CC00C1035360FFF734FF0C4B5B68C3F303138E
:1010DC000B4AD35CD8400B4B18600B4B1868FFF7CE
:1010EC009DFC002070BD012070470120FAE7012013
:1010FC00F8E70120F6E700BF002002400010024094
:10110C00C01600080800002004000020014B1868DD
:10111C00704700BF0800002008B5FFF7F7FF044B2D
:10112C005B68C3F30223034AD35CD84008BD00BFFD
:10113C0000100240D016000808B5FFF7E7FF044B7B
:10114C005B68C3F3C223034AD35CD84008BD00BF1D
:10115C0000100240D016000870B582B00024A446DE
:10116C00A6E0804DAA4210D007D97F4DAA420CD0E0
:10117C0005F58035AA4208D013E0A5F58015AA42E2
:10118C0003D005F57025AA4207D18A68002A58D0E9
:10119C00012A51D04361082403E0A5F58015AA4229
:1011AC00F3D0BEF1FF0F4ED80646BEF1FF0F4CD860
:1011BC004FEA8C0233680F25954023EA050304FAA5
:1011CC0002F2134333604B6813F0805F6ED0674BB1
:1011DC009A6942F001029A619B6903F00103019341
:1011EC00019B4FEA9C02951C614B53F825600CF057
:1011FC0003039D000F23AB4026EA03065D4B984288
:10120C0029D003F58063984200F08E8003F580634B
:10121C00984200F08B8003F58063984219D0042328
:10122C001AE0CC68BDE7CC680434BAE7CC68083463
:10123C00B7E7CC680C34B4E703610824B1E70024A9
:10124C00AFE70424ADE7061DAFE7ACF1080292004E
:10125C00B0E7032300E00023AB4033430232444D9C
:10126C0045F822304B6813F4803F61D0424A136832
:10127C0043EA0E0313604B6813F4003F5ED03E4A02
:10128C00536843EA0E0353604B6813F4801F5BD022
:10129C00394A936843EA0E0393604B6813F4001FBA
:1012AC0058D0354AD36843EA0E03D3600CF1010CD5
:1012BC000A6832FA0CF353D0012303FA0CF302EA56
:1012CC00030E33EA0202F1D14A68122A3FF649AF03
:1012DC00122A3FF666AF01A555F822F097110008C7
:1012EC002F120008391200084B120008AF11000829
:1012FC00AF110008AF110008AF110008AF110008C2
:10130C00AF110008AF110008AF110008AF110008B1
:10131C00AF110008AF110008AF110008AF110008A1
:10132C00331200083F120008012395E7022393E7CC
:10133C00114A136823EA0E0313609CE70E4A5368A4
:10134C0023EA0E0353609FE70B4A936823EA0E03CC
:10135C009360A2E7084AD36823EA0E03D360A5E79B
:10136C0002B070BD000022100000311000100240CD
:10137C000000014000080140000401400AB1016175
:10138C007047090401617047C36801EA030221EA4E
:10139C00030141EA024101617047000008B5054BA9
:1013AC005B69034200D108BD024B5861FEF7C8FED1
:1013BC00F9E700BF0004014090F82130022B06D061
:1013CC0004238363002380F82030012070470268D7
:1013DC00136823F00E0313600268136823F00103F3
:1013EC001360036CC16B012202FA03F34B6080F8AB
:1013FC002120002380F820301846704708B590F85B
:10140C002130022B03D004238363012008BD026822
:10141C00136823F00E0313600268136823F00103B2
:10142C0013600368194A934214D0143293421FD0AC
:10143C00143293421ED0143293421ED01432934273
:10144C001ED01432934202D04FF0807203E04FF45E
:10145C00801200E001220E4B5A60012380F82130EB
:10146C00002380F82030436B6BB198470020CDE708
:10147C001022F0E74FF48072EDE74FF48052EAE768
:10148C004FF48032E7E70020C0E700BF08000240BD
:10149C0000000240074AD36823F4E0631B041B0CD2
:1014AC00000200F4E060034343F0BF6343F40033F5
:1014BC00D360704700ED00E000B5194BDB68C3F357
:1014CC000223C3F1070CBCF1040F28BF4FF0040C2E
:1014DC0003F1040EBEF1060F18D9033B4FF0FF3E8B
:1014EC000EFA0CFC21EA0C0199400EFA03F322EAE5
:1014FC000303194300280BDB0901C9B200F160405A
:10150C0000F5614080F800135DF804FB0023E5E76B
:10151C0000F00F000901C9B2024B1954F4E700BFE7
:10152C0000ED00E014ED00E0002807DB00F01F02E6
:10153C00400901239340024A42F82030704700BF13
:10154C0000E100E00138B0F1807F0BD24FF0E023D6
:10155C005861054AF02182F8231000209861072277
:10156C001A6170470120704700ED00E020BF00BFFA
:10157C007047000010B50F4A146824F00204146080
:10158C00136823F00103034313600B4A136943F000
:10159C0004031361012906D130BF074A136923F0F4
:1015AC000403136110BD40BFFFF7E0FFFFF7DEFF40
:1015BC00F3E700BF0070004000ED00E0024A136941
:1015CC0043F002031361704700ED00E07047000028
:1015DC000C480D490D4A002302E0D458C450043382
:1015EC00C4188C42F9D30A4A0A4C002301E0136058
:1015FC000432A242FBD3FFF7E9FF00F00FF8FEF72D
:10160C00DBFD7047000000200C000020E0160008F5
:10161C000C0000207C000020FEE7000070B50026C6
:10162C000C4D0D4C641BA410A64209D100F022F8FD
:10163C0000260A4D0A4C641BA410A64205D170BDAD
:10164C0055F8043B98470136EEE755F8043B9847AC
:10165C000136F2E7D8160008D8160008D81600088C
:10166C00DC16000803460244934200D1704703F88D
:10167C00011BF9E7F8B500BFF8BC08BC9E467047E3
:0C168C00F8B500BFF8BC08BC9E467047D3
:1016980057414B4555502046524F4D2045585449C7
:1016A800490A0A0002030405060708090A0B0C0D7B
:1016B8000E0F1010000000000000000000000000E5
:1016C80001020304060708090000000001020304E0
:0416D80031010008D4
:0416DC000D010008F4
:0C16E00001000000100000000024F400D5
:04000005080015DDFD
:00000001FF
