:020000040800F2
:10000000005000208D120008190300081B0300088F
:100010001D0300081F030008210300080000000062
:1000200000000000000000000000000023030008A2
:10003000250300080000000027030008290300082A
:10004000D5120008D5120008D5120008D5120008F4
:10005000D5120008D5120008D5120008D5120008E4
:10006000D5120008D5120008D5120008D5120008D4
:10007000D5120008D5120008D5120008D5120008C4
:10008000D5120008D5120008D5120008D5120008B4
:10009000D5120008D5120008D5120008D5120008A4
:1000A000D5120008D5120008D5120008D512000894
:1000B000D5120008D5120008D5120008D512000884
:1000C000D5120008D5120008D51200083103000827
:1000D000D5120008D5120008D5120008D512000864
:1000E000D5120008D5120008D51200080000000043
:1000F0000000000000000000000000000000000000
:0C01000000000000000000005FF808F1A3
:10010C0010B5054C237833B9044B13B10448AFF345
:10011C0000800123237010BD0C00002000000000A3
:10012C003013000808B5034B1BB103490348AFF368
:10013C00008008BD000000001000002030130008F3
:10014C0072B6FEE700B591B02822002106A801F096
:10015C00E1F8002301930293039304930593022384
:10016C00069301230A9310230B9306A800F0B8FB07
:10017C0068B90F2301930021029103910491059119
:10018C0001A800F0EDFD20B911B05DF804FBFFF7FC
:10019C00D7FFFFF7D5FF000008B500F053FBFFF7C2
:1001AC00D1FF00F02FF800F04FF80821124800F0B2
:1001BC009FFF0028F9D1142000F068FB08210E489D
:1001CC0000F096FF0028F0D10C4C2378013B18BFAF
:1001DC0001232370084D00221021284600F08FFFC8
:1001EC00642301222146064800F09DF901221021CA
:1001FC00284600F084FFD8E70008014028000020C2
:10020C002C00002000B587B00023029303930493C5
:10021C00059303F1804303F504339A6942F0040219
:10022C009A619B6903F004030193019B08230293D9
:10023C000123049302A9034800F048FE07B05DF8BF
:10024C0004FB00BF0008014008B50D480D4B0360CE
:10025C004FF48273436000238360C3600361436186
:10026C004FF480228261C3610362436283620A237A
:10027C00C36200F0FDF800B908BDFFF761FFFBE7B2
:10028C002C0000200030014030B587B000230293D1
:10029C0003930493059302681A4B9A4201D007B05A
:1002AC0030BD03F560439A6942F480529A619A69B1
:1002BC0002F480520092009A9A6942F004029A6108
:1002CC009B6903F004030193019BB0230293022367
:1002DC000393032305930C4D02A9284600F0F6FD69
:1002EC004023029300240394049402A9284600F0AE
:1002FC00EDFD22462146232000F066FF232000F06E
:10030C009BFFCCE70030014000080140FEE7FEE710
:10031C00FEE7FEE7FEE770477047704708B500F050
:10032C00A3FA08BD08B5024800F0DAF908BD00BF11
:10033C002C00002082B00E4B9A6942F001029A61A7
:10034C009A6902F001020092009ADA6942F0805236
:10035C00DA61DB6903F080530193019B054A536812
:10036C0023F0E06343F00073536002B0704700BFAA
:10037C0000100240000001402DE9F04782B0054614
:10038C00884617461E4600F07BFA0A9B1B1A03EBA5
:10039C00060900F075FA82462B4B1B68C3F3CB336E
:1003AC0009FB03F301932B689C6838EA04030CBF28
:1003BC004FF0010C4FF0000CBC4540D0B6F1FF3FA4
:1003CC00F1D000F05DFAA0EB0A0048450AD2B9F171
:1003DC00000F07D0019A02B14A46019B013B0193E1
:1003EC009146E0E72A68536823F0E00353606B689A
:1003FC00B3F5827F0BD0AB6AB3F5005F14D0012349
:10040C0085F85130002385F85030032018E0AB6894
:10041C00B3F5004F02D0B3F5806FECD12A681368A6
:10042C0023F040031360E6E72A68136823F40053B3
:10043C0013602A68136843F400531360DFE700204D
:10044C0002B0BDE8F08700BF0800002010B582B0F4
:10045C0004460B46009200228021FFF78DFF08B95D
:10046C0002B010BD636D43F0200363650320F7E712
:10047C00002856D010B50446436A33B94368B3F527
:10048C00827F05D00023C36102E000230361436136
:10049C000023A36294F85130002B3CD0022384F843
:1004AC0051302268136823F040031360636803F42F
:1004BC008273A26802F404421343E26802F40062FD
:1004CC001343226902F002021343626902F0010233
:1004DC001343A26902F400721343E26902F038027A
:1004EC001343226A02F080021343A26A02F4005200
:1004FC00216813430B60638B226803F00403536081
:10050C002268D36923F40063D36100206065012362
:10051C0084F8513010BD84F850302046FFF7B4FEFB
:10052C00BCE7012070472DE9F04383B01D4690F8DD
:10053C005030012B00F0D1800446884691460123AF
:10054C0080F8503000F09CF9074694F85160F6B2F0
:10055C00012E40F0AF80B8F1000F00F0AC80B9F183
:10056C00000F00F0A880032384F85130002363654A
:10057C00C4F83080A4F83490A4F83690A363A38711
:10058C00E38763642364A368B3F5004F1ED023682C
:10059C001A6812F0400F03D11A6842F040021A6038
:1005AC00E368B3F5006F1CD0636813B1B9F1010FA8
:1005BC0052D1226B236812781A73236B0133236395
:1005CC00E38E9BB2013B9BB2E38645E02268136845
:1005DC0023F0400313602268136843F480431360D4
:1005EC00D5E7636813B1B9F1010F16D1226B2368FB
:1005FC001288DA60236B02332363E38E9BB2013BD8
:10060C009BB2E38609E000F03BF9C01BA84202D381
:10061C00B5F1FF3F59D1002D59D0E38E9BB2002B81
:10062C0033D023689A6812F0020FECD0226B128838
:10063C00DA60236B02332363E38E9BB2013B9BB2E4
:10064C00E386EAE700F01CF9C01BA84202D3B5F11F
:10065C00FF3F3ED1002D3ED0E38E9BB2ABB1236861
:10066C009A6812F0020FEDD0226B12781A73236B7A
:10067C0001332363B4F836C01FFA8CFC0CF1FF3C39
:10068C001FFA8CFCA4F836C0E6E73A462946204609
:10069C00FFF7DCFE08B120236365A36833B901932F
:1006AC002368DA6801929B680193019B636D13B90F
:1006BC00002600E00226012384F85130002384F840
:1006CC005030304603B0BDE8F0830326F3E7032631
:1006DC00F1E70326EFE70326EDE70226F1E7704783
:1006EC0030B585B00446026851689368C3F3801036
:1006FC0013F0400F05D113F0010F02D011F0400F91
:10070C005AD113F0020F02D011F0800F58D1C3F35D
:10071C00401513F0200F01D1002854D011F0200FF8
:10072C0051D078B194F85130DBB2032B4DD0636DBE
:10073C0043F00403636500230193D368019393682A
:10074C000193019B65B1636D43F001036365002365
:10075C00039393680393136823F040031360039B84
:10076C00636D002B2FD02268536823F0E003536095
:10077C00012384F8513011F0030F2ED022685368F6
:10078C0023F003035360E36C4BB1164A5A63E06CDD
:10079C0000F0BCFC18B1636D43F040036365A36CBF
:1007AC008BB1104A5A63A06C00F0B0FC58B1636D69
:1007BC0043F04003636506E0236C2046984702E053
:1007CC00636C2046984705B030BD00230293D36874
:1007DC00029393680293029BF5E72046FFF77FFF95
:1007EC00F1E700BFF507000808B5406A0023C3878E
:1007FC00C386FFF774FF08BD10B504460E4B18787E
:10080C004FF47A73B3FBF0F30C4A1068B0FBF3F0BF
:10081C0000F020FD68B90F2C01D901200AE000225C
:10082C0021464FF0FF3000F0CFFC054B1C60002040
:10083C0000E0012010BD00BF0000002008000020D7
:10084C000400002008B5074A136843F01003136036
:10085C00032000F0A7FC0F20FFF7CEFFFFF76AFD87
:10086C00002008BD00200240034A1168034B1B788E
:10087C000B441360704700BF840000200000002070
:10088C00014B1868704700BF8400002038B504463F
:10089C00FFF7F6FF0546B4F1FF3F02D0044B1B787F
:1008AC001C44FFF7EDFF401BA042FAD338BD00BF3C
:1008BC000000002082B0084B1B68084AA2FB0323EF
:1008CC005B0A00FB03F3019300BF019B5A1E0192CC
:1008DC00002BF9D102B0704708000020D34D6210F4
:1008EC00002800F0F18170B582B00446036813F063
:1008FC00010F2CD0994B5B6803F00C03042B1DD01B
:10090C00964B5B6803F00C03082B12D06368B3F5AD
:10091C00803F41D0002B55D103F1804303F50433C4
:10092C001A6822F480321A601A6822F480221A6043
:10093C0037E08A4B5B6813F4803FE7D0874B1B682A
:10094C0013F4003F03D06368002B00F0BF812368D1
:10095C0013F0020F75D0814B5B6813F00C0F5FD056
:10096C007E4B5B6803F00C03082B54D02369002BDF
:10097C0000F08A807A4B01221A60FFF781FF05464E
:10098C00764B1B6813F0020F75D1FFF779FF401BF4
:10099C000228F5D903209EE1704A136843F4803392
:1009AC001360636843B3FFF76BFF05466B4B1B6823
:1009BC0013F4003FCBD1FFF763FF401B6428F5D93C
:1009CC00032088E1B3F5A02F09D0644B1A6822F4F8
:1009DC0080321A601A6822F480221A60E1E703F16F
:1009EC008043A3F53C331A6842F480221A601A68DB
:1009FC0042F480321A60D4E7FFF742FF0546574BAA
:100A0C001B6813F4003FA2D0FFF73AFF401B642889
:100A1C00F5D903205FE1514B5B6813F4803FA5D1FE
:100A2C004E4B1B6813F0020F03D02369012B40F0CF
:100A3C004F814A4A136823F0F803616943EAC10302
:100A4C001360236813F0080F33D0A369002B5CD01C
:100A5C00434B0122C3F88024FFF712FF05463F4B9E
:100A6C005B6A13F0020F21D1FFF70AFF401B02282B
:100A7C00F5D903202FE1394A136823F0F803616993
:100A8C0043EAC1031360DCE7354B00221A60FFF721
:100A9C00F7FE0546314B1B6813F0020FD1D0FFF760
:100AAC00EFFE401B0228F5D9032014E10120FFF7CB
:100ABC0001FF236813F0040F00F09680274BDB69CD
:100ACC0013F0805F34D1254BDA6942F08052DA6141
:100ADC00DB6903F080530193019B0125214B1B68BB
:100AEC0013F4807F26D0E368012B3DD0002B53D12B
:100AFC0003F1804303F504331A6A22F001021A62EF
:100B0C001A6A22F004021A6233E0154B0022C3F871
:100B1C008024FFF7B5FE0546104B5B6A13F0020FFD
:100B2C00C7D0FFF7ADFE401B0228F5D90320D2E059
:100B3C000025D3E70B4A136843F480731360FFF767
:100B4C009FFE0646074B1B6813F4807FCBD1FFF743
:100B5C0097FE801B6428F5D90320BCE000100240EE
:100B6C0000004242007000405F4A136A43F00103E8
:100B7C001362E36833B3FFF783FE06465A4B1B6AD6
:100B8C0013F0020F2FD1FFF77BFE801B41F288334D
:100B9C009842F3D903209EE0052B09D0524B1A6AD8
:100BAC0022F001021A621A6A22F004021A62E0E7C9
:100BBC004D4B1A6A42F004021A621A6A42F00102A0
:100BCC001A62D6E7FFF75CFE0646474B1B6A13F02A
:100BDC00020F08D0FFF754FE801B41F28833984275
:100BEC00F3D9032077E0E5B9E369002B72D03E4AD4
:100BFC00526802F00C02082A56D0022B17D03B4B3D
:100C0C0000221A66FFF73CFE0446374B1B6813F0B4
:100C1C00007F47D0FFF734FE001B0228F5D90320D4
:100C2C0059E0314AD36923F08053D361DCE72F4B71
:100C3C0000221A66FFF724FE05462B4B1B6813F0A7
:100C4C00007F06D0FFF71CFE401B0228F5D90320BD
:100C5C0041E0236AB3F5803F1AD023494B6823F453
:100C6C007413226A606A024313434B601F4B0122C8
:100C7C001A66FFF705FE04461B4B1B6813F0007F3A
:100C8C000ED1FFF7FDFD001B0228F5D9032022E051
:100C9C00154A536823F40033A1680B435360DCE717
:100CAC00002018E0002016E0012B16D00E4B5B68DC
:100CBC0003F48031226A914211D103F47013626AF9
:100CCC0093420ED1002006E001207047012002E083
:100CDC00012000E0002002B070BD0120FBE70120E4
:100CEC00F9E70120F7E700BF001002400000424284
:100CFC0086B0174B0FCB0DF1180C0CE90F0040F21E
:100D0C000123ADF80430134B5B6803F00C02082A86
:100D1C0002D0114806B07047C3F3834218326A44BC
:100D2C0012F8100C13F4803F0DD00A4B5B68C3F320
:100D3C00404318336B4413F8143C074A02FB00F091
:100D4C00B0FBF3F0E6E7054B03FB00F0E2E700BF76
:100D5C00481300080010024000127A0000093D0000
:100D6C00002800F0A08070B50D460446524B1B685D
:100D7C0003F007038B420BD24F4A136823F007038F
:100D8C000B431360136803F007038B4240F08D8014
:100D9C00236813F0020F17D013F0040F04D0474A46
:100DAC00536843F4E0635360236813F0080F04D0D6
:100DBC00424A536843F460535360404A536823F0EB
:100DCC00F003A1680B435360236813F0010F31D07B
:100DDC006368012B20D0022B25D0384A126812F000
:100DEC00020F64D035494A6822F0030213434B606A
:100DFC00FFF746FD0646314B5B6803F00C03626857
:100E0C00B3EB820F16D0FFF73BFD801B41F288330A
:100E1C009842F0D9032045E0284A126812F4003FAA
:100E2C00E0D101203EE0254A126812F0007FD9D1B2
:100E3C00012037E0204B1B6803F00703AB420AD9B3
:100E4C001D4A136823F007032B431360136803F048
:100E5C000703AB422DD1236813F0040F06D0174AB9
:100E6C00536823F4E063E1680B435360236813F089
:100E7C00080F07D0114A536823F46053216943EAE1
:100E8C00C1035360FFF734FF0C4B5B68C3F30313D0
:100E9C000B4AD35CD8400B4B18600B4B1868FFF710
:100EAC00ABFC002070BD012070470120FAE7012047
:100EBC00F8E70120F6E700BF0020024000100240D6
:100ECC005C130008080000200400002070B582B0FC
:100EDC000024A446A6E0804DAA4210D007D97F4D2D
:100EEC00AA420CD005F58035AA4208D013E0A5F52E
:100EFC008015AA4203D005F57025AA4207D18A684D
:100F0C00002A58D0012A51D04361082403E0A5F5EA
:100F1C008015AA42F3D0BEF1FF0F4ED80646BEF1A3
:100F2C00FF0F4CD84FEA8C0233680F25954023EA0B
:100F3C00050304FA02F2134333604B6813F0805F2D
:100F4C006ED0674B9A6942F001029A619B6903F07B
:100F5C0001030193019B4FEA9C02951C614B53F8D2
:100F6C0025600CF003039D000F23AB4026EA03061B
:100F7C005D4B984229D003F58063984200F08E8037
:100F8C0003F58063984200F08B8003F580639842F0
:100F9C0019D004231AE0CC68BDE7CC680434BAE756
:100FAC00CC680834B7E7CC680C34B4E70361082488
:100FBC00B1E70024AFE70424ADE7061DAFE7ACF1C1
:100FCC0008029200B0E7032300E00023AB40334358
:100FDC000232444D45F822304B6813F4803F61D007
:100FEC00424A136843EA0E0313604B6813F4003F44
:100FFC005ED03E4A536843EA0E0353604B6813F4C9
:10100C00801F5BD0394A936843EA0E0393604B68A8
:10101C0013F4001F58D0354AD36843EA0E03D3604B
:10102C000CF1010C0A6832FA0CF353D0012303FAC9
:10103C000CF302EA030E33EA0202F1D14A68122AD7
:10104C003FF649AF122A3FF666AF01A555F822F0DC
:10105C000B0F0008A30F0008AD0F0008BF0F00080E
:10106C00230F0008230F0008230F0008230F00088C
:10107C00230F0008230F0008230F0008230F00087C
:10108C00230F0008230F0008230F0008230F00086C
:10109C00230F0008A70F0008B30F0008012395E7E2
:1010AC00022393E7114A136823EA0E0313609CE7AB
:1010BC000E4A536823EA0E0353609FE70B4A93686A
:1010CC0023EA0E039360A2E7084AD36823EA0E03CF
:1010DC00D360A5E702B070BD0000221000003110F3
:1010EC0000100240000001400008014000040140D3
:1010FC008368194201D001207047002070470AB163
:10110C0001617047090401617047000008B590F84F
:10111C002130022B03D004238363012008BD026815
:10112C00136823F00E0313600268136823F00103A5
:10113C0013600368194A934214D0143293421FD09F
:10114C00143293421ED0143293421ED01432934266
:10115C001ED01432934202D04FF0807203E04FF451
:10116C00801200E001220E4B5A60012380F82130DE
:10117C00002380F82030436B6BB198470020CDE7FB
:10118C001022F0E74FF48072EDE74FF48052EAE75B
:10119C004FF48032E7E70020C0E700BF08000240B0
:1011AC0000000240074AD36823F4E0631B041B0CC5
:1011BC00000200F4E060034343F0BF6343F40033E8
:1011CC00D360704700ED00E000B5194BDB68C3F34A
:1011DC000223C3F1070CBCF1040F28BF4FF0040C21
:1011EC0003F1040EBEF1060F18D9033B4FF0FF3E7E
:1011FC000EFA0CFC21EA0C0199400EFA03F322EAD8
:10120C000303194300280BDB0901C9B200F160404C
:10121C0000F5614080F800135DF804FB0023E5E75E
:10122C0000F00F000901C9B2024B1954F4E700BFDA
:10123C0000ED00E014ED00E0002807DB00F01F02D9
:10124C00400901239340024A42F82030704700BF06
:10125C0000E100E00138B0F1807F0BD24FF0E023C9
:10126C005861054AF02182F823100020986107226A
:10127C001A6170470120704700ED00E070470000D4
:10128C000C480D490D4A002302E0D458C4500433D5
:10129C00C4188C42F9D30A4A0A4C002301E01360AB
:1012AC000432A242FBD3FFF7E9FF00F00FF8FEF780
:1012BC0073FF7047000000200C000020741300081E
:1012CC000C00002088000020FEE7000070B500260E
:1012DC000C4D0D4C641BA410A64209D100F022F851
:1012EC0000260A4D0A4C641BA410A64205D170BD01
:1012FC0055F8043B98470136EEE755F8043B984700
:10130C000136F2E76C1300086C1300086C1300082C
:10131C007013000803460244934200D1704703F84F
:10132C00011BF9E7F8B500BFF8BC08BC9E46704736
:0C133C00F8B500BFF8BC08BC9E46704726
:1013480002030405060708090A0B0C0D0E0F1010FE
:10135800000000000000000000000000010203047B
:041368000607080963
:04136C003101000843
:041370000D01000863
:0C13740001000000100000000024F40044
:040000050800128D50
:00000001FF
