:020000040800F2
:1000000000500020490C0008A3020008A5020008C7
:10001000A7020008A9020008AB02000800000000C7
:10002000000000000000000000000000AD02000819
:10003000AF02000800000000B1020008B30200088F
:10004000910C0008910C0008910C0008910C00081C
:10005000910C0008910C0008910C0008910C00080C
:10006000910C0008910C0008910C0008910C0008FC
:10007000910C0008910C0008910C0008910C0008EC
:10008000910C0008910C0008910C0008910C0008DC
:10009000910C0008910C0008910C0008910C0008CC
:1000A000910C0008910C0008910C0008910C0008BC
:1000B000910C0008910C0008910C0008910C0008AC
:1000C000910C0008910C0008910C0008910C00089C
:1000D000910C0008910C0008910C0008910C00088C
:1000E000910C0008910C0008910C00080000000021
:1000F0000000000000000000000000000000000000
:0C01000000000000000000005FF808F1A3
:10010C0010B5054C237833B9044B13B10448AFF345
:10011C0000800123237010BD480000200000000067
:10012C00EC0C000808B5034B1BB103490348AFF3B3
:10013C00008008BD000000004C000020EC0C000802
:10014C0072B6FEE700B591B02822002106A800F097
:10015C00BFFD0023019302930393049305930122A3
:10016C0006924FF4803307930A9202220D920E935B
:10017C004FF4E0130F9306A800F01CF980B90F237D
:10018C00019302210291002303934FF480620492A5
:10019C00059301A800F04EFB20B911B05DF804FBEB
:1001AC00FFF7CEFFFFF7CCFF00B58DB000F0C8F81D
:1001BC00FFF7C8FF00F022F80D4C0E4DEC4604F191
:1001CC000C0EBEE80F00ACE80F00BEE80F00ACE868
:1001DC000F009EE80F008CE80F0094E80E002846F4
:1001EC0000F03DF83C220449284600F046F8FEE7B2
:1001FC000000002020FC00086400002082B00A4BA4
:10020C009A6942F020029A619A6902F020020092E7
:10021C00009A9A6942F004029A619B6903F0040304
:10022C000193019B02B0704700100240F8B50746DD
:10023C000D46164600F058FC002409E035F8022B58
:10024C00002307EB4401012000F0A6FC0134A4B20A
:10025C00731CB4EB630FF1DB00F060FCF8BD84B0F1
:10026C0008B50DF10C0C8CE80E003C226146FFF732
:10027C00DDFFBDE8084004B07047002305E030F80E
:10028C0013C021F802CB01339BB202F1010CB3EB8A
:10029C006C0FF4DB7047FEE7FEE7FEE7FEE7FEE7D8
:1002AC0070477047704708B500F05CF808BD000057
:1002BC0082B00E4B9A6942F001029A619A6902F07F
:1002CC0001020092009ADA6942F08052DA61DB692D
:1002DC0003F080530193019B054A536823F0E063BC
:1002EC0043F00073536002B0704700BF001002402F
:1002FC000000014010B504460E4B18784FF47A7389
:10030C00B3FBF0F30C4A1068B0FBF3F000F092FB77
:10031C0068B90F2C01D901200AE0002221464FF0C8
:10032C00FF3000F04FFB054B1C60002000E001206B
:10033C0010BD00BF3C000020440000204000002005
:10034C0008B5074A136843F010031360032000F04C
:10035C0027FB0F20FFF7CEFFFFF7AAFF002008BDF9
:10036C0000200240034A1168034B1B780B441360B6
:10037C00704700BFA00000203C000020014B186813
:10038C00704700BFA000002082B0084B1B68084AD1
:10039C00A2FB03235B0A00FB03F3019300BF019B49
:1003AC005A1E0192002BF9D102B070474400002074
:1003BC00D34D6210002800F0F18170B582B0044674
:1003CC00036813F0010F2CD0994B5B6803F00C03FE
:1003DC00042B1DD0964B5B6803F00C03082B12D03A
:1003EC006368B3F5803F41D0002B55D103F18043B6
:1003FC0003F504331A6822F480321A601A6822F466
:10040C0080221A6037E08A4B5B6813F4803FE7D098
:10041C00874B1B6813F4003F03D06368002B00F07C
:10042C00BF81236813F0020F75D0814B5B6813F00A
:10043C000C0F5FD07E4B5B6803F00C03082B54D081
:10044C002369002B00F08A807A4B01221A60FFF797
:10045C0095FF0546764B1B6813F0020F75D1FFF71D
:10046C008DFF401B0228F5D903209EE1704A1368CA
:10047C0043F480331360636843B3FFF77FFF054693
:10048C006B4B1B6813F4003FCBD1FFF777FF401B7E
:10049C006428F5D9032088E1B3F5A02F09D0644B6B
:1004AC001A6822F480321A601A6822F480221A60C8
:1004BC00E1E703F18043A3F53C331A6842F4802250
:1004CC001A601A6842F480321A60D4E7FFF756FFBC
:1004DC000546574B1B6813F4003FA2D0FFF74EFFA5
:1004EC00401B6428F5D903205FE1514B5B6813F482
:1004FC00803FA5D14E4B1B6813F0020F03D023692C
:10050C00012B40F04F814A4A136823F0F8036169CC
:10051C0043EAC1031360236813F0080F33D0A369B7
:10052C00002B5CD0434B0122C3F88024FFF726FF3D
:10053C0005463F4B5B6A13F0020F21D1FFF71EFFFC
:10054C00401B0228F5D903202FE1394A136823F008
:10055C00F803616943EAC1031360DCE7354B002201
:10056C001A60FFF70BFF0546314B1B6813F0020FA7
:10057C00D1D0FFF703FF401B0228F5D9032014E16B
:10058C000120FFF701FF236813F0040F00F09680A1
:10059C00274BDB6913F0805F34D1254BDA6942F0CD
:1005AC008052DA61DB6903F080530193019B0125D2
:1005BC00214B1B6813F4807F26D0E368012B3DD0C0
:1005CC00002B53D103F1804303F504331A6A22F054
:1005DC0001021A621A6A22F004021A6233E0154B05
:1005EC000022C3F88024FFF7C9FE0546104B5B6A56
:1005FC0013F0020FC7D0FFF7C1FE401B0228F5D93C
:10060C000320D2E00025D3E70B4A136843F4807330
:10061C001360FFF7B3FE0646074B1B6813F4807F8D
:10062C00CBD1FFF7ABFE801B6428F5D90320BCE0CF
:10063C000010024000004242007000405F4A136A02
:10064C0043F001031362E36833B3FFF797FE0646EA
:10065C005A4B1B6A13F0020F2FD1FFF78FFE801B32
:10066C0041F288339842F3D903209EE0052B09D040
:10067C00524B1A6A22F001021A621A6A22F0040220
:10068C001A62E0E74D4B1A6A42F004021A621A6AC7
:10069C0042F001021A62D6E7FFF770FE0646474B9E
:1006AC001B6A13F0020F08D0FFF768FE801B41F2A3
:1006BC0088339842F3D9032077E0E5B9E369002B3E
:1006CC0072D03E4A526802F00C02082A56D0022B15
:1006DC0017D03B4B00221A66FFF750FE0446374BEF
:1006EC001B6813F0007F47D0FFF748FE001B022861
:1006FC00F5D9032059E0314AD36923F08053D361F3
:10070C00DCE72F4B00221A66FFF738FE05462B4B11
:10071C001B6813F0007F06D0FFF730FE401B022849
:10072C00F5D9032041E0236AB3F5803F1AD0234961
:10073C004B6823F47413226A606A024313434B60C0
:10074C001F4B01221A66FFF719FE04461B4B1B6850
:10075C0013F0007F0ED1FFF711FE001B0228F5D914
:10076C00032022E0154A536823F40033A1680B439D
:10077C005360DCE7002018E0002016E0012B16D0B7
:10078C000E4B5B6803F48031226A914211D103F461
:10079C007013626A93420ED1002006E0012070476C
:1007AC00012002E0012000E0002002B070BD012019
:1007BC00FBE70120F9E70120F7E700BF001002403A
:1007CC000000424286B0174B0FCB0DF1180C0CE910
:1007DC000F0040F20123ADF80430134B5B6803F0BB
:1007EC000C02082A02D0114806B07047C3F38342AA
:1007FC0018326A4412F8100C13F4803F0DD00A4BD7
:10080C005B68C3F3404318336B4413F8143C074A3A
:10081C0002FB00F0B0FBF3F0E6E7054B03FB00F046
:10082C00E2E700BF040D00080010024000127A003D
:10083C0000093D00002800F0A08070B50D4604466C
:10084C00524B1B6803F007038B420BD24F4A1368C1
:10085C0023F007030B431360136803F007038B4269
:10086C0040F08D80236813F0020F17D013F0040FA3
:10087C0004D0474A536843F4E0635360236813F091
:10088C00080F04D0424A536843F460535360404A03
:10089C00536823F0F003A1680B435360236813F0F3
:1008AC00010F31D06368012B20D0022B25D0384AA0
:1008BC00126812F0020F64D035494A6822F0030224
:1008CC0013434B60FFF75AFD0646314B5B6803F050
:1008DC000C036268B3EB820F16D0FFF74FFD801B41
:1008EC0041F288339842F0D9032045E0284A126837
:1008FC0012F4003FE0D101203EE0254A126812F0CC
:10090C00007FD9D1012037E0204B1B6803F007038F
:10091C00AB420AD91D4A136823F007032B4313601B
:10092C00136803F00703AB422DD1236813F0040FB7
:10093C0006D0174A536823F4E063E1680B43536015
:10094C00236813F0080F07D0114A536823F460533F
:10095C00216943EAC1035360FFF734FF0C4B5B681A
:10096C00C3F303130B4AD35CD8400B4B18600B4BEF
:10097C001868FFF7BFFC002070BD012070470120F4
:10098C00FAE70120F8E70120F6E700BF002002405B
:10099C0000100240180D0008440000204000002008
:1009AC00074AD36823F4E0631B041B0C000200F419
:1009BC00E060034343F0BF6343F40033D3607047FC
:1009CC0000ED00E000B5194BDB68C3F30223C3F163
:1009DC00070CBCF1040F28BF4FF0040C03F1040EFC
:1009EC00BEF1060F18D9033B4FF0FF3E0EFA0CFC7C
:1009FC0021EA0C0199400EFA03F322EA030319438E
:100A0C0000280BDB0901C9B200F1604000F5614020
:100A1C0080F800135DF804FB0023E5E700F00F00FD
:100A2C000901C9B2024B1954F4E700BF00ED00E014
:100A3C0014ED00E00138B0F1807F0BD24FF0E023D1
:100A4C005861054AF02182F8231000209861072292
:100A5C001A6170470120704700ED00E0044B002242
:100A6C00DA61044A136943F0010313610180704792
:100A7C00A800002000200240194BDB6813F0100383
:100A8C0005D0184AD36943F00203D3611023144AEA
:100A9C00D26812F0040F06D01249CA6942F0010262
:100AAC00CA6143F004030E4AD26912F0010F09D057
:100ABC000C49CA6942F00402CA610949CA6922F0A8
:100ACC000102CA6140F20112934202D0044AD3607F
:100ADC007047034AD36923F00103D361704700BF09
:100AEC0000200240A80000200A4B1B6913F0800F65
:100AFC000BD0084B084A5A6002F188325A601B69C5
:100B0C0013F0800F03D100207047002070470120A4
:100B1C00704700BF0020024023016745034A136958
:100B2C0043F0800313610020704700BF0020024097
:100B3C0038B50446FFF722FC0546164BDB6813F06C
:100B4C00010F0AD0B4F1FF3FF7D024B1FFF716FC28
:100B5C00401BA042F1D903201BE00E4BDB6813F0C5
:100B6C00200F02D00B4B2022DA600A4BDB6813F00B
:100B7C00100F0BD1074BDB6913F0010F06D1054B9E
:100B8C00DB6813F0040F01D1002002E0FFF774FFC3
:100B9C00012038BD002002402DE9F8431E46244BAD
:100BAC001B7E012B41D004460F469046204B012260
:100BBC001A764CF25030FFF7BBFF034678BB012C82
:100BCC0008D0022C03D04FF004091C4607E04FF06C
:100BDC000209FAE74FF00109F7E70134E4B24C459A
:100BEC001DD22101C1F12002A1F1200328FA01F14B
:100BFC0006FA02F2114326FA03F3194389B207EB02
:100C0C004400FFF72BFF4CF25030FFF791FF094BDC
:100C1C001D6925F001051D6103460028DDD0044A3D
:100C2C00002111761846BDE8F8830223FAE700BFCD
:100C3C00A800002000200240704700000C480D491D
:100C4C000D4A002302E0D458C4500433C4188C421B
:100C5C00F9D30A4A0A4C002301E013600432A24281
:100C6C00FBD3FFF7E9FF00F00FF8FFF79DFA704791
:100C7C000000002048000020300D00084800002033
:100C8C00C8000020FEE7000070B500260C4D0D4C8E
:100C9C00641BA410A64209D100F022F800260A4DCC
:100CAC000A4C641BA410A64205D170BD55F8043B38
:100CBC0098470136EEE755F8043B98470136F2E7C2
:100CCC00280D0008280D0008280D00082C0D000820
:100CDC0003460244934200D1704703F8011BF9E725
:100CEC00F8B500BFF8BC08BC9E467047F8B500BF0D
:080CFC00F8BC08BC9E467047DD
:100D040002030405060708090A0B0C0D0E0F101048
:100D140000000000000000000000000001020304C5
:040D240006070809AD
:040D2800310100088D
:040D2C000D010008AD
:100D300068656C6C6F00000000000000000000009F
:100D40000000000000000000000000000000313240
:100D50003334353637380000000000000000000052
:100D60000000000000000000000000000100000082
:080D7000100000000024F40053
:0400000508000C499A
:00000001FF
