:020000040800F2
:1000000000500020E5130008C9020008CB020008D8
:10001000CD020008CF020008D10200080000000055
:10002000000000000000000000000000D3020008F3
:10003000D502000800000000D7020008D90200081D
:100040002D1400082D1400082D1400082D1400088C
:100050002D1400082D1400082D140008E1020008DA
:100060002D1400082D1400082D1400082D1400086C
:100070002D1400082D1400082D1400082D1400085C
:100080002D1400082D1400082D1400082D1400084C
:100090002D1400082D1400082D1400082D1400083C
:1000A0002D1400082D1400082D1400082D1400082C
:1000B0002D1400082D1400082D1400082D1400081C
:1000C0002D1400082D1400082D1400082D1400080C
:1000D0002D1400082D1400082D1400082D140008FC
:1000E0002D1400082D1400082D1400080000000035
:1000F0000000000000000000000000000000000000
:0C01000000000000000000005FF808F1A3
:10010C0010B5054C237833B9044B13B10448AFF345
:10011C0000800123237010BD0C00002000000000A3
:10012C008814000808B5034B1BB103490348AFF30F
:10013C00008008BD0000000010000020881400089A
:10014C00022800D0704710B5314800F0EBF8314B65
:10015C00186040F68A63984216D82E4B1B68A3F69B
:10016C008D2340F2FD3293421FD92A4B1B68A3F218
:10017C00DA4340F2B252934228D9264B1A6840F225
:10018C00D9439A4233D910BD234C012280212046F9
:10019C0000F0CAFF01222021204600F0C5FF0122F9
:1001AC004021204600F0C0FFD7E71B4C01228021E4
:1001BC00204600F0B9FF01222021204600F0B4FFB8
:1001CC0000224021204600F0AFFFCEE7124C002267
:1001DC002021204600F0A8FF00224021204600F0FC
:1001EC00A3FF01228021204600F09EFFC5E70A4CA8
:1001FC0000228021204600F097FF0022202120467B
:10020C0000F092FF00224021204600F08DFFBAE75B
:10021C003000002028000020000C014072B6FEE7E0
:10022C0000B595B0282200210DEB020001F01EF95B
:10023C000023059306930793089309930193029364
:10024C000393049302230A9301230E9310230F9319
:10025C000AA800F0D5FAA8B90F230593002106913E
:10026C0007910891099105A800F00AFD60B90223D5
:10027C0001930023039301A800F0B8FD30B915B029
:10028C005DF804FBFFF7CAFFFFF7C8FFFFF7C6FFD7
:10029C0008B500F07BFAFFF7C3FF00F0D1FF01F0C7
:1002AC003DF8044800F028F94FF40051024800F0E2
:1002BC0041FFF9E73000002000100140FEE7FEE7A7
:1002CC00FEE7FEE7FEE770477047704708B500F0A1
:1002DC006FFA08BD08B5022000F036FF08BD00001B
:1002EC0082B00E4B9A6942F001029A619A6902F04F
:1002FC0001020092009ADA6942F08052DA61DB69FD
:10030C0003F080530193019B054A536823F0E0638B
:10031C0043F00073536002B0704700BF00100240FE
:10032C00000001400368D86C7047000030B482B004
:10033C000022019290F82420012A00F091800346BB
:10034C00012280F824204A68062A2DD80468606BA4
:10035C0002EB8202053A4FF01F0C0CFA02FC20EA69
:10036C000C000D6805FA02F2024362630A68092A5E
:10037C003AD91C68E06802EB42021E3A4FF0070CB7
:10038C000CFA02FC20EA0C008D6805FA02F202431A
:10039C00E2600A68103A012A36D90020002283F85C
:1003AC00242002B030BC70470C2A0ED80568286B8C
:1003BC0002EB8202233A1F24944020EA04000C68CA
:1003CC0004FA02F202432A63D0E70568E86A02EBFA
:1003DC008202413A1F24944020EA04000C6804FA7B
:1003EC0002F20243EA62C1E71C68206902EB420296
:1003FC004FF0070C0CFA02FC20EA0C008D6805FA91
:10040C0002F202432261C4E71A681648824205D000
:10041C009A6A42F020029A620120BFE7906810F4B9
:10042C00000F1BD1906840F4000090600A68102AFD
:10043C0001D00020B2E70C4A12680C49A1FB021251
:10044C00920C02EB82025200019202E0019A013AF4
:10045C000192019A002AF9D100209FE700209DE724
:10046C0002209EE7002401400800002083DE1B438D
:10047C0030B583B00023019303689A6812F0010F22
:10048C0033D104469A6842F001029A60184B1B68FB
:10049C00184AA2FB03239B0C019302E0019B013B36
:1004AC000193019B002BF9D100F08EF905462368CE
:1004BC009B6813F0010F16D100F086F9431B022B39
:1004CC00F5D923689B6813F0010FF0D1A36A43F0B0
:1004DC001003A362E36A43F00103E362002384F890
:1004EC002430012002E0002000E0002003B030BDE9
:1004FC000800002083DE1B4390F82430012B68D0C9
:10050C0010B50446012380F82430FFF7B1FF002812
:10051C005BD1A36A23F4407323F0010343F480738B
:10052C00A36223682C4A934227D0A26A22F4801239
:10053C00A2625A6812F4806F05D0A26A22F440526B
:10054C0042F48052A262A26A12F4805F2BD0E26A5B
:10055C0022F00602E262002284F824206FF00202EC
:10056C001A6023689A6802F46022B2F5602F1DD0DD
:10057C009A6842F480129A602AE0A2F5806252686E
:10058C0012F4702FD1D0A26A42F48012A262134AE4
:10059C00526812F4806FD6D0A26A22F4405242F410
:1005AC008052A262CFE70022E262D4E70A4A934269
:1005BC0004D09A6842F4A0029A6009E0A2F5806225
:1005CC00526812F4702FD3D1F3E7002384F824304F
:1005DC0010BD0220704700BF0028014000240140DC
:1005EC0038B503689A6812F0010F01D1002038BDAC
:1005FC0004469A6822F001029A6000F0E5F805467C
:10060C0023689B6813F0010F13D000F0DDF8431B37
:10061C00022BF5D923689B6813F0010FF0D0A36A65
:10062C0043F01003A362E36A43F00103E362012089
:10063C00DDE70020DBE7000000287BD070B5044626
:10064C00836A002B4DD02046FFF7CAFFA36A13F034
:10065C00100369D1002867D1A26A22F4885222F0D3
:10066C00020242F00202A2626268E1690A43217B43
:10067C0042EA4102A568B5F5807F02D0012D36D043
:10068C001D46267D012E35D02668716821F46941FE
:10069C00294371602568AE68274931401143A96030
:1006AC00A168B1F5807F01D0012902D12369013BFA
:1006BC001B052568E96A21F470010B43EB62236882
:1006CC0099681E4B0B409A4225D0A36A23F0120363
:1006DC0043F01003A362E36A43F00103E3620120D9
:1006EC0027E0C36280F8243000F046FEABE74FF4FD
:1006FC008075C6E731B9A169013945EA413141F448
:10070C000065C1E7A16A41F02001A162E16A41F0F4
:10071C000101E162B8E70023E362A36A23F003035B
:10072C0043F00103A36204E0A36A43F01003A36245
:10073C00012070BD01207047FDF7E1FFFE0E1FFF89
:10074C0010B504460E4B18784FF47A73B3FBF0F3E4
:10075C000C4A1068B0FBF3F000F05CFD68B90F2C8C
:10076C0001D901200AE0002221464FF0FF3000F0B1
:10077C000BFD054B1C60002000E0012010BD00BFEC
:10078C0000000020080000200400002008B5074AE3
:10079C00136843F010031360032000F0E3FC0F20F8
:1007AC00FFF7CEFFFFF79CFD002008BD00200240A4
:1007BC00034A1168034B1B780B441360704700BF4E
:1007CC002C00002000000020014B1868704700BF6F
:1007DC002C00002082B0084B1B68084AA2FB0323A4
:1007EC005B0A00FB03F3019300BF019B5A1E0192AD
:1007FC00002BF9D102B0704708000020D34D6210D5
:10080C00002800F0F18170B582B00446036813F043
:10081C00010F2CD0994B5B6803F00C03042B1DD0FB
:10082C00964B5B6803F00C03082B12D06368B3F58E
:10083C00803F41D0002B55D103F1804303F50433A5
:10084C001A6822F480321A601A6822F480221A6024
:10085C0037E08A4B5B6813F4803FE7D0874B1B680B
:10086C0013F4003F03D06368002B00F0BF812368B2
:10087C0013F0020F75D0814B5B6813F00C0F5FD037
:10088C007E4B5B6803F00C03082B54D02369002BC0
:10089C0000F08A807A4B01221A60FFF795FF05461B
:1008AC00764B1B6813F0020F75D1FFF78DFF401BC1
:1008BC000228F5D903209EE1704A136843F4803373
:1008CC001360636843B3FFF77FFF05466B4B1B68F0
:1008DC0013F4003FCBD1FFF777FF401B6428F5D909
:1008EC00032088E1B3F5A02F09D0644B1A6822F4D9
:1008FC0080321A601A6822F480221A60E1E703F150
:10090C008043A3F53C331A6842F480221A601A68BB
:10091C0042F480321A60D4E7FFF756FF0546574B76
:10092C001B6813F4003FA2D0FFF74EFF401B642856
:10093C00F5D903205FE1514B5B6813F4803FA5D1DF
:10094C004E4B1B6813F0020F03D02369012B40F0B0
:10095C004F814A4A136823F0F803616943EAC103E3
:10096C001360236813F0080F33D0A369002B5CD0FD
:10097C00434B0122C3F88024FFF726FF05463F4B6B
:10098C005B6A13F0020F21D1FFF71EFF401B0228F8
:10099C00F5D903202FE1394A136823F0F803616974
:1009AC0043EAC1031360DCE7354B00221A60FFF702
:1009BC000BFF0546314B1B6813F0020FD1D0FFF72C
:1009CC0003FF401B0228F5D9032014E10120FFF797
:1009DC0001FF236813F0040F00F09680274BDB69AE
:1009EC0013F0805F34D1254BDA6942F08052DA6122
:1009FC00DB6903F080530193019B0125214B1B689C
:100A0C0013F4807F26D0E368012B3DD0002B53D10B
:100A1C0003F1804303F504331A6A22F001021A62CF
:100A2C001A6A22F004021A6233E0154B0022C3F852
:100A3C008024FFF7C9FE0546104B5B6A13F0020FCA
:100A4C00C7D0FFF7C1FE401B0228F5D90320D2E026
:100A5C000025D3E70B4A136843F480731360FFF748
:100A6C00B3FE0646074B1B6813F4807FCBD1FFF710
:100A7C00ABFE801B6428F5D90320BCE000100240BB
:100A8C0000004242007000405F4A136A43F00103C9
:100A9C001362E36833B3FFF797FE06465A4B1B6AA3
:100AAC0013F0020F2FD1FFF78FFE801B41F288331A
:100ABC009842F3D903209EE0052B09D0524B1A6AB9
:100ACC0022F001021A621A6A22F004021A62E0E7AA
:100ADC004D4B1A6A42F004021A621A6A42F0010281
:100AEC001A62D6E7FFF770FE0646474B1B6A13F0F7
:100AFC00020F08D0FFF768FE801B41F28833984242
:100B0C00F3D9032077E0E5B9E369002B72D03E4AB4
:100B1C00526802F00C02082A56D0022B17D03B4B1D
:100B2C0000221A66FFF750FE0446374B1B6813F081
:100B3C00007F47D0FFF748FE001B0228F5D90320A1
:100B4C0059E0314AD36923F08053D361DCE72F4B52
:100B5C0000221A66FFF738FE05462B4B1B6813F074
:100B6C00007F06D0FFF730FE401B0228F5D903208A
:100B7C0041E0236AB3F5803F1AD023494B6823F434
:100B8C007413226A606A024313434B601F4B0122A9
:100B9C001A66FFF719FE04461B4B1B6813F0007F07
:100BAC000ED1FFF711FE001B0228F5D9032022E01D
:100BBC00154A536823F40033A1680B435360DCE7F8
:100BCC00002018E0002016E0012B16D00E4B5B68BD
:100BDC0003F48031226A914211D103F47013626ADA
:100BEC0093420ED1002006E001207047012002E064
:100BFC00012000E0002002B070BD0120FBE70120C5
:100C0C00F9E70120F7E700BF001002400000424264
:100C1C0086B0174B0FCB0DF1180C0CE90F0040F2FE
:100C2C000123ADF80430134B5B6803F00C02082A67
:100C3C0002D0114806B07047C3F3834218326A449D
:100C4C0012F8100C13F4803F0DD00A4B5B68C3F301
:100C5C00404318336B4413F8143C074A02FB00F072
:100C6C00B0FBF3F0E6E7054B03FB00F0E2E700BF57
:100C7C00A01400080010024000127A0000093D0088
:100C8C00002800F0A08070B50D460446524B1B683E
:100C9C0003F007038B420BD24F4A136823F0070370
:100CAC000B431360136803F007038B4240F08D80F5
:100CBC00236813F0020F17D013F0040F04D0474A27
:100CCC00536843F4E0635360236813F0080F04D0B7
:100CDC00424A536843F460535360404A536823F0CC
:100CEC00F003A1680B435360236813F0010F31D05C
:100CFC006368012B20D0022B25D0384A126812F0E1
:100D0C00020F64D035494A6822F0030213434B604A
:100D1C00FFF75AFD0646314B5B6803F00C03626823
:100D2C00B3EB820F16D0FFF74FFD801B41F28833D7
:100D3C009842F0D9032045E0284A126812F4003F8B
:100D4C00E0D101203EE0254A126812F0007FD9D193
:100D5C00012037E0204B1B6803F00703AB420AD994
:100D6C001D4A136823F007032B431360136803F029
:100D7C000703AB422DD1236813F0040F06D0174A9A
:100D8C00536823F4E063E1680B435360236813F06A
:100D9C00080F07D0114A536823F46053216943EAC2
:100DAC00C1035360FFF734FF0C4B5B68C3F30313B1
:100DBC000B4AD35CD8400B4B18600B4B1868FFF7F1
:100DCC00BFFC002070BD012070470120FAE7012014
:100DDC00F8E70120F6E700BF0020024000100240B7
:100DEC00B4140008080000200400002070B582B084
:100DFC000446036813F0010F36D03F4BDB6913F048
:100E0C00805F49D13C4BDA6942F08052DA61DB6990
:100E1C0003F080530193019B0125384B1B6813F49D
:100E2C00807F3BD0344B1B6A13F4407313D0626841
:100E3C0002F440729A420ED02F4A136A23F4407087
:100E4C002F490126C1F840640026C1F840641062A5
:100E5C0013F0010F36D1284A136A23F440736168EA
:100E6C000B431362002D3ED1236813F0020F06D002
:100E7C00214A536823F44043A1680B435360236811
:100E8C0013F0100F34D01C4A536823F48003E1682C
:100E9C000B43536000202CE00025BEE7174A136873
:100EAC0043F480731360FFF78FFC0646134B1B68EB
:100EBC0013F4807FB6D1FFF787FC801B6428F5D92B
:100ECC00032016E0FFF780FC06460B4B1B6A13F061
:100EDC00020FC0D1FFF778FC801B41F28833984297
:100EEC00F3D9032005E0D36923F08053D361BBE72A
:100EFC00002002B070BD00BF001002400070004026
:100F0C000000424270B582B00024A446A6E0804D99
:100F1C00AA4210D007D97F4DAA420CD005F58035D6
:100F2C00AA4208D013E0A5F58015AA4203D005F516
:100F3C007025AA4207D18A68002A58D0012A51D0BC
:100F4C004361082403E0A5F58015AA42F3D0BEF155
:100F5C00FF0F4ED80646BEF1FF0F4CD84FEA8C025D
:100F6C0033680F25954023EA050304FA02F2134374
:100F7C0033604B6813F0805F6ED0674B9A6942F018
:100F8C0001029A619B6903F001030193019B4FEAF3
:100F9C009C02951C614B53F825600CF003039D00DB
:100FAC000F23AB4026EA03065D4B984229D003F58C
:100FBC008063984200F08E8003F58063984200F0C5
:100FCC008B8003F58063984219D004231AE0CC6817
:100FDC00BDE7CC680434BAE7CC680834B7E7CC6812
:100FEC000C34B4E703610824B1E70024AFE7042410
:100FFC00ADE7061DAFE7ACF108029200B0E70323A2
:10100C0000E00023AB4033430232444D45F822301C
:10101C004B6813F4803F61D0424A136843EA0E03D5
:10102C0013604B6813F4003F5ED03E4A536843EAAA
:10103C000E0353604B6813F4801F5BD0394A9368DE
:10104C0043EA0E0393604B6813F4001F58D0354AE3
:10105C00D36843EA0E03D3600CF1010C0A6832FA30
:10106C000CF353D0012303FA0CF302EA030E33EA18
:10107C000202F1D14A68122A3FF649AF122A3FF612
:10108C0066AF01A555F822F0430F0008DB0F0008EE
:10109C00E50F0008F70F00085B0F00085B0F000856
:1010AC005B0F00085B0F00085B0F00085B0F00086C
:1010BC005B0F00085B0F00085B0F00085B0F00085C
:1010CC005B0F00085B0F00085B0F0008DF0F0008C8
:1010DC00EB0F0008012395E7022393E7114A1368ED
:1010EC0023EA0E0313609CE70E4A536823EA0E03AF
:1010FC0053609FE70B4A936823EA0E039360A2E7C1
:10110C00084AD36823EA0E03D360A5E702B070BD8A
:10111C0000002210000031100010024000000140BD
:10112C0000080140000401400AB101617047090444
:10113C0001617047C36801EA030221EA030141EA35
:10114C00024101617047000008B5054B5B69034221
:10115C0000D108BD024B5861FEF7F2FFF9E700BF62
:10116C0000040140074AD36823F4E0631B041B0C02
:10117C00000200F4E060034343F0BF6343F4003328
:10118C00D360704700ED00E000B5194BDB68C3F38A
:10119C000223C3F1070CBCF1040F28BF4FF0040C61
:1011AC0003F1040EBEF1060F18D9033B4FF0FF3EBE
:1011BC000EFA0CFC21EA0C0199400EFA03F322EA18
:1011CC000303194300280BDB0901C9B200F160408D
:1011DC0000F5614080F800135DF804FB0023E5E79F
:1011EC0000F00F000901C9B2024B1954F4E700BF1B
:1011FC0000ED00E014ED00E0002807DB00F01F021A
:10120C00400901239340024A42F82030704700BF46
:10121C0000E100E00138B0F1807F0BD24FF0E02309
:10122C005861054AF02182F82310002098610722AA
:10123C001A6170470120704700ED00E07047000014
:10124C002DE9F04188B00024049405940694079489
:10125C002D4B9A6942F010029A619A6902F01002C1
:10126C000092009A9A6942F020029A619A6902F0FF
:10127C0020020192019A9A6942F004029A619A69D9
:10128C0002F004020292029A9A6942F008029A61F0
:10129C009B6903F008030393039BDFF87080012222
:1012AC004FF400514046FFF73FFF194F0122E02158
:1012BC003846FFF739FF4FF4005304930125059589
:1012CC0006940226079604A94046FFF71BFE0496D7
:1012DC00104B0593069504A90F48FFF713FEE02366
:1012EC00049305950694079604A93846FFF70AFE61
:1012FC00224629460720FFF747FF0720FFF77CFF10
:10130C0008B0BDE8F08100BF0010024000100140A1
:10131C00000C0140000021100008014000B585B010
:10132C0000230193029303931148124A02608360D5
:10133C000122027303754FF46021C16143600261A5
:10134C00FFF77AF968B9022301930123029307236B
:10135C00039301A90648FEF7E9FF28B905B05DF82B
:10136C0004FBFEF75BFFEEE7FEF758FFF6E700BF66
:10137C00300000200024014000B587B00023029308
:10138C000393049305930268114B9A4202D007B061
:10139C005DF804FB03F56C439A6942F400729A61A0
:1013AC009A6902F400720092009A9A6942F004025F
:1013BC009A619B6903F004030193019B042302933C
:1013CC000323039302A90348FFF79CFDDFE700BF4B
:1013DC0000240140000801400C480D490D4A00232F
:1013EC0002E0D458C4500433C4188C42F9D30A4ACE
:1013FC000A4C002301E013600432A242FBD3FFF736
:10140C001DFF00F00FF8FEF743FF704700000020AF
:10141C000C000020CC1400080C0000206000002000
:10142C00FEE7000070B500260C4D0D4C641BA4109B
:10143C00A64209D100F022F800260A4D0A4C641B82
:10144C00A410A64205D170BD55F8043B984701364F
:10145C00EEE755F8043B98470136F2E7C414000850
:10146C00C4140008C4140008C8140008034602443D
:10147C00934200D1704703F8011BF9E7F8B500BFA0
:10148C00F8BC08BC9E467047F8B500BFF8BC08BC59
:04149C009E467047B1
:1014A00002030405060708090A0B0C0D0E0F1010A5
:1014B0000000000000000000000000000102030422
:0414C000060708090A
:0414C40031010008EA
:0414C8000D0100080A
:0C14CC0001000000100000000024F400EB
:04000005080013E5F7
:00000001FF
