:020000040800F2
:10000000005000201D1600089D0300089F030008F3
:10001000A1030008A3030008A503000800000000D6
:10002000000000000000000000000000A70300081E
:10003000A903000800000000AB030008AD0300089E
:1000400065160008651600086516000865160008A4
:100050006516000865160008651600086516000894
:10006000651600086516000865160008B503000847
:100070006516000865160008651600086516000874
:100080006516000865160008651600086516000864
:100090006516000865160008651600086516000854
:1000A0006516000865160008651600086516000844
:1000B0006516000865160008651600086516000834
:1000C0006516000865160008651600086516000824
:1000D0006516000865160008651600086516000814
:1000E0006516000865160008651600080000000087
:1000F0000000000000000000000000000000000000
:0C01000000000000000000005FF808F1A3
:10010C0010B5054C237833B9044B13B10448AFF345
:10011C0000800123237010BD0C00002000000000A3
:10012C00C016000808B5034B1BB103490348AFF3D5
:10013C00008008BD0000000010000020C016000860
:10014C0072B6FEE700B595B0282200210DEB020037
:10015C0001F0A8FA002305930693079308930993DB
:10016C00019302930393049301220A924FF4803378
:10017C000B930E920222119212934FF4E0131393ED
:10018C000AA800F01BFCC8B90F23059302210691A5
:10019C00002307934FF480620892099305A800F09E
:1001AC004DFE68B9022301934FF40043039301A859
:1001BC0000F0FAFE30B915B05DF804FBFFF7C0FF94
:1001CC00FFF7BEFFFFF7BCFF08B500F0A9FBFFF778
:1001DC00B9FF00F013F800F0C1F800F027F8032283
:1001EC000449054800F02EFA4FF4FA7000F0BCFBFD
:1001FC00F5E700BF280000203000002082B00A4B39
:10020C009A6942F020029A619A6902F020020092E7
:10021C00009A9A6942F004029A619B6903F0040304
:10022C000193019B02B070470010024000B585B0ED
:10023C0000230193029303931E481F4A02604FF45C
:10024C0080728260037303754FF46022C261436055
:10025C000323036100F0BAFAF8B9002301930123D8
:10026C0002930323039301A9124800F005F9B8B9CE
:10027C00012301930223029301A90E4800F0FCF81C
:10028C0088B9022301930323029301A9094800F0C2
:10029C00F3F858B905B05DF804FBFFF751FFDCE744
:1002AC00FFF74EFFE4E7FFF74BFFEAE7FFF748FFE6
:1002BC00F0E700BF300000200024014010B586B0EC
:1002CC000023029303930493059302681F4B9A42F5
:1002DC0001D006B010BD044603F56C439A6942F494
:1002EC0000729A619A6902F400720092009A9A69FB
:1002FC0042F004029A619B6903F004030193019B91
:10030C00072302930323039302A9114800F0D8FE9C
:10031C001048114B03600023436083608023C3604B
:10032C004FF4807303614FF4806343612023836136
:10033C004FF44053C36100F0EBFF18B9054B236237
:10034C005C62C6E7FFF7FCFEF8E700BF0024014043
:10035C0000080140600000200800024000B583B096
:10036C000A4B5A6942F001025A615B6903F00103BE
:10037C000193019B002211460B2001F0EDF80B209C
:10038C0001F022F903B05DF804FB00BF001002403D
:10039C00FEE7FEE7FEE7FEE7FEE7704770477047B3
:1003AC0008B500F0CFFA08BD08B5024801F020F8F6
:1003BC0008BD00BF6000002082B00E4B9A6942F06D
:1003CC0001029A619A6902F001020092009ADA69BC
:1003DC0042F08052DA61DB6903F080530193019B98
:1003EC00054A536823F0E06343F00073536002B096
:1003FC00704700BF0010024000000140704708B574
:10040C00436A9A6A12F0500F1ED19A6A42F4007233
:10041C009A621A68926802F46022B2F5602F03D0D7
:10042C001846FFF7EBFF08BD1A7B002AF8D19A6A31
:10043C0022F480729A629A6A12F4805FF0D19A6AFE
:10044C0042F001029A62EBE71B6A1B6B9847EAE7E2
:10045C00704708B5406AFFF7FBFF08BD704708B549
:10046C00406A836A43F040038362C36A43F0040327
:10047C00C362FFF7F3FF08BD30B482B000220192D3
:10048C0090F82420012A00F091800346012280F884
:10049C0024204A68062A2DD80468606B02EB82027D
:1004AC00053A4FF01F0C0CFA02FC20EA0C000D6808
:1004BC0005FA02F2024362630A68092A3AD91C68F7
:1004CC00E06802EB42021E3A4FF0070C0CFA02FCF9
:1004DC0020EA0C008D6805FA02F20243E2600A6819
:1004EC00103A012A36D90020002283F8242002B0C9
:1004FC0030BC70470C2A0ED80568286B02EB8202C0
:10050C00233A1F24944020EA04000C6804FA02F2F7
:10051C0002432A63D0E70568E86A02EB8202413A9B
:10052C001F24944020EA04000C6804FA02F20243EF
:10053C00EA62C1E71C68206902EB42024FF0070C2B
:10054C000CFA02FC20EA0C008D6805FA02F2024358
:10055C002261C4E71A681648824205D09A6A42F0B2
:10056C0020029A620120BFE7906810F4000F1BD1A3
:10057C00906840F4000090600A68102A01D00020B6
:10058C00B2E70C4A12680C49A1FB0212920C02EB66
:10059C0082025200019202E0019A013A0192019A00
:1005AC00002AF9D100209FE700209DE702209EE75A
:1005BC00002401400800002083DE1B4330B583B0CB
:1005CC000023019303689A6812F0010F33D104469B
:1005DC009A6842F001029A60184B1B68184AA2FBF9
:1005EC0003239B0C019302E0019B013B0193019BB4
:1005FC00002BF9D100F0B2F9054623689B6813F083
:10060C00010F16D100F0AAF9431B022BF5D9236870
:10061C009B6813F0010FF0D1A36A43F01003A3629F
:10062C00E36A43F00103E362002384F824300120E1
:10063C0002E0002000E0002003B030BD08000020E4
:10064C0083DE1B43F8B504460D4616460168444844
:10065C00814259D0434B994256D094F82430012B07
:10066C007CD0012384F824302046FFF7A7FF0746EF
:10067C0000286ED1A16A21F4706121F0010141F4CE
:10068C008071A1622268374B9A4244D0A36A23F44A
:10069C008013A362536813F4806F05D0A36A23F40C
:1006AC00405343F48053A362A36A13F4805F48D091
:1006BC00E36A23F00603E362002384F82430236A00
:1006CC00294A9A62236A294ADA62236A284A1A63F7
:1006DC0023686FF002021A602268936843F48073F7
:1006EC009360216833462A464C31206A00F046FE5E
:1006FC0023689A6802F46022B2F5602F24D09A68BD
:10070C0042F480129A6027E0154B5B6813F4702F4B
:10071C00A3D0012720E0A3F580635B6813F4702F4E
:10072C00B4D0A36A43F48013A3620D4B5B6813F43B
:10073C00806FB9D0A36A23F4405343F48053A3626F
:10074C00B2E70023E362B7E79A6842F4A0029A602A
:10075C0002E0002384F824303846F8BD0227FBE77A
:10076C0000240140002801400B0400085F0400082D
:10077C006B04000838B503689A6812F0010F01D1B8
:10078C00002038BD04469A6822F001029A6000F0FD
:10079C00E5F8054623689B6813F0010F13D000F0B1
:1007AC00DDF8431B022BF5D923689B6813F0010F6E
:1007BC00F0D0A36A43F01003A362E36A43F0010391
:1007CC00E3620120DDE70020DBE7000000287BD09E
:1007DC0070B50446836A002B4DD02046FFF7CAFF44
:1007EC00A36A13F0100369D1002867D1A26A22F41E
:1007FC00885222F0020242F00202A2626268E169AF
:10080C000A43217B42EA4102A568B5F5807F02D0FC
:10081C00012D36D01D46267D012E35D026687168F7
:10082C0021F46941294371602568AE68274931403C
:10083C001143A960A168B1F5807F01D0012902D1D3
:10084C002369013B1B052568E96A21F470010B4300
:10085C00EB62236899681E4B0B409A4225D0A36A21
:10086C0023F0120343F01003A362E36A43F0010385
:10087C00E362012027E0C36280F82430FFF71EFDFD
:10088C00ABE74FF48075C6E731B9A169013945EA88
:10089C00413141F40065C1E7A16A41F02001A16238
:1008AC00E16A41F00101E162B8E70023E362A36A67
:1008BC0023F0030343F00103A36204E0A36A43F0B3
:1008CC001003A362012070BD01207047FDF7E1FF0A
:1008DC00FE0E1FFF10B504460E4B18784FF47A73BA
:1008EC00B3FBF0F30C4A1068B0FBF3F000F07AFEA7
:1008FC0068B90F2C01D901200AE0002221464FF0E3
:10090C00FF3000F029FE054B1C60002000E00120A8
:10091C0010BD00BF000000200800002004000020D3
:10092C0008B5074A136843F010031360032000F066
:10093C0001FE0F20FFF7CEFFFFF73EFD002008BDA4
:10094C0000200240034A1168034B1B780B441360D0
:10095C00704700BFA400002000000020014B186865
:10096C00704700BFA400002038B50446FFF7F6FF1F
:10097C000546B4F1FF3F02D0044B1B781C44FFF733
:10098C00EDFF401BA042FAD338BD00BF0000002091
:10099C0082B0084B1B68084AA2FB03235B0A00FBCE
:1009AC0003F3019300BF019B5A1E0192002BF9D156
:1009BC0002B0704708000020D34D6210002800F0F0
:1009CC00F18170B582B00446036813F0010F2CD08E
:1009DC00994B5B6803F00C03042B1DD0964B5B68A2
:1009EC0003F00C03082B12D06368B3F5803F41D0A1
:1009FC00002B55D103F1804303F504331A6822F41C
:100A0C0080321A601A6822F480221A6037E08A4B0E
:100A1C005B6813F4803FE7D0874B1B6813F4003FEF
:100A2C0003D06368002B00F0BF81236813F0020F22
:100A3C0075D0814B5B6813F00C0F5FD07E4B5B68FD
:100A4C0003F00C03082B54D02369002B00F08A8090
:100A5C007A4B01221A60FFF781FF0546764B1B6823
:100A6C0013F0020F75D1FFF779FF401B0228F5D95F
:100A7C0003209EE1704A136843F48033136063686B
:100A8C0043B3FFF76BFF05466B4B1B6813F4003F3A
:100A9C00CBD1FFF763FF401B6428F5D9032088E115
:100AAC00B3F5A02F09D0644B1A6822F480321A6077
:100ABC001A6822F480221A60E1E703F18043A3F55F
:100ACC003C331A6842F480221A601A6842F480326D
:100ADC001A60D4E7FFF742FF0546574B1B6813F427
:100AEC00003FA2D0FFF73AFF401B6428F5D9032042
:100AFC005FE1514B5B6813F4803FA5D14E4B1B68F3
:100B0C0013F0020F03D02369012B40F04F814A4AA6
:100B1C00136823F0F803616943EAC1031360236887
:100B2C0013F0080F33D0A369002B5CD0434B012288
:100B3C00C3F88024FFF712FF05463F4B5B6A13F0A6
:100B4C00020F21D1FFF70AFF401B0228F5D9032021
:100B5C002FE1394A136823F0F803616943EAC103B2
:100B6C001360DCE7354B00221A60FFF7F7FE0546F1
:100B7C00314B1B6813F0020FD1D0FFF7EFFE401B77
:100B8C000228F5D9032014E10120FFF701FF2368A7
:100B9C0013F0040F00F09680274BDB6913F0805F95
:100BAC0034D1254BDA6942F08052DA61DB6903F00B
:100BBC0080530193019B0125214B1B6813F4807F0B
:100BCC0026D0E368012B3DD0002B53D103F1804399
:100BDC0003F504331A6A22F001021A621A6A22F02F
:100BEC0004021A6233E0154B0022C3F88024FFF78D
:100BFC00B5FE0546104B5B6A13F0020FC7D0FFF72A
:100C0C00ADFE401B0228F5D90320D2E00025D3E726
:100C1C000B4A136843F480731360FFF79FFE06467C
:100C2C00074B1B6813F4807FCBD1FFF797FE801B1B
:100C3C006428F5D90320BCE00010024000004242B9
:100C4C00007000405F4A136A43F001031362E368CB
:100C5C0033B3FFF783FE06465A4B1B6A13F0020FA1
:100C6C002FD1FFF77BFE801B41F288339842F3D9DA
:100C7C0003209EE0052B09D0524B1A6A22F0010288
:100C8C001A621A6A22F004021A62E0E74D4B1A6AE1
:100C9C0042F004021A621A6A42F001021A62D6E7A2
:100CAC00FFF75CFE0646474B1B6A13F0020F08D099
:100CBC00FFF754FE801B41F288339842F3D903208E
:100CCC0077E0E5B9E369002B72D03E4A526802F036
:100CDC000C02082A56D0022B17D03B4B00221A6666
:100CEC00FFF73CFE0446374B1B6813F0007F47D0E0
:100CFC00FFF734FE001B0228F5D9032059E0314AD6
:100D0C00D36923F08053D361DCE72F4B00221A66A2
:100D1C00FFF724FE05462B4B1B6813F0007F06D013
:100D2C00FFF71CFE401B0228F5D9032041E0236A83
:100D3C00B3F5803F1AD023494B6823F47413226A0D
:100D4C00606A024313434B601F4B01221A66FFF784
:100D5C0005FE04461B4B1B6813F0007F0ED1FFF7FA
:100D6C00FDFD001B0228F5D9032022E0154A53682B
:100D7C0023F40033A1680B435360DCE7002018E038
:100D8C00002016E0012B16D00E4B5B6803F480316B
:100D9C00226A914211D103F47013626A93420ED10C
:100DAC00002006E001207047012002E0012000E055
:100DBC00002002B070BD0120FBE70120F9E7012003
:100DCC00F7E700BF001002400000424286B0174B0C
:100DDC000FCB0DF1180C0CE90F0040F20123ADF80C
:100DEC000430134B5B6803F00C02082A02D0114844
:100DFC0006B07047C3F3834218326A4412F8100CE1
:100E0C0013F4803F0DD00A4B5B68C3F34043183397
:100E1C006B4413F8143C074A02FB00F0B0FBF3F0F0
:100E2C00E6E7054B03FB00F0E2E700BFD81600082D
:100E3C000010024000127A0000093D00002800F06A
:100E4C00A08070B50D460446524B1B6803F0070397
:100E5C008B420BD24F4A136823F007030B431360EA
:100E6C00136803F007038B4240F08D80236813F066
:100E7C00020F17D013F0040F04D0474A536843F401
:100E8C00E0635360236813F0080F04D0424A5368A0
:100E9C0043F460535360404A536823F0F003A16855
:100EAC000B435360236813F0010F31D06368012B9F
:100EBC0020D0022B25D0384A126812F0020F64D0D1
:100ECC0035494A6822F0030213434B60FFF746FD95
:100EDC000646314B5B6803F00C036268B3EB820F80
:100EEC0016D0FFF73BFD801B41F288339842F0D9B6
:100EFC00032045E0284A126812F4003FE0D101209B
:100F0C003EE0254A126812F0007FD9D1012037E06B
:100F1C00204B1B6803F00703AB420AD91D4A136828
:100F2C0023F007032B431360136803F00703AB4252
:100F3C002DD1236813F0040F06D0174A536823F4FD
:100F4C00E063E1680B435360236813F0080F07D08C
:100F5C00114A536823F46053216943EAC103536077
:100F6C00FFF734FF0C4B5B68C3F303130B4AD35CE2
:100F7C00D8400B4B18600B4B1868FFF7ABFC0020EC
:100F8C0070BD012070470120FAE70120F8E701202D
:100F9C00F6E700BF0020024000100240EC160008EB
:100FAC00080000200400002070B582B004460368DD
:100FBC0013F0010F36D03F4BDB6913F0805F49D142
:100FCC003C4BDA6942F08052DA61DB6903F0805302
:100FDC000193019B0125384B1B6813F4807F3BD098
:100FEC00344B1B6A13F4407313D0626802F44072E2
:100FFC009A420ED02F4A136A23F440702F490126CF
:10100C00C1F840640026C1F84064106213F0010F6F
:10101C0036D1284A136A23F4407361680B43136278
:10102C00002D3ED1236813F0020F06D0214A5368DD
:10103C0023F44043A1680B435360236813F0100F53
:10104C0034D01C4A536823F48003E1680B4353608B
:10105C0000202CE00025BEE7174A136843F4807388
:10106C001360FFF77BFC0646134B1B6813F4807F61
:10107C00B6D1FFF773FC801B6428F5D9032016E06A
:10108C00FFF76CFC06460B4B1B6A13F0020FC0D12A
:10109C00FFF764FC801B41F288339842F3D903209C
:1010AC0005E0D36923F08053D361BBE7002002B085
:1010BC0070BD00BF001002400070004000004242B2
:1010CC0070B582B00024A446A6E0804DAA4210D090
:1010DC0007D97F4DAA420CD005F58035AA4208D01D
:1010EC0013E0A5F58015AA4203D005F57025AA4298
:1010FC0007D18A68002A58D0012A51D043610824AC
:10110C0003E0A5F58015AA42F3D0BEF1FF0F4ED82F
:10111C000646BEF1FF0F4CD84FEA8C0233680F2500
:10112C00954023EA050304FA02F2134333604B683B
:10113C0013F0805F6ED0674B9A6942F001029A619E
:10114C009B6903F001030193019B4FEA9C02951CE0
:10115C00614B53F825600CF003039D000F23AB404B
:10116C0026EA03065D4B984229D003F5806398422A
:10117C0000F08E8003F58063984200F08B8003F5BD
:10118C008063984219D004231AE0CC68BDE7CC6880
:10119C000434BAE7CC680834B7E7CC680C34B4E74D
:1011AC0003610824B1E70024AFE70424ADE7061D72
:1011BC00AFE7ACF108029200B0E7032300E0002394
:1011CC00AB4033430232444D45F822304B6813F4A4
:1011DC00803F61D0424A136843EA0E0313604B68A8
:1011EC0013F4003F5ED03E4A536843EA0E0353604B
:1011FC004B6813F4801F5BD0394A936843EA0E03A3
:10120C0093604B6813F4001F58D0354AD36843EAF7
:10121C000E03D3600CF1010C0A6832FA0CF353D0B4
:10122C00012303FA0CF302EA030E33EA0202F1D1B2
:10123C004A68122A3FF649AF122A3FF666AF01A55B
:10124C0055F822F0FF10000897110008A1110008B2
:10125C00B311000817110008171100081711000826
:10126C0017110008171100081711000817110008B2
:10127C0017110008171100081711000817110008A2
:10128C0017110008171100089B110008A71100087E
:10129C00012395E7022393E7114A136823EA0E030F
:1012AC0013609CE70E4A536823EA0E0353609FE7D2
:1012BC000B4A936823EA0E039360A2E7084AD368AB
:1012CC0023EA0E03D360A5E702B070BD0000221024
:1012DC0000003110001002400000014000080140E5
:1012EC000004014030B40124056CAC40C56B6C604B
:1012FC00046863604368102B05D003689960036829
:10130C00DA6030BC704703689A600368D960F8E70C
:10131C0060B310B402460168154B0B441548A0FB92
:10132C0003031B099B001364134BD363022382F842
:10133C002130086820F47F5020F030005368946806
:10134C002343D46823431469234354692343946986
:10135C002343D469234303430B6000209063012390
:10136C0082F8213082F8200010BC704701207047B1
:10137C00F8FFFDBFCDCCCCCC0000024038B5044604
:10138C0090F82000012831D0012084F8200094F836
:10139C002100012804D0002384F82030022038BD1D
:1013AC00022084F821000020A0632568286820F022
:1013BC00010028602046FFF795FFE36A5BB12268C5
:1013CC00136843F00E0313602268136843F00103A3
:1013DC0013600020E3E72268136823F00403136012
:1013EC002268136843F00A031360EDE70220D6E786
:1013FC0038B5C36B1A6804682568016C04238B40EC
:10140C00134235D015F0040F32D0236813F0200F9F
:10141C0003D1236823F0040323600368434A9342F7
:10142C0014D01432934218D01432934217D0143281
:10143C00934217D01432934217D01432934202D0F5
:10144C004FF0806203E04FF4800200E00422384B3E
:10145C005A60C36A03B1984738BD4022F7E74FF48E
:10146C008062F4E74FF48042F1E74FF48022EEE71C
:10147C0002238B4013423CD015F0020F39D0236865
:10148C0013F0200F06D1236823F00A0323600123F5
:10149C0080F821300368254A934214D014329342C9
:1014AC001CD0143293421BD0143293421BD01432F2
:1014BC0093421BD01432934202D04FF0007203E0DF
:1014CC004FF4001200E00222194B5A60002380F8FE
:1014DC002030836A002BBFD09847BDE72022F3E76A
:1014EC004FF40072F0E74FF40052EDE74FF4003286
:1014FC00EAE7082303FA01F11142ADD015F0080F09
:10150C00AAD0236823F00E032360026CC16B012365
:10151C0003FA02F24A60836380F82130002380F8DA
:10152C002030036B002B97D0984795E708000240BA
:10153C0000000240074AD36823F4E0631B041B0C31
:10154C00000200F4E060034343F0BF6343F4003354
:10155C00D360704700ED00E000B5194BDB68C3F3B6
:10156C000223C3F1070CBCF1040F28BF4FF0040C8D
:10157C0003F1040EBEF1060F18D9033B4FF0FF3EEA
:10158C000EFA0CFC21EA0C0199400EFA03F322EA44
:10159C000303194300280BDB0901C9B200F16040B9
:1015AC0000F5614080F800135DF804FB0023E5E7CB
:1015BC0000F00F000901C9B2024B1954F4E700BF47
:1015CC0000ED00E014ED00E0002807DB00F01F0246
:1015DC00400901239340024A42F82030704700BF73
:1015EC0000E100E00138B0F1807F0BD24FF0E02336
:1015FC005861054AF02182F82310002098610722D7
:10160C001A6170470120704700ED00E07047000040
:10161C000C480D490D4A002302E0D458C450043341
:10162C00C4188C42F9D30A4A0A4C002301E0136017
:10163C000432A242FBD3FFF7E9FF00F00FF8FEF7EC
:10164C00C3FD7047000000200C00002004170008A8
:10165C000C000020A8000020FEE7000070B500265A
:10166C000C4D0D4C641BA410A64209D100F022F8BD
:10167C0000260A4D0A4C641BA410A64205D170BD6D
:10168C0055F8043B98470136EEE755F8043B98476C
:10169C000136F2E7FC160008FC160008FC160008E0
:1016AC000017000803460244934200D1704703F828
:1016BC00011BF9E7F8B500BFF8BC08BC9E467047A3
:0C16CC00F8B500BFF8BC08BC9E46704793
:1016D80002030405060708090A0B0C0D0E0F10106B
:1016E80000000000000000000000000001020304E8
:0416F80006070809D0
:0416FC0031010008B0
:041700000D010008CF
:0C17040001000000100000000024F400B0
:040000050800161DBC
:00000001FF
