:020000040800F2
:1000000000500020DD190008830500088505000860
:1000100087050008890500088B050008000000001E
:100020000000000000000000000000008D05000836
:100030008F050008000000009105000893050008E6
:10004000251A0008251A0008251A0008251A000894
:10005000251A0008251A0008251A00089B05000823
:10006000A5050008251A0008251A0008251A000809
:10007000251A0008251A0008251A0008251A000864
:10008000251A0008251A0008251A0008251A000854
:10009000251A0008251A0008251A0008251A000844
:1000A000251A0008251A0008251A0008251A000834
:1000B000B1050008251A0008251A0008251A0008AD
:1000C000251A0008251A0008251A0008251A000814
:1000D000251A0008251A0008251A0008251A000804
:1000E000251A0008251A0008251A0008000000003B
:1000F0000000000000000000000000000000000000
:0C01000000000000000000005FF808F1A3
:10010C0010B5054C237833B9044B13B10448AFF345
:10011C0000800123237010BD0C00002000000000A3
:10012C00801A000808B5034B1BB103490348AFF311
:10013C00008008BD0000000010000020801A00089C
:10014C0038B50446042805D0022C7AD0464801F074
:10015C0017FA38BD454800F04FFA80B2444B18806E
:10016C0040F6A95398422AD8414B1B88A3F6554315
:10017C009BB2B3F5AA7F38D93D4B1B88A3F53063EE
:10018C009BB2B3F5AA7F46D9394B1B88B3F5306FB8
:10019C00DAD2384D01221021284601F043F9012210
:1001AC002021284601F03EF901224021284601F089
:1001BC0039F900228021284601F034F9C4E72D4D8D
:1001CC0000221021284601F02DF90022202128467A
:1001DC0001F028F900224021284601F023F90022E1
:1001EC008021284601F01EF9BEE7224D0122102184
:1001FC00284601F017F900222021284601F012F9B7
:10020C0000224021284601F00DF9002280212846C9
:10021C0001F008F9B0E7174D01221021284601F032
:10022C0001F901222021284601F0FCF8002240218E
:10023C00284601F0F7F800228021284601F0F2F858
:10024C00A2E70C4C01224FF40041204601F0EAF8E1
:10025C004FF47A7000F028FC00224FF40041204645
:10026C0001F0E0F872E700BF5C0000202C000020D9
:10027C0028000020000C014010B502680E4B1B68D2
:10028C009A4203D00C4801F0AFF910BD0B4C01227F
:10029C001021204601F0C6F801222021204601F051
:1002AC00C1F801224021204601F0BCF80122802136
:1002BC00204601F0B7F8E5E75C000020000C014097
:1002CC0072B6FEE700B595B0282200210DEB0200B6
:1002DC0001F0C8FB00230593069307930893099339
:1002EC00019302930393049302230A9301230E9325
:1002FC0010230F930AA800F001FCA8B90F23059353
:10030C000021069107910891099105A800F036FE8D
:10031C0060B9022301930023039301A800F0E4FECB
:10032C0030B915B05DF804FBFFF7CAFFFFF7C8FF43
:10033C00FFF7C6FF08B500F093FBFFF7C3FF00F013
:10034C000BF800F065F800F0C1F8024800F03EFA36
:10035C00FEE700BF2C00002070B588B00024049488
:10036C00059406940794274B9A6942F020029A61EF
:10037C009A6902F020020192019A9A6942F00402F1
:10038C009A619A6902F004020292029A9A6942F006
:10039C0008029A619B6903F008030393039B1A4DAF
:1003AC0022464FF40041284601F03CF80122F0218E
:1003BC00284601F037F806230493144B05930126C5
:1003CC00069604A9284600F01BFF48F2F00304939C
:1003DC00059606940223079304A9284600F010FF03
:1003EC0022460321072001F043F8072001F078F89A
:1003FC0022460421082001F03BF8082001F070F897
:10040C0008B070BD00100240000C0140000021102B
:10041C0000B585B000230193029303931148124A4F
:10042C00026083600122027303754FF46021C16185
:10043C004360026100F06AFA70B900230193012352
:10044C000293042303930DEB0301064800F0D8F844
:10045C0028B905B05DF804FBFFF732FFEDE7FFF7B5
:10046C002FFFF6E72C0000200024014000B587B0D8
:10047C00002302930393049305930268114B9A4251
:10048C0002D007B05DF804FB03F56C439A6942F4A3
:10049C0000729A619A6902F400720092009A9A6949
:1004AC0042F004029A619B6903F004030193019BDF
:1004BC00012302930323039302A9034800F0A0FE37
:1004CC00DFE700BF002401400008014000B587B001
:1004DC00002302930393049305930093019316480E
:1004EC004FF0804202604FF4FA524260836040F653
:1004FC00B732C26003618023836101F089F990B93E
:10050C004FF48053029302A90B4801F0B9F968B972
:10051C000023009301936946074801F01FFA40B984
:10052C0007B05DF804FBFFF7CBFEE9E7FFF7C8FE69
:10053C00EEE7FFF7C5FEF3E75C0000200368B3F1BC
:10054C00804F00D0704700B583B003F50433DA69EF
:10055C0042F00102DA61DB6903F001030193019BB4
:10056C00002201211C2000F083FF1C2000F0B8FFAA
:10057C0003B05DF804FBFEE7FEE7FEE7FEE7FEE7EF
:10058C0070477047704708B500F07CFA08BD08B595
:10059C00022000F04DFF08BD08B5042000F048FF14
:1005AC0008BD000008B5024801F03BF808BD00BFCB
:1005BC005C00002082B00E4B9A6942F001029A61F5
:1005CC009A6902F001020092009ADA6942F08052B4
:1005DC00DA61DB6903F080530193019B054A536890
:1005EC0023F0E06343F00073536002B0704700BF28
:1005FC0000100240000001400368D86C70470000F6
:10060C0030B482B00022019290F82420012A00F02C
:10061C0091800346012280F824204A68062A2DD8AE
:10062C000468606B02EB8202053A4FF01F0C0CFA67
:10063C0002FC20EA0C000D6805FA02F20243626328
:10064C000A68092A3AD91C68E06802EB42021E3A91
:10065C004FF0070C0CFA02FC20EA0C008D6805FA2E
:10066C0002F20243E2600A68103A012A36D90020ED
:10067C00002283F8242002B030BC70470C2A0ED81C
:10068C000568286B02EB8202233A1F24944020EA6F
:10069C0004000C6804FA02F202432A63D0E70568EE
:1006AC00E86A02EB8202413A1F24944020EA0400DB
:1006BC000C6804FA02F20243EA62C1E71C68206982
:1006CC0002EB42024FF0070C0CFA02FC20EA0C0081
:1006DC008D6805FA02F202432261C4E71A681648D3
:1006EC00824205D09A6A42F020029A620120BFE74A
:1006FC00906810F4000F1BD1906840F400009060DB
:10070C000A68102A01D00020B2E70C4A12680C4982
:10071C00A1FB0212920C02EB82025200019202E047
:10072C00019A013A0192019A002AF9D100209FE71F
:10073C0000209DE702209EE70024014008000020D5
:10074C0083DE1B4330B583B00023019303689A68A2
:10075C0012F0010F33D104469A6842F001029A60FC
:10076C00184B1B68184AA2FB03239B0C019302E055
:10077C00019B013B0193019B002BF9D100F08EF9F9
:10078C00054623689B6813F0010F16D100F086F91B
:10079C00431B022BF5D923689B6813F0010FF0D192
:1007AC00A36A43F01003A362E36A43F00103E3621C
:1007BC00002384F82430012002E0002000E0002017
:1007CC0003B030BD0800002083DE1B4390F82430BA
:1007DC00012B68D010B50446012380F82430FFF7B4
:1007EC00B1FF00285BD1A36A23F4407323F001030B
:1007FC0043F48073A36223682C4A934227D0A26AE5
:10080C0022F48012A2625A6812F4806F05D0A26A98
:10081C0022F4405242F48052A262A26A12F4805F27
:10082C002BD0E26A22F00602E262002284F8242035
:10083C006FF002021A6023689A6802F46022B2F523
:10084C00602F1DD09A6842F480129A602AE0A2F5BB
:10085C008062526812F4702FD1D0A26A42F48012D6
:10086C00A262134A526812F4806FD6D0A26A22F4A4
:10087C00405242F48052A262CFE70022E262D4E7F7
:10088C000A4A934204D09A6842F4A0029A6009E0A2
:10089C00A2F58062526812F4702FD3D1F3E70023D3
:1008AC0084F8243010BD0220704700BF002801409E
:1008BC000024014038B503689A6812F0010F01D189
:1008CC00002038BD04469A6822F001029A6000F0BC
:1008DC00E5F8054623689B6813F0010F13D000F070
:1008EC00DDF8431B022BF5D923689B6813F0010F2D
:1008FC00F0D0A36A43F01003A362E36A43F0010350
:10090C00E3620120DDE70020DBE7000000287BD05C
:10091C0070B50446836A002B4DD02046FFF7CAFF02
:10092C00A36A13F0100369D1002867D1A26A22F4DC
:10093C00885222F0020242F00202A2626268E1696D
:10094C000A43217B42EA4102A568B5F5807F02D0BB
:10095C00012D36D01D46267D012E35D026687168B6
:10096C0021F46941294371602568AE6827493140FB
:10097C001143A960A168B1F5807F01D0012902D192
:10098C002369013B1B052568E96A21F470010B43BF
:10099C00EB62236899681E4B0B409A4225D0A36AE0
:1009AC0023F0120343F01003A362E36A43F0010344
:1009BC00E362012027E0C36280F82430FFF756FD84
:1009CC00ABE74FF48075C6E731B9A169013945EA47
:1009DC00413141F40065C1E7A16A41F02001A162F7
:1009EC00E16A41F00101E162B8E70023E362A36A26
:1009FC0023F0030343F00103A36204E0A36A43F072
:100A0C001003A362012070BD01207047FDF7E1FFC8
:100A1C00FE0E1FFF10B504460E4B18784FF47A7378
:100A2C00B3FBF0F30C4A1068B0FBF3F000F066FD7A
:100A3C0068B90F2C01D901200AE0002221464FF0A1
:100A4C00FF3000F015FD054B1C60002000E001207C
:100A5C0010BD00BF00000020080000200400002092
:100A6C0008B5074A136843F010031360032000F025
:100A7C00EDFC0F20FFF7CEFFFFF79CFD002008BD1B
:100A8C0000200240034A1168034B1B780B4413608F
:100A9C00704700BFA400002000000020014B186824
:100AAC00704700BFA400002038B50446FFF7F6FFDE
:100ABC000546B4F1FF3F02D0044B1B781C44FFF7F2
:100ACC00EDFF401BA042FAD338BD00BF0000002050
:100ADC0082B0084B1B68084AA2FB03235B0A00FB8D
:100AEC0003F3019300BF019B5A1E0192002BF9D115
:100AFC0002B0704708000020D34D6210002800F0AF
:100B0C00F18170B582B00446036813F0010F2CD04C
:100B1C00994B5B6803F00C03042B1DD0964B5B6860
:100B2C0003F00C03082B12D06368B3F5803F41D05F
:100B3C00002B55D103F1804303F504331A6822F4DA
:100B4C0080321A601A6822F480221A6037E08A4BCD
:100B5C005B6813F4803FE7D0874B1B6813F4003FAE
:100B6C0003D06368002B00F0BF81236813F0020FE1
:100B7C0075D0814B5B6813F00C0F5FD07E4B5B68BC
:100B8C0003F00C03082B54D02369002B00F08A804F
:100B9C007A4B01221A60FFF781FF0546764B1B68E2
:100BAC0013F0020F75D1FFF779FF401B0228F5D91E
:100BBC0003209EE1704A136843F48033136063682A
:100BCC0043B3FFF76BFF05466B4B1B6813F4003FF9
:100BDC00CBD1FFF763FF401B6428F5D9032088E1D4
:100BEC00B3F5A02F09D0644B1A6822F480321A6036
:100BFC001A6822F480221A60E1E703F18043A3F51E
:100C0C003C331A6842F480221A601A6842F480322B
:100C1C001A60D4E7FFF742FF0546574B1B6813F4E5
:100C2C00003FA2D0FFF73AFF401B6428F5D9032000
:100C3C005FE1514B5B6813F4803FA5D14E4B1B68B1
:100C4C0013F0020F03D02369012B40F04F814A4A65
:100C5C00136823F0F803616943EAC1031360236846
:100C6C0013F0080F33D0A369002B5CD0434B012247
:100C7C00C3F88024FFF712FF05463F4B5B6A13F065
:100C8C00020F21D1FFF70AFF401B0228F5D90320E0
:100C9C002FE1394A136823F0F803616943EAC10371
:100CAC001360DCE7354B00221A60FFF7F7FE0546B0
:100CBC00314B1B6813F0020FD1D0FFF7EFFE401B36
:100CCC000228F5D9032014E10120FFF701FF236866
:100CDC0013F0040F00F09680274BDB6913F0805F54
:100CEC0034D1254BDA6942F08052DA61DB6903F0CA
:100CFC0080530193019B0125214B1B6813F4807FCA
:100D0C0026D0E368012B3DD0002B53D103F1804357
:100D1C0003F504331A6A22F001021A621A6A22F0ED
:100D2C0004021A6233E0154B0022C3F88024FFF74B
:100D3C00B5FE0546104B5B6A13F0020FC7D0FFF7E8
:100D4C00ADFE401B0228F5D90320D2E00025D3E7E5
:100D5C000B4A136843F480731360FFF79FFE06463B
:100D6C00074B1B6813F4807FCBD1FFF797FE801BDA
:100D7C006428F5D90320BCE0001002400000424278
:100D8C00007000405F4A136A43F001031362E3688A
:100D9C0033B3FFF783FE06465A4B1B6A13F0020F60
:100DAC002FD1FFF77BFE801B41F288339842F3D999
:100DBC0003209EE0052B09D0524B1A6A22F0010247
:100DCC001A621A6A22F004021A62E0E74D4B1A6AA0
:100DDC0042F004021A621A6A42F001021A62D6E761
:100DEC00FFF75CFE0646474B1B6A13F0020F08D058
:100DFC00FFF754FE801B41F288339842F3D903204D
:100E0C0077E0E5B9E369002B72D03E4A526802F0F4
:100E1C000C02082A56D0022B17D03B4B00221A6624
:100E2C00FFF73CFE0446374B1B6813F0007F47D09E
:100E3C00FFF734FE001B0228F5D9032059E0314A94
:100E4C00D36923F08053D361DCE72F4B00221A6661
:100E5C00FFF724FE05462B4B1B6813F0007F06D0D2
:100E6C00FFF71CFE401B0228F5D9032041E0236A42
:100E7C00B3F5803F1AD023494B6823F47413226ACC
:100E8C00606A024313434B601F4B01221A66FFF743
:100E9C0005FE04461B4B1B6813F0007F0ED1FFF7B9
:100EAC00FDFD001B0228F5D9032022E0154A5368EA
:100EBC0023F40033A1680B435360DCE7002018E0F7
:100ECC00002016E0012B16D00E4B5B6803F480312A
:100EDC00226A914211D103F47013626A93420ED1CB
:100EEC00002006E001207047012002E0012000E014
:100EFC00002002B070BD0120FBE70120F9E70120C2
:100F0C00F7E700BF001002400000424286B0174BCA
:100F1C000FCB0DF1180C0CE90F0040F20123ADF8CA
:100F2C000430134B5B6803F00C02082A02D0114802
:100F3C0006B07047C3F3834218326A4412F8100C9F
:100F4C0013F4803F0DD00A4B5B68C3F34043183356
:100F5C006B4413F8143C074A02FB00F0B0FBF3F0AF
:100F6C00E6E7054B03FB00F0E2E700BF981A000828
:100F7C000010024000127A0000093D00002800F029
:100F8C00A08070B50D460446524B1B6803F0070356
:100F9C008B420BD24F4A136823F007030B431360A9
:100FAC00136803F007038B4240F08D80236813F025
:100FBC00020F17D013F0040F04D0474A536843F4C0
:100FCC00E0635360236813F0080F04D0424A53685F
:100FDC0043F460535360404A536823F0F003A16814
:100FEC000B435360236813F0010F31D06368012B5E
:100FFC0020D0022B25D0384A126812F0020F64D090
:10100C0035494A6822F0030213434B60FFF746FD53
:10101C000646314B5B6803F00C036268B3EB820F3E
:10102C0016D0FFF73BFD801B41F288339842F0D974
:10103C00032045E0284A126812F4003FE0D1012059
:10104C003EE0254A126812F0007FD9D1012037E02A
:10105C00204B1B6803F00703AB420AD91D4A1368E7
:10106C0023F007032B431360136803F00703AB4211
:10107C002DD1236813F0040F06D0174A536823F4BC
:10108C00E063E1680B435360236813F0080F07D04B
:10109C00114A536823F46053216943EAC103536036
:1010AC00FFF734FF0C4B5B68C3F303130B4AD35CA1
:1010BC00D8400B4B18600B4B1868FFF7ABFC0020AB
:1010CC0070BD012070470120FAE70120F8E70120EC
:1010DC00F6E700BF0020024000100240AC1A0008E6
:1010EC00080000200400002070B582B0044603689C
:1010FC0013F0010F36D03F4BDB6913F0805F49D101
:10110C003C4BDA6942F08052DA61DB6903F08053C0
:10111C000193019B0125384B1B6813F4807F3BD056
:10112C00344B1B6A13F4407313D0626802F44072A0
:10113C009A420ED02F4A136A23F440702F4901268D
:10114C00C1F840640026C1F84064106213F0010F2E
:10115C0036D1284A136A23F4407361680B43136237
:10116C00002D3ED1236813F0020F06D0214A53689C
:10117C0023F44043A1680B435360236813F0100F12
:10118C0034D01C4A536823F48003E1680B4353604A
:10119C0000202CE00025BEE7174A136843F4807347
:1011AC001360FFF77BFC0646134B1B6813F4807F20
:1011BC00B6D1FFF773FC801B6428F5D9032016E029
:1011CC00FFF76CFC06460B4B1B6A13F0020FC0D1E9
:1011DC00FFF764FC801B41F288339842F3D903205B
:1011EC0005E0D36923F08053D361BBE7002002B044
:1011FC0070BD00BF00100240007000400000424271
:10120C0070B582B00024A446A6E0804DAA4210D04E
:10121C0007D97F4DAA420CD005F58035AA4208D0DB
:10122C0013E0A5F58015AA4203D005F57025AA4256
:10123C0007D18A68002A58D0012A51D0436108246A
:10124C0003E0A5F58015AA42F3D0BEF1FF0F4ED8EE
:10125C000646BEF1FF0F4CD84FEA8C0233680F25BF
:10126C00954023EA050304FA02F2134333604B68FA
:10127C0013F0805F6ED0674B9A6942F001029A615D
:10128C009B6903F001030193019B4FEA9C02951C9F
:10129C00614B53F825600CF003039D000F23AB400A
:1012AC0026EA03065D4B984229D003F580639842E9
:1012BC0000F08E8003F58063984200F08B8003F57C
:1012CC008063984219D004231AE0CC68BDE7CC683F
:1012DC000434BAE7CC680834B7E7CC680C34B4E70C
:1012EC0003610824B1E70024AFE70424ADE7061D31
:1012FC00AFE7ACF108029200B0E7032300E0002353
:10130C00AB4033430232444D45F822304B6813F462
:10131C00803F61D0424A136843EA0E0313604B6866
:10132C0013F4003F5ED03E4A536843EA0E03536009
:10133C004B6813F4801F5BD0394A936843EA0E0361
:10134C0093604B6813F4001F58D0354AD36843EAB6
:10135C000E03D3600CF1010C0A6832FA0CF353D073
:10136C00012303FA0CF302EA030E33EA0202F1D171
:10137C004A68122A3FF649AF122A3FF666AF01A51A
:10138C0055F822F03F120008D7120008E1120008AD
:10139C00F3120008571200085712000857120008E1
:1013AC00571200085712000857120008571200086D
:1013BC00571200085712000857120008571200085D
:1013CC005712000857120008DB120008E712000839
:1013DC00012395E7022393E7114A136823EA0E03CE
:1013EC0013609CE70E4A536823EA0E0353609FE791
:1013FC000B4A936823EA0E039360A2E7084AD3686A
:10140C0023EA0E03D360A5E702B070BD00002210E2
:10141C0000003110001002400000014000080140A3
:10142C00000401400AB10161704709040161704771
:10143C0008B5054B5B69034200D108BD024B5861EE
:10144C00FEF77EFEF9E700BF00040140074AD368AF
:10145C0023F4E0631B041B0C000200F4E060034364
:10146C0043F0BF6343F40033D360704700ED00E0FA
:10147C0000B5194BDB68C3F30223C3F1070CBCF1B5
:10148C00040F28BF4FF0040C03F1040EBEF1060F3D
:10149C0018D9033B4FF0FF3E0EFA0CFC21EA0C016D
:1014AC0099400EFA03F322EA0303194300280BDBDD
:1014BC000901C9B200F1604000F5614080F80013E9
:1014CC005DF804FB0023E5E700F00F000901C9B249
:1014DC00024B1954F4E700BF00ED00E014ED00E0FE
:1014EC00002807DB00F01F02400901239340024A49
:1014FC0042F82030704700BF00E100E00138B0F145
:10150C00807F0BD24FF0E0235861054AF02182F81E
:10151C0023100020986107221A6170470120704740
:10152C0000ED00E010B4036A046A24F001040462C4
:10153C00846924F0F00C4CEA021223F00A030B43EA
:10154C008261036210BC704710B4046A24F010046A
:10155C0004628469036A24F4704C4CEA023223F06E
:10156C00A00343EA01138261036210BC70478368D5
:10157C0023F070030B4343F00703836070470000B4
:10158C0090F83D30DBB2012B27D1022380F83D309F
:10159C000268D36843F00103D3600368114A934295
:1015AC0010D0B3F1804F0DD0A2F59432934209D0F4
:1015BC0002F58062934205D01A6842F001021A606B
:1015CC00002070479A6802F00702062A07D01A68B2
:1015DC0042F001021A600020704701207047002081
:1015EC00704700BF002C01400268D36823F0010350
:1015FC00D3600368196A41F21112114208D1196AB9
:10160C0040F24442114203D11A6822F001021A60DE
:10161C00012380F83D3000207047704770477047B9
:10162C00704710B5044603681A6912F0020F11D006
:10163C00DA6812F0020F0DD06FF002021A6101236A
:10164C00037703689B6913F0030F70D0FFF7E6FF75
:10165C000023237723681A6912F0040F12D0DA687A
:10166C0012F0040F0ED06FF004021A6102232377DC
:10167C0023689B6913F4407F5FD02046FFF7CEFFB1
:10168C000023237723681A6912F0080F12D0DA6846
:10169C0012F0080F0ED06FF008021A6104232377A2
:1016AC002368DB6913F0030F4ED02046FFF7B6FF1B
:1016BC000023237723681A6912F0100F12D0DA680E
:1016CC0012F0100F0ED06FF010021A61082323775E
:1016DC002368DB6913F4407F3DD02046FFF79EFF63
:1016EC000023237723681A6912F0010F03D0DA68FC
:1016FC0012F0010F36D123681A6912F0800F03D053
:10170C00DA6812F0800F34D123681A6912F0400F96
:10171C0003D0DA6812F0400F32D123681A6912F044
:10172C00200F03D0DA6812F0200F30D110BDFFF774
:10173C0074FF2046FFF773FF8AE72046FFF76DFF23
:10174C002046FFF76CFF9BE72046FFF766FF20461D
:10175C00FFF765FFACE72046FFF75FFF2046FFF77A
:10176C005EFFBDE76FF001021A612046FEF784FDB3
:10177C00C1E76FF080021A61204600F026F9C3E73A
:10178C006FF040021A612046FFF74AFFC5E76FF081
:10179C0020021A61204600F017F9C7E703681B4ABC
:1017AC0090420AD0B0F1804F07D0A2F5943290420B
:1017BC0003D002F58062904203D123F070034A6893
:1017CC001343124A90420AD0B0F1804F07D0A2F5D1
:1017DC009432904203D002F58062904203D123F4FC
:1017EC004073CA68134323F080034A6913430360B0
:1017FC008B68C3620B688362044B984202D001234E
:10180C00436170470B690363F9E700BF002C01408B
:10181C0040B310B5044690F83D30F3B1022384F880
:10182C003D30214651F8040BFFF7B8FF012384F833
:10183C00463084F83E3084F83F3084F8403084F8E9
:10184C00413084F8423084F8433084F8443084F8D2
:10185C00453084F83D30002010BD80F83C30FEF758
:10186C006DFEDBE70120704710B4846824F47F4CD4
:10187C0042EA03220A4342EA0C02826010BC70471F
:10188C0090F83C30012B66D010B50446012380F84B
:10189C003C30022380F83D300268936823F47F4388
:1018AC0023F0770393600B68602B40D022D8402B39
:1018BC0047D00BD9502B0ED1CA6849680068FFF786
:1018CC0031FE50212068FFF752FE04E0202B0CD093
:1018DC0008D9302B09D0012384F83D30002084F83E
:1018EC003C0010BD0BB1102BF5D119462068FFF749
:1018FC003EFEF0E7702B0ED0B3F5005FEBD1CB685A
:10190C004A6889680068FFF7AFFF2268936843F460
:10191C0080439360DFE7CB684A6889680068FFF70B
:10192C00A3FF2268936843F077039360D3E7CA68F8
:10193C0049680068FFF708FE60212068FFF717FE72
:10194C00C9E7CA6849680068FFF7ECFD40212068C8
:10195C00FFF70DFEBFE702207047000090F83C3007
:10196C00012B2CD010B4012380F83C30022380F8DA
:10197C003D3003685A689C6822F0700C0A6842EA91
:10198C000C025A6003680F4A93420AD0B3F1804F9D
:10199C0007D0A2F59432934203D002F580629342B1
:1019AC0004D124F080044A6814439C60012380F81D
:1019BC003D30002380F83C30184610BC70470220A4
:1019CC00704700BF002C0140704770477047000003
:1019DC000C480D490D4A002302E0D458C45004337E
:1019EC00C4188C42F9D30A4A0A4C002301E0136054
:1019FC000432A242FBD3FFF7E9FF00F00FF8FEF729
:101A0C0099FC7047000000200C000020C41A00084C
:101A1C000C000020A8000020FEE7000070B5002696
:101A2C000C4D0D4C641BA410A64209D100F022F8F9
:101A3C0000260A4D0A4C641BA410A64205D170BDA9
:101A4C0055F8043B98470136EEE755F8043B9847A8
:101A5C000136F2E7BC1A0008BC1A0008BC1A0008D0
:101A6C00C01A000803460244934200D1704703F8A1
:101A7C00011BF9E7F8B500BFF8BC08BC9E467047DF
:0C1A8C00F8B500BFF8BC08BC9E467047CF
:101A980002030405060708090A0B0C0D0E0F1010A7
:101AA8000000000000000000000000000102030424
:041AB800060708090C
:041ABC0031010008EC
:041AC0000D0100080C
:0C1AC40001000000100000000024F400ED
:04000005080019DDF9
:00000001FF
